:020000040000fa
:080000000001040000000000f3
:020000040000fa
:040008000c020000e6
:020000040000fa
:04000c004e020000a0
:020000040000fa
:040010008e0200005c
:020000040000fa
:040014002c020000ba
:020000040000fa
:040018006e02000074
:020000040000fa
:04001c008c03000051
:020000040000fa
:040020008c0300004d
:020000040000fa
:040024008c03000049
:020000040000fa
:040028008c03000045
:020000040000fa
:04002c008c03000041
:020000040000fa
:040030008c0300003d
:020000040000fa
:040034008c03000039
:020000040000fa
:040038008c03000035
:020000040000fa
:04003c008c03000031
:020000040000fa
:040040008c0300002d
:020000040000fa
:040044008c03000029
:020000040000fa
:040048008c03000025
:020000040000fa
:04004c008c03000021
:020000040000fa
:040050008c0300001d
:020000040000fa
:040054000a0300009b
:020000040000fa
:04005800ae020000f4
:020000040000fa
:04005c008c03000011
:020000040000fa
:040060008c0300000d
:020000040000fa
:040064008c03000009
:020000040000fa
:040068008c03000005
:020000040000fa
:04006c008c03000001
:020000040000fa
:040070008c030000fd
:020000040000fa
:040074008c030000f9
:020000040000fa
:040078008c030000f5
:020000040000fa
:04007c008c030000f1
:020000040000fa
:040080008c030000ed
:020000040000fa
:040084008c030000e9
:020000040000fa
:040088008c030000e5
:020000040000fa
:04008c008c030000e1
:020000040000fa
:040090008c030000dd
:020000040000fa
:040094008c030000d9
:020000040000fa
:040098008c030000d5
:020000040000fa
:04009c008c030000d1
:020000040000fa
:0400a0008c030000cd
:020000040000fa
:0400a4008c030000c9
:020000040000fa
:0400a8008c030000c5
:020000040000fa
:0400ac008c030000c1
:020000040000fa
:0400b0008c030000bd
:020000040000fa
:0400b4008c030000b9
:020000040000fa
:0400b8008c030000b5
:020000040000fa
:0400bc008c030000b1
:020000040000fa
:0400c0008c030000ad
:020000040000fa
:0400c4008c030000a9
:020000040000fa
:0400c8008c030000a5
:020000040000fa
:0400cc008c030000a1
:020000040000fa
:0400d0008c0300009d
:020000040000fa
:0400d4008c03000099
:020000040000fa
:0400d8008c03000095
:020000040000fa
:0400dc008c03000091
:020000040000fa
:0400e0008c0300008d
:020000040000fa
:0400e4008c03000089
:020000040000fa
:0400e8008c03000085
:020000040000fa
:0400ec008c03000081
:020000040000fa
:0400f0008c0300007d
:020000040000fa
:0400f4008c03000079
:020000040000fa
:0400f8008c03000075
:020000040000fa
:0400fc008c03000071
:020000040000fa
:040100008c0300006c
:020000040000fa
:040104008c03000068
:020000040000fa
:040108008c03000064
:020000040000fa
:04010c008c03000060
:020000040000fa
:040110008c0300005c
:020000040000fa
:040114008c03000058
:020000040000fa
:040118008c03000054
:020000040000fa
:04011c008c03000050
:020000040000fa
:040120008c0300004c
:020000040000fa
:040124008c03000048
:020000040000fa
:040128008c03000044
:020000040000fa
:04012c007603000056
:020000040000fa
:040130008c0300003c
:020000040000fa
:040134008c03000038
:020000040000fa
:040138008c03000034
:020000040000fa
:04013c008c03000030
:020000040000fa
:040140008c0300002c
:020000040000fa
:040144008c03000028
:020000040000fa
:040148008c03000024
:020000040000fa
:04014c008c03000020
:020000040000fa
:040150008c0300001c
:020000040000fa
:040154008c03000018
:020000040000fa
:040158008c03000014
:020000040000fa
:04015c008c03000010
:020000040000fa
:040160008c0300000c
:020000040000fa
:040164008c03000008
:020000040000fa
:040168008c03000004
:020000040000fa
:04016c008c03000000
:020000040000fa
:040170008c030000fc
:020000040000fa
:040174008c030000f8
:020000040000fa
:040178008c030000f4
:020000040000fa
:04017c008c030000f0
:020000040000fa
:040180008c030000ec
:020000040000fa
:040184008c030000e8
:020000040000fa
:040188008c030000e4
:020000040000fa
:04018c008c030000e0
:020000040000fa
:040190008c030000dc
:020000040000fa
:040194008c030000d8
:020000040000fa
:040198008c030000d4
:020000040000fa
:04019c008c030000d0
:020000040000fa
:0401a0008c030000cc
:020000040000fa
:0401a4008c030000c8
:020000040000fa
:0401a8008c030000c4
:020000040000fa
:0401ac008c030000c0
:020000040000fa
:0401b0008c030000bc
:020000040000fa
:0401b4008c030000b8
:020000040000fa
:0401b8008c030000b4
:020000040000fa
:0401bc008c030000b0
:020000040000fa
:0401c0008c030000ac
:020000040000fa
:0401c4008c030000a8
:020000040000fa
:0401c8008c030000a4
:020000040000fa
:0401cc008c030000a0
:020000040000fa
:0401d0008c0300009c
:020000040000fa
:0401d4008c03000098
:020000040000fa
:0401d8008c03000094
:020000040000fa
:0401dc008c03000090
:020000040000fa
:0401e0008c0300008c
:020000040000fa
:0401e4008c03000088
:020000040000fa
:0401e8008c03000084
:020000040000fa
:0401ec008c03000080
:020000040000fa
:0401f0008c0300007c
:020000040000fa
:0401f4008c03000078
:020000040000fa
:0401f8008c03000074
:020000040000fa
:0401fc008c03000070
:020000040000fa
:100200002f9d20000e7f24000e01880000000000ba
:10021000000020000000e000020032000001200089
:100220002002880014000700620107000000e000bf
:1002300003003a006039220001002000020037006c
:100240000000200001002000810f7000010032003a
:1002500014000700000020000000e000020032004f
:100260000000020000000000302102000000000039
:100270000040da000000fe004440a90020002000f9
:100280000000e00003003200100020009001880010
:100290004440a800000006008a1f78008b1f7800e9
:1002a00000000600a1028800800478000000eb0036
:1002b0001f003700e284440054a0b4009905ba003e
:1002c000e284440054a0b4009906ba00e2844400d9
:1002d00054a0b4000006eb00476fde00fd07b2003b
:1002e000ae018800636ce10003003a00eaff0700fa
:1002f0000000eb000e003700606ce10008003a00df
:10030000004deb000a05e800020039003420ec0043
:100310000af0a0008b05e900f9ff3e000400370059
:100320006168e100010032000086eb000b0007006d
:1003300019c7ba001905ba000e04e00003003a001c
:100340000a00e000dbff3a0000000600fe07b200f2
:10035000ae0288008a047800f5ff37000cd0a300b5
:10036000e20f4d001c00390089027800354dba00bb
:100370000a05e800020039003420ec000af0a00071
:100380008b05e9000f003200254dba000a05e80090
:10039000020039003420ec000af0a0008b05e900cf
:1003a000080032000c00e0000600320015cdba0053
:1003b0000a05e800020039003420ec000af0a00031
:1003c0008b05e9008984e80054a0b4000b00e0002c
:1003d000e2ff3a00000006009902ba00055d7800cd
:1003e0008b05e900f7ff3200c82ade00055d7800c2
:1003f0008b05e900f3ff32000c00e000f1ff320052
:1004000019ddba00eeff3700000000000000000018
:1004100000000000000000003600f800809fbe00d1
:10042000829fbe00849fbe00869fbe000000fa002f
:100430008020a9000000eb00ca1107000080fa002c
:100440004f03be004f02be004f01be004f00be0072
:100450003600f900004006003600f800809fbe001c
:10046000829fbe00849fbe00869fbe000000fa00ef
:10047000c11107008040a90010002000b911070039
:100480000080fa004f03be004f02be004f01be00c5
:100490004f00be003600f900004006003600f800ac
:1004a000809fbe00829fbe00849fbe00869fbe00cc
:1004b0000000fa008060a90020002000a9110700b8
:1004c0000080fa004f03be004f02be004f01be0085
:1004d0004f00be003600f900004006003600f8006c
:1004e000809fbe00829fbe00849fbe00869fbe008c
:1004f0000000fa008080a900300020009911070058
:100500000080fa004f03be004f02be004f01be0044
:100510004f00be003600f900004006003600f8002b
:10052000809fbe00829fbe00849fbe00869fbe004b
:100530000000fa008600a900700020008911070061
:100540000080fa004f03be004f02be004f01be0004
:100550004f00be003600f900004006003600f800eb
:10056000809fbe00829fbe00849fbe00869fbe000b
:100570000000fa00c041800000000100a14180009d
:1005800090418000808f500002003a009980a900bd
:10059000190037008980a90010003700a0418000b1
:1005a000904078008180fb00e11c88000000e8009a
:1005b000a0418800a1418000709c2000808f5000e5
:1005c00002003a00e09b2000a0418800a141800089
:1005d00090418000808f500006003200d11c8000c6
:1005e00000202000008060000000e000ebff3200ef
:1005f00001003700000000000080fa004f03be0039
:100600004f02be004f01be004f00be003600f90091
:10061000004006003600f800809fbe00829fbe00aa
:10062000849fbe00869fbe000000fa00d04180007b
:10063000000001008960a90021003700714180009d
:10064000f01c8000004078008048780070418000f5
:100650001040780000e8b70071418000f09c200055
:10066000808f500009003200704180000000e800d7
:1006700081418000810f50000400320070418000f1
:100680000000e800704188000d00370071418000d3
:10069000f09c2000808f500007003a0081418000cc
:1006a000709c2000808f500003003200709c20005e
:1006b000704188000200370010c0b30036e8b70070
:1006c000d01c8000610060000000e000dbff3a0009
:1006d0000080fa004f03be004f02be004f01be0073
:1006e0004f00be003600f90000400600801f780071
:1006f0000000fa00d01c8000620060000000e000f2
:10070000010032009a23a9009020a9000080fa007d
:100710004f007800004006000040da000000fe00b4
:100720000a00fa00e40147008009780066004700eb
:100730000108780068004700020878000e80e80091
:10074000e6004700110878000000eb00000f780079
:100750000f00370000000000d50c07000004a200c5
:100760000004e000fcff3a000e80e8001000780072
:10077000104078008e80e800910078000101e800c8
:100780008e80e80082087800a90c07001e0fe800a0
:1007900068004700100078009e007800808f5000ad
:1007a000ecff390068004700100078000080fa0074
:1007b00000000600000005000001be002400070044
:1007c0000470a70003f0a1006509b1001600320013
:1007d0000d0035006828e10006003500f0ff2f000d
:1007e000f1ff27000300e00013003b000100280098
:1007f0000000050000004000818048008502e900fb
:10080000fcff3a0008003700f88f420002003c006d
:100810008000eb00000005008100d1000080d300c3
:100820008502e800fcff3a000300e00002003b0004
:1008300060001000e0801800000006004f89de0014
:10084000820178006c0337006011b8007a0337002a
:10085000c70ade00f107b200f50fb200080032004f
:10086000e1cf4200020032000170a0002400050028
:10087000810f7000010032000408050044000500eb
:10088000810f700002003a00140005008502e900a3
:100890000000400081c04800fcff3b000170a00048
:1008a0002400050007f82700078361000638e100ef
:1008b00004003a00f7072000878361008703710076
:1008c00001003a0003f0a200889fbe008a9fbe008c
:1008d0008c9fbe00470ade000480a100c71ade001c
:1008e0000580a1000700280007856000878561005a
:1008f000f70f20000720e1009e0032000728e100ea
:100900009c003200010678000400e000b4003200d0
:10091000f7072000878060000170a0000500e0005c
:10092000c0003200f7072000878161000370a0003b
:10093000050652000f003a000b50e1000b00320098
:100940000308e10002003a000200e1007e003200ec
:100950000204500083845800040031000001fd00af
:100960008101fd008402fd008a05fd006044b8009d
:10097000210037000520e10005003d000001fd00d9
:100980008101fd008402fd008a05fd00050652007c
:100990007a60e100050035000170a1004722dd000a
:1009a000848070008a807000630037006044b80063
:1009b000ef02660007ff2f00070666000500e00053
:1009c00006003400f08312008714dd000511de00fc
:1009d000071bdd00060171008519de007060e10073
:1009e00005003500090478008204780003017800ce
:1009f0008001eb00700656000b50e10003003a0046
:100a000002004000838048000400370060041400a6
:100a1000e0841c0002005800838058000188a30075
:100a2000060032008100d1000080d3008984d30009
:100a30000884d3000402e800270037000178a300ef
:100a400025003a000100e000030032008186cf005b
:100a5000698656000a0037008c0020000000e00084
:100a600004003a0009007800880478000004eb00d4
:100a7000700252008086cf000d0646000c06e90089
:100a80007060e10006003500800078000900780001
:100a9000880478000004eb007006560070025200d3
:100aa0000c00e0000c0034008c08dd00f0031600a0
:100ab0000703de00868070000c00dd00074bde00bf
:100ac000060070008c4cdd000743de008684740055
:100ad0000c44dd000c0252006120e10020003500d2
:100ae000610160000700280087816400f7ff27008c
:100af00087836400070374000300e00006003200ef
:100b000082037300040032000000e800e080480027
:100b10000188a3000e003a00f70f20000720e10033
:100b20004a003d000170a1004722dd0081007200f3
:100b30008a8070000000be004f06be004f05be0058
:100b40004f04be00000006006000b800faff370046
:100b50008100d1000080d3000402e800eeff3700de
:100b60000401780089017400a10107008a807000e7
:100b7000f1ff3700f7010700070278000001fd00d0
:100b80008101fd00f30107008702780085037200f0
:100b90000778a300040032000001fd008101fd0080
:100ba00006020700e4ff3700850362000768a30020
:100bb000080032000b50e10003003200f0ff2f006c
:100bc000f1ff2700dcff37000001fd008101fd007f
:100bd000d9ff37000468a300d7ff3200faff3700bf
:100be000f8ff2700888360000b003a000000e00057
:100bf00009003a008303640082837300020032001c
:100c00000200be00ccff37000b50e100ceff3a00df
:100c10000200be00c8ff37001400200081006400fd
:100c20003eff3700f8ff27008883610004003a0088
:100c30000200e00002003a008c007800beff37009e
:100c4000150020008301640039ff370001f82700f8
:100c50000000200081007500b7ff3700889fbe00ac
:100c60008a9fbe008c9fbe001b0020000202be00b7
:100c70000586680006002800060666004709de00b3
:100c8000f20fb200820032000243e800800032001e
:100c9000c729de00f30fb2007d0032000343e800f5
:100ca0007b003200f107b2000170a000f507b2002e
:100cb0000570a000c708dd004903de0086807000d3
:100cc0004700dd00c72add004923de00868272006e
:100cd0004722dd00030551000403500085835800be
:100ce0000300310000004000818048000a05e9004f
:100cf0008c1f78008a9fbe00040050008580580039
:100d00000402420085824a000000400081804800c1
:100d10000005eb000004be006033b8000406be000e
:100d20000d48e10056003100110009004dccd800fb
:100d30000c01b8000d02b8008481410060824a00b5
:100d40008283530003045c0084845c0060055d00c2
:100d50000a00e00025003a00800578000d40e1001f
:100d60004900310088007800070078001100090070
:100d70004d88d8000c01b8000d02b80084814100f4
:100d800060824a006003110083835b0004045c00fe
:100d9000e0845c000900e00021003a004f01be0041
:100da0000300e0002b003200e3016000070673003f
:100db0008c81710001003200640070004200de008e
:100dc0004e5edd000c007000c258de0001e0a000a5
:100dd00083010700cf017800818071004f06be00bb
:100de0004f05be004f04be00000006008c83430088
:100df0000d044c00e0844c0060054d000000e9004b
:100e00000a00e000d4ff32008c8343000d044c0044
:100e1000e0844c0060054d000000e900ceff370083
:100e20000c0343008d834b0060044c00e0844c00b5
:100e30000000e9000900e000d8ff32000c03430085
:100e40008d834b0060044c00e0844c000000e900fe
:100e5000d2ff37004200de004e5edd000c00700065
:100e6000c258de0001e0a000cf0178000300e000de
:100e7000daff320060001000e0801800d7ff370072
:100e8000f0ff2f00aaff3700f0ff2f00b9ff370057
:100e90000404be002f010700870678000004fd004f
:100ea0008104fd002b010700078366000678a3007c
:100eb000030032000960a7000800be002c003700c4
:100ec0000d78a300020032000800be0028003700a1
:100ed0000778a30026003a0001f0a10009f0a10064
:100ee0000668a30003003200f1ff2700f0ff2f0087
:100ef000baff37000d68a300030032000800be00ef
:100f00008c807000b5ff37000768a30007003a0027
:100f10000648a30003003200f1ff2700f0ff2f0076
:100f2000aeff37000d48a300030032006000b80098
:100f30008c807000a9ff37000748a300040032002e
:100f400001f82700000020008c807000a3ff37000c
:100f5000760107000004fd008104fd000205780011
:100f6000720107000802be008a01780059ff3700ad
:100f70000160a00012022000f241880097ff3700b4
:100f80000100e000120032000500e0001000320015
:100f9000889fbe008a9fbe008c9fbe000006eb00ab
:100fa00001f8a3000300320060001000e080180088
:100fb0000cf0a00005f8a30003003200600212004c
:100fc000e0821a000cf0a2008005eb0041ff370020
:100fd0006000b800020005000383680007002800d5
:100fe00007036300470ade000480a100c71ade0081
:100ff0000580a100f70f20000720e1004200320029
:101000000728e10040003200889fbe008a9fbe0092
:101010008c1f7800f107b200f307b2000400e00073
:10102000640032000170a0000500e000680032009a
:101030000370a00085054200eb07b1000204b80070
:101040000302b8008484440060854a00020ab800a4
:10105000848444000a854a00030ab8000405450058
:10106000040033000804d0008984d2000a85d2002d
:101070008b05e9006158e1003d00350002102000b9
:10108000090161000308200089816100f707200041
:101090008783640008867300c84cde00c853dd00f7
:1010a000878474004855de000300e000060032002b
:1010b00082037600040032008904e80060054d00d8
:1010c0000a88a3000c003a00f70f20000758e1003f
:1010d00044003d000a70a100c75ddd000a8575006f
:1010e0008a007300090078004f0678004f05be00a3
:1010f0004f04be00000006000a05d1008984d30019
:101100008b05e800f0ff3700881f780006047800a0
:1011100090000700070278000001fd008101fd003a
:101120008c00070087027800850372000778a3000f
:10113000050032000001fd008101fd009f00070055
:101140004f04780000000600850372000748a300e2
:1011500003003200f0ff2f00f1ff2700f8ff3700f7
:101160000000200001f8270088807000f4ff37009d
:10117000880178004848dd00808171004848de0021
:10118000c850dd0001007000c850de000604780081
:101190000b0178001600070088807000d2ff37002e
:1011a0000500e00005003200170020003a000700ab
:1011b0009dff370081037000f9ff3a008600780038
:1011c0004f0678004f05be004f04be00000005002a
:1011d00083037100f9ff3200270020002e00070072
:1011e00094ff370001f8270086807000f4ff370075
:1011f0000100e00026003200610111007810e100da
:1012000023003c006022b8007010e10004003500ab
:1012100080027800010078008000eb00700151002e
:101220000200e0000900340070031100062add000e
:10123000822ade008603dd00878272000200de0063
:10124000860bdd00070070008208de0084817100db
:10125000f4ff2700048262008481710004002800ea
:10126000848262006102600005f0a60000000600b2
:1012700004827100070032000000e800e0804800ae
:10128000000006000002be006000b800efff37005b
:101290006000b80000000600889fbe000004eb005c
:1012a0006138e10016003a000100e00008003a0051
:1012b000c800de004800dd00880020000100e000da
:1012c00003003a00c800de004800dd006804440066
:1012d0008184cf00e9845400060034008908dd00d1
:1012e000f08314008703de00878070000900dd00b2
:1012f00009044400610214004f04be00000006000f
:101300000300e00008003a00c811de004811dd00cb
:10131000880020000300e00003003a00c811de004e
:101320004811dd00680444008384cf00e984540040
:10133000060034008919dd00f08314008713de00f5
:10134000878171000911dd0009044400e1021400e5
:10135000e9ff37002700200001f0a7001700200058
:10136000470bde00f60fb200040032000643e8002f
:101370000a0032004702b3000000060001037800b3
:10138000f607b2000603700002003a000703b3003c
:10139000000006008702b300000006000103780089
:1013a000f607b20006037000020032000770a000ca
:1013b000000006000760a000000006000478a300fb
:1013c000040032000578a300030032000168a30086
:1013d00001003a000200be000160a000000006000b
:1013e00081017000270032008002eb0001f8a300a9
:1013f0000300320060001000e0801800150020009b
:10140000f40720000202420020003400f70320000d
:101410008703600006042000000363000208200028
:10142000000161004700de00c909dd000080710095
:10143000c708de000600e0000800320087037100e4
:10144000060032001000b0000180b0000188a30047
:1014500002003200c108de000402e800f107b20019
:10146000f30f20000320e10003003d004722dd00d0
:10147000810072002900370001f827000000eb000e
:10148000260037006000b800000006006802120065
:101490007f20e100020034006000b8001f00370028
:1014a0006011b8007020e100040035008001780070
:1014b000010078008000eb00700252000400e000a0
:1014c00009003400f00312000719dd008419de0062
:1014d0000703dd00868171000400de00070bdd00dc
:1014e000060070008408de00f7ff27008383630096
:1014f0008703710006002800030363000700320021
:101500000700e00003003a006101600002817300ff
:10151000020032001000b0000180b0000500a600fb
:101520000000060001f0a000000006004f0ade00e7
:101530004709de00f107b200f20fb2000b003200e3
:10154000f207b1000170a000c708dd00c901de008c
:10155000838070004700dd000400a6000000060044
:1015600060001000e080180000000600810f70008d
:1015700001003a00000006008182cf000500e00073
:1015800010003e008082cf00ee8242007028e10011
:101590000400390007003e00800078000000eb00e6
:1015a0000e003700708312008600de000500dd00ab
:1015b0000a003700708352008600dd000000eb0057
:1015c00006003700e28252008508dd0070831200b9
:1015d0000603de00868070000500dd007507b000a0
:1015e0000501ea000400a6000000060060001000eb
:1015f000e080180000000600881f780003047800cf
:101600000300e00007003d0060001000e0801800cb
:1016100060011900e081190002003b0001f02d007b
:10162000030037000400070008f0a70001f0a00045
:101630004f04780000000600889fbe008a9fbe000d
:1016400000827000040271000482710026003200e2
:101650000004be000200be006011b8006b0920004b
:10166000950220000182cf000a0039000541b10037
:101670000082cf00070039000541b1000982cf0088
:10168000040039000541b1000882cf000100390093
:101690000541b10005425200120032000a003b0031
:1016a00082817100610164008100d1000080d3005b
:1016b0008984d3000884d3008b05e8000442e80045
:1016c000f7ff3a00070037000804440089844c0003
:1016d00000004800818048008b05e9000442e900d1
:1016e000f9ff3a00030007004f05be004f04be009b
:1016f0000000060081002000618055000b003d00c5
:101700000b00200061fe2f000100e1001d003400ed
:1017100082817100610164008904d1000884d300d2
:101720000000e800faff3a00710020006100640048
:1017300003007000020060000900320061044400f0
:10174000e0844c000988a500050032008b05e80004
:101750006808e10002003a008904d1000884d3003f
:10176000f20f20000258e10005003d00c75ddd00da
:10177000f907b200898075000800780000000600b3
:101780000bf827008b00780000000500889fbe0042
:101790008a9fbe000004be00b2362d00d3c02b00cd
:1017a0000dfe0700a23b2100f3d223003dfc070001
:1017b0000001be000800be0007fe070052a72a0075
:1017c000a3e2230040fc07000001be000800be00a9
:1017d00001fe07000005be00e25a2e0043f32b0075
:1017e0000800be00fcfd07000200200003f82300f3
:1017f00035fc07000001be000a00be0017fd07000f
:101800004f05be004f04be0000000600889fbe00ca
:101810008a9fbe008c9fbe000004be000005be0073
:101820008b00780001f0a10008007800f2ff2f0083
:10183000f3f72300820f5000838f58001600360004
:101840000200200003f82300820f5000838f58000d
:1018500007003a00b2fd200093fc23000800be0000
:10186000ddfd0700020020000338200021003700c2
:1018700010022000804e88000801be000800be0053
:1018800008fc07000001be006000b800f3fc070080
:101890000004be0038003700f2ff2f00f3ef2300f2
:1018a000820f5000838f580014003e000200200079
:1018b00003f82f000000410081804900f2ff2f0053
:1018c000f38f2300820f5000838f58002a003600c8
:1018d0000801be000800be00bffd0700abff070007
:1018e0000001be000800be00bbfd07000001be00f5
:1018f0000800be00f4fb0700e5ff37000800be004b
:10190000220007000001be000000200001f82300b3
:10191000e4fb07000200200003f02300aefd0700f7
:101920000006be001e0007000004be000c00be0042
:1019300096ff07000001be000800be00a6fd0700dc
:101940000001be000800be00dffb07000001be0072
:10195000ddfb07000001be00b0fd200091fc23006c
:10196000d0fb07000004be00e00f5500e08f5d00d3
:1019700001003d0009f0a2000800be004f06be00b5
:101980004f05be004f04be00000006000001be006f
:101990008300780001f0a10002007800000006003a
:1019a0002800fa00889fbe008a9fbe008c9fbe0060
:1019b0000004be000a0707000203be000002be00ca
:1019c000c0b79f00d1b79f00e2b79f00f3b79f0059
:1019d0000602be000600200007ff2700878662007f
:1019e00006067800860f5600878f5e0007003a00d3
:1019f0000801be000800be0077fd07000001be0020
:101a00000800be00b0fb0700310137004fb397005c
:101a1000dfb39700e00f5200e08f5a0013003c0044
:101a20008501780003f0a10004017800060171002f
:101a300087817100e00f5100e08f590025013200cd
:101a4000e00f5200e08f5a00080032001002200020
:101a5000804e88000801be000800be0091fb070010
:101a60000001be007dfc07001901370044a8de001c
:101a7000cfa8de00e00f5000e08f58002e003a00a3
:101a80000800370075005000e0805800453cdd003c
:101a90004b32de0004027400cb3ade00c533dd00b9
:101aa00006002000e00f5200e08f5a00f5ff3200e0
:101ab0006011b800040037000402420085824a0029
:101ac00061014100e0814900080020000901200077
:101ad0008585640008057800e00f5500e08f5d0003
:101ae000f5ff320061004000e08048000200500035
:101af0008380580008022000020454000605be003e
:101b0000080678000c06e900030033008b05d100bd
:101b10000a85d300fbff370004027500858275003b
:101b2000820678008d06e9000300330006034300b7
:101b300087834b00fbff3700f03fb1000180b1000d
:101b4000ef816200040178000340a0000008a300b8
:101b50000c0032000201410083814900080020008e
:101b60000900280087826400080278004f2ade00fe
:101b7000050020000201420083814a000603430061
:101b800087834b008182d1000082d30084af9f0005
:101b900095af9f00020141008381490008002000a9
:101ba0000900280087806400080078004f08de00e4
:101bb000010020000201400083814800060043002c
:101bc00087804b006c0120000600200007022000e7
:101bd0006044b8006022b80088bf9f0099bf9f0092
:101be000eca79f000405430085854b00820f55003c
:101bf000838f5d000a003c000a0243008b824b0089
:101c00000a0151008b8159000fbe97009fbe9700bb
:101c10000c0643008d864b008cbf9f009dbf9f002c
:101c20000204410083844900c8b79f00d9b79f00d0
:101c30000a0020000b00280081846500b9b79f00ce
:101c4000aab79f002fb19700bfb197004f19de00d0
:101c500003002000e2af9f00f3af9f004fb4970056
:101c6000dfb497000801410089814900000040006d
:101c7000818048008703d1000683d300efa6970038
:101c80008d06e900eda79f00d6ff3a000fbc970034
:101c90009fbc97006033b800a6b79f00b7b79f00fe
:101ca000cab79f00dbb79f000c022000e8a79f0087
:101cb000f9a79f00e6af9f00f7af9f004fb59700d1
:101cc000dfb597002fb39700bfb397000a04430016
:101cd0008b844b00820f5200838f5a000400350022
:101ce00034003a00800f5400818f5c0030003e00c9
:101cf0004fb59700dfb597000805450089854d0071
:101d0000aab79f00bbb79f000a0020000b00280065
:101d10000983650096b79f008ab79f000fb39700ad
:101d20009fb397008a0f53008b8f5b000c003a0023
:101d3000bfb3970087836500d7af9f00c6af9f00f2
:101d40004fad9700dfad9700e00f5500e08f5d00cd
:101d500003003a0061034200e0834a0001003700bb
:101d60000403be000401510085815900880f500012
:101d7000898f58000200310061015100e081590053
:101d800008005000898058006faa9700ffaa9700aa
:101d90004fb49700dfb497000402440085824c00e2
:101da000e4af9f00f5af9f000602be0001003700c0
:101db0000401be00020141008381490006002000a9
:101dc0000700280081846300b9af9f0006057800f2
:101dd000aaaf9f002fac9700bfac97004f4bde001f
:101de000070020000201430083814b0000004000f7
:101df000818048004fb59700dfb597008b05d10073
:101e00000a85d300cab79f00dbb79f000c06e90024
:101e1000aaff3a006fa49700ffa497006fab97004a
:101e2000ffab97000001710081817100e00f51004c
:101e3000e08f59000b003200e10f4300e08f4b00b0
:101e400004003a0061044400e0844c006033b800b0
:101e5000040037006000b800610063000003430025
:101e600081834b008985d1000885d3008701d1008b
:101e70000681d3000808a3000100320003f0a0008f
:101e80000fae97009fae9700c460dd0000002000f9
:101e90000400200005fe23000000420081804a006b
:101ea0000002450081824d004fabde0086037800c2
:101eb0000403be006022b800040271008582710034
:101ec0000603be000400be000601be00e7050700d1
:101ed0000004be000800be004f06be004f05be0055
:101ee0004f04be000080fa0000000600889fbe007c
:101ef0008a9fbe008c9fbe000004be00040020002c
:101f000005f827008583600004037800840f5300e0
:101f1000858f5b0007003a000801be000800be0084
:101f20002dfc07000001be000800be0066fa070095
:101f300010003700e00f5000e08f58000f003c0009
:101f40008101780003f0a10000017800e00f51004a
:101f5000e08f59006a00320010022000804e880095
:101f60000801be000800be004efa07000001be00d6
:101f70003afb07000004be0061003700478cde001a
:101f8000cf8cde00e00f5400e08f5c000f003a00c1
:101f90006044b80004003700000040008180480021
:101fa00061044400e0844c00040020000508200087
:101fb0008181620004017800e00f5100e08f590038
:101fc000f5ff320061041400e0841c00f807b10042
:101fd0000980b10081017800f307b20000017800a8
:101fe0000200be000170a0000808a3000200320039
:101ff00000004000818048008984d1000884d3001b
:102000000000400081804800940120000200200070
:10201000031020006055b8006066b8000c03410052
:102020008d834900800f5300818f5b0006003c00c8
:102030000606410087864900060050008780580048
:102040000a0541008b85490000004000818048005e
:102050008301d1000281d3000402e900efff3a00be
:10206000e00f5000e08f58001b00320002262400d1
:1020700023da20000000200001f8230009fa0700fd
:102080000200200003f82300760507000000e000ae
:10209000110035000226240023da20000000200071
:1020a00001f8230008fa07000200200003f82300cb
:1020b0006c0507000000e0000300340062054500e5
:1020c000e0854d00040037006000b8006100650045
:1020d0000005450081854d00c744dd000800200053
:1020e0000000200001f0230008044000898448001b
:1020f0008b85d1000a85d3000804450089844d00f2
:102100000800be004f06be004f05be004f04be00d3
:10211000000006000800fa000002be0085017800f9
:1021200003f0a10000017800a6fd200097f4230031
:10213000860f5100878f590006003e00f4ff2f00e4
:10214000f5972300840f5100858f59004b0036000e
:102150003a0037004f0ade0005002000163d25003a
:10216000b7072400860f5100878f590015003e00e5
:1021700036be2c0067012400860f5100878f59005e
:1021800008003e000400e00003003200b2fd200021
:1021900093fc230019003700b2fd200093fc2300bc
:1021a0001a0037000400e00003003200b2fd2000f6
:1021b000930424001c003700b2fd20009304240087
:1021c0001d003700561d2300270e2400860f5100e6
:1021d000878f59001b003e00f6dd2e00f70a240011
:1021e000860f5100878f59000b003e000400e0006d
:1021f0000400320042be2c0063092400b2f907003b
:102200000300370042be2c0063092400a5f9070033
:1022100012002000180037000400e0000400320023
:10222000b2fd2000930c2400a7f90700030037003b
:10223000b2fd2000930c24009af907000001eb0086
:102240000d003700f4ff2f00f5f72700840f510031
:10225000858f5900030036000001be0091f9070088
:102260000600370068815700060007006101600022
:102270004fb89700dfb897005d0007000080fa00b4
:1022800000000600ea874700889fbe008a9fbe00c4
:102290008c9fbe008e1f78000006be0002047800ee
:1022a0000005be008b01780003f0a100000178005a
:1022b000a0fd200091dc2400800f5100818f590087
:1022c0001e003e0032982f0023f223000c00be00b7
:1022d00041fb07000200200003b424007af9070044
:1022e0000200200003b424006ef907000005be00c0
:1022f00031f9070080047800a2fd200093fc230040
:102300000a00be0034fb07000001be000c00be0046
:1023100064f907000006be00325a28008328230013
:102320000a00be002cfb07000001be000c00be002e
:102330005cf90700008cbe0026003700f0ff2f007c
:10234000f1f72700800f5100818f590006003600f9
:102350000c01be000c00be0052f90700008cbe004c
:102360008004eb001b0037004718de00010020004e
:102370006009b1000180b100c702dd000400200047
:10238000040151008581590076875700029fbe00e5
:102390000002eb0013002000000178008e0078009e
:1023a000768057006900070080047800e00f56002f
:1023b000e08f5e0005003d001e00be0001f0a2009f
:1023c000008cbe008904ea00020037003e1c780041
:1023d0002e147800090078004f0778004f06be00e1
:1023e0004f05be004f04be00af00b1000000060064
:1023f000ee874700889fbe008a9fbe008c9fbe006c
:102400008e1f78000005be00020778000001be00a4
:10241000f1fa07000004be000001be00eefa07005a
:10242000b0b79f00c1b79f000a01be000800be0000
:10243000e9fa07000006be003fb19700cfb1970050
:10244000e5fa07000003be00d2f92e0083cc23007a
:102450000800be00d6b79f00e7b79f00defa07006e
:1024600092642a00a3d5230017f907000002be00da
:10247000e25c2100b3c123000800be00f4b79f0056
:1024800085bf9f00d4fa070002d72e0023b4230093
:102490000df907000001be003fb09700cfb09700d4
:1024a000cdfa07000001be007fb297008fba9700f7
:1024b0000400be0004f907000001be005fb39700ee
:1024c000efb397000600be00c3fa07000002be008b
:1024d000a27e290083e023000800be00f4b79f001d
:1024e00085bf9f00bcfa0700a2a62a00a3ea23002a
:1024f000f5f807000001be000c00be00b6fa0700a8
:102500000001be000a00be00eff807007fb297008e
:102510008fba97000401be00ebf807000e00e00040
:10252000040032000001be000000200001f82b0072
:10253000caf907004f0778004f06be004f05be00de
:102540004f04be00ef00b10000000600af17b0005e
:10255000889fbe008a9fbe008c9fbe008e1f7800a1
:10256000b0a79f0081af9f000204780003057800a8
:10257000f4a79f000400420001842000610078005d
:102580006101b900b2af9f00c3af9f000a00e9002c
:102590006102b90094af9f00a5af9f006300540093
:1025a00082012000110009000200d8006103b90077
:1025b000d6a79f00e7a79f00e00f5300e08f5b00c6
:1025c00003003d006000b800d0a79f00e1a79f0076
:1025d0005fa19700efa197000280ea008380ea00e4
:1025e00082012000030020004b040700cfc1de0061
:1025f00000044400818449005fa29700efa2970085
:102600001fab9700afab97000606520087865a00b3
:102610003fa89700cfa897000002430081824b009b
:102620006eec2f000f074700c265dd00808420009c
:10263000808545006011b8000803be000a04be0092
:102640000205be00140037006000b800e00f56001d
:10265000e08f5e000a0035001900be00d4b79f006d
:10266000e5b79f00f6b79f0087bf9f0073f807008c
:102670008fbb97007fb39700efb297005fb29700d0
:1026800000afbe0061054500e0854d0061064600d3
:10269000e0864e00e4844400840f5500858f5d0081
:1026a000e9ff34000805780064f62f000f024200ad
:1026b0006011b800b2b79f00c3b79f0084067800ce
:1026c0001e0037003c00be004b01be00d4b79f0087
:1026d000e5b79f00f6b79f0087bf9f003efa07004f
:1026e0000001be000800be0077f807000004be002d
:1026f0005fb29700efb2970061024200e0824a00a9
:102700008fbb97007fb397001fa89700afa89700d3
:10271000800f5200818f5a00eaff340088aebe005d
:102720003fb19700cfb1970061014100e0814900be
:10273000b2b79f00c3b79f000a05e8003fb29700f9
:10274000cfb297003fa89700cfa89700800f520004
:10275000818f5a0008003c003fa69700c255dd005b
:10276000a1ec2f008f8040008b8540006044b800b2
:102770006022b800e4ff37003fa99700cfa9970077
:10278000b2b79f00c3b79f0096b79f00a7b79f003f
:10279000bfb297004228dd00a6f62f000f034300ca
:1027a000000043001004be006de72f008f86460036
:1027b0003fb09700cfb0970061005000e080580014
:1027c000f0af9f0081b79f00c205dd008b0543007d
:1027d0000d0578003fb39700cfb397000d07780041
:1027e0001900370002002000033823000800be0053
:1027f000f6b79f0087bf9f00f7f90700eef70700c5
:102800000ef807000006be000200200003b82400f6
:10281000f1f907000001be000800be0021f8070022
:10282000e5f7070000adbe002b00be000c01be00a6
:1028300025f807000004be007fb397008fbb970008
:1028400061035300e0835b00e00f5300e08f5b0007
:10285000e4ff3c008e0678001fb697000c0178005c
:102860000800be00340307000004be000200200080
:1028700003e02300d8f90700d0020700020020007f
:1028800003102400d4f907000001be000800be00b8
:1028900004f807000005be00c7f707000004be00eb
:1028a000e6f707000001be000a00be00fdf70700c2
:1028b0000005be001fb19700afb19700e00f5100b7
:1028c000e08f590022003400ffa997004218dd0074
:1028d000a4e72f000f024200000042001002be00d9
:1028e000f80016000401be00010378000603e900a9
:1028f000030033008381d1000281d300fbff370046
:1029000008044100898449008100e9000300330084
:102910000201410083814900fbff370002015200a0
:1029200083815a000288be00770016000202be00b2
:102930000000e900030033008582d1000482d30047
:10294000fbff3700d4af9f00e5af9f001d003700ad
:102950001fb39700afb39700e00f5300e08f5b0009
:102960000b003a00ffab97004238dd00a1e72f00d3
:102970008f804000008040001000be004789de00cc
:10298000d2af9f00cf89de00e3af9f000d0037007c
:102990000200200003f0230032030700240020007f
:1029a00005002000d4af9f00e5af9f000000e000cd
:1029b00009003d006033b800d6af9f00e7af9f002d
:1029c000620037005fa89700efa89700e00f500063
:1029d000e08f58005d00340061044400e0844c0046
:1029e0006000b8006022b800120037005d01be0030
:1029f000e00f5200e08f5a0006003a00e00f51004d
:102a0000e08f59000900320004002000051020006a
:102a100002003700f4ff2f00f50f2000821e520045
:102a200083965a0014002000050020006100400039
:102a3000e08048003fb19700cfb19700820f50006f
:102a4000838f5800e9ff35001fb39700afb397009d
:102a5000e00f5300e08f5b0023003400e10f5300d0
:102a6000e08f5b0004003200e20f5300e08f5b0058
:102a70001d003a000e003700ffab97004238dd0022
:102a8000a1e72f008f804000008040001001be00b1
:102a900003037800f607b200a6a79f008203780020
:102aa00097a79f001fa19700afa197000d003700c7
:102ab000ffa997004218dd00a6e72f000f0343008f
:102ac000000043001001be0083037800f703b2004a
:102ad00087a79f0082007800f19f9f007f99970051
:102ae0008fa197000288be005fab9700efab970005
:102af000e20f5300e08f5b0014003a000a01be00b1
:102b00000000200001f82300d4b79f00e5b79f0024
:102b100064f707000005be005fb29700efb29700b0
:102b2000e00f5200e08f5a00080032000c017800dc
:102b30000000200001f823007f0207000001be0012
:102b40000a00be0057f707000005be006011b8007c
:102b50000a00be00c10207000000e00082003a0047
:102b60003fb09700cfb09700ffab9700423add002f
:102b7000a2e72f000f014100040241006011b800dc
:102b8000030037002403be00060171008781710035
:102b900061005000e08058003fab9700cfab97003a
:102ba000860f5000878f5800f6ff3d00e00f510060
:102bb000e08f59007a003a0061005300e0805b002a
:102bc0004200dd00a7e72f008f8343000080430011
:102bd0001200200003002000f2af9f0083b79f0087
:102be00012002000030020000200370061014100b4
:102bf000e08149002002be00e00f5200e08f5a0041
:102c0000faff3200f2af9f0083b79f003fb39700f7
:102c1000cfb3970061024300e0824b004226dd0003
:102c2000a7f62f008f8343000c8643005fa1970017
:102c3000efa1970061004100e08049003fb3970099
:102c4000cfb397000000430081804b00c204dd0039
:102c500080842000808444001fa99700afa99700ba
:102c600061004100e08049000000430081804b008a
:102c70004201dd00a3ec2f008f81410082814100e1
:102c8000c3a79f000004e8000907780088067800c1
:102c90000404be00280037003e00be00e7f607002f
:102ca0004fa29700009abe00c4a79f003fa29700c2
:102cb000c26add00a6ec2f000f034300850243002b
:102cc0006033b8006055b800d89f9f00e99f9f000f
:102cd0000404be000d0037003800be004901be00ec
:102ce000f6b79f0087bf9f00bbf807000001be003a
:102cf0000a00be00f4f607000005be007fb397008f
:102d00008fbb970061034300e0834b001fa997002e
:102d1000afa99700820f5300838f5b00eeff340052
:102d20005f9c9700ef9c97000a9ebe0061044400e0
:102d3000e0844c008d06e8007faa97008fb29700d0
:102d40003fb39700cfb397000400430085804b004a
:102d5000800f5400818f5c00cfff3400b0b79f001c
:102d6000c1b79f008afe370098af9f00a9af9f00b0
:102d70001fb49700afb497000c01ea000a00be0030
:102d8000ed0107000005be000200200003b824008a
:102d9000340207000000e00020003d00430037003f
:102da00098af9f00a9af9f001fb49700afb49700e2
:102db0003fb09700cfb0970061005000e08058000e
:102dc000b0b79f00c1b79f0078045400e0845c0056
:102dd000bfb097004208dd00a2e72f000f014100bd
:102de000000041003fb19700cfb1970004003700c9
:102df00061015100e081590078045400e0845c00d6
:102e00002002be00e00f5200e08f5a00f8ff3200af
:102e1000b2b79f00c3b79f002c003700020020000c
:102e2000033823000a00be006bf8070062f60700b3
:102e300082f607000006be00bfb29700422fdd00f9
:102e4000a6e72f000f0343000e07430002002000f7
:102e500003b8240060f807000001be000a00be00ad
:102e600090f6070054f60700008fbe003fb09700b1
:102e7000cfb0970061004000e0804800b0b79f00ed
:102e8000c1b79f0078044400e0844c004205dd0097
:102e9000a1e72f008f8040000a8540000c00be0093
:102ea00045f60700008dbe00080037003fb19700cf
:102eb0004216dd00a3e72f008f8141000c86410000
:102ec0000a00be003cf60700008ebe000801780034
:102ed0000000200001f82300970107000004be0055
:102ee0003fb29700f4af9f008402e80095b79f00bf
:102ef000c22ddd00a6e72f000f0343000b054300a2
:102f0000a7f62f008f8343008b8543003fb69700c1
:102f1000cfb697000d0037004a00be0047f6070005
:102f20000001be000800be002bf8070080a5be000f
:102f300002002000033823000800be0026f8070026
:102f40000004be0061065600e0865e00e00f5600f9
:102f5000e08f5e00f0ff3d006df12f008f86460090
:102f60003fb59700cfb597001c0037005c01be004d
:102f70005e00be00d4b79f00e5b79f0016f80700bb
:102f80000001be000800be004ff607000004be00ae
:102f900061054500e0854d00efb297005fb29700f4
:102fa0003fa89700cfa89700800f5500818f5d0044
:102fb00007003c003fb19700cfb1970004005100db
:102fc00085805900800f5500818f5d00e7ff340038
:102fd00088aebe0061055200e0855a00e00f550042
:102fe000e08f5d000b003500ce9420000a06e9005a
:102ff0004266dd00a3f62f008f8141000c86410060
:103000006044b8006000b8000a02be000005be00bf
:10301000e3ff37007fa29700e20f520005003c005b
:10302000e10f520010003d000400e00017003200e4
:10303000da003700ffa29700e38f5200d7003a0072
:103040003fb397004232dd00a7f12f008f8343008a
:1030500004824300040778003fb39700cfb3970082
:10306000b4af9f00700037001fb097004205dd002d
:10307000a1f12f008f8040000a8540003fb49700e7
:10308000cfb497006000b8001d0037001fb1970053
:103090004214dd00a3f12f008f814100088441001c
:1030a0003fb59700cfb597006000b8000400370027
:1030b0004801be0004f6070061055500e0855d008b
:1030c000e00f5500e08f5d00f9ff3d005faa97001b
:1030d000efaa9700e00f5200e08f5a000100320083
:1030e00001f0a2008faa9700808abe00ab003700d3
:1030f0004a01be00f4f5070061045400e0845c005e
:10310000e00f5400e08f5c00f9ff3d000001be00bd
:103110005fab9700efab9700e00f5300e08f5b00d1
:103120000100320001f0a2008fab9700808bbe003f
:103130005f089700ef089700daf50700aaf12f0063
:103140000f0545001800200009002000040037008a
:103150005a01be00dcf5070061044400e0844c0025
:103160003fb19700cfb19700820f5400838f5c006e
:10317000f7ff34008fa99700648141005faa970090
:10318000efaa9700e00f5200e08f5a0001003200d2
:1031900001f0a2000089be0080003700c0ff2f00b0
:1031a000ffaa970000a8b900000047003fb29700af
:1031b000cfb2970061015200e0815a004211dd0058
:1031c000820240005506be000e0278005405be0083
:1031d0000a01be000c00be00d4b79f00e5b79f00f7
:1031e000f6b79f0087bf9f00b7f507000004be0039
:1031f0000001be000c00be00aaf507000001be00e1
:103200000a00be00b0f507005fb29700008abe005a
:10321000efb29700888abe007fb397008fbb9700fc
:1032200061035300e0835b0064075700e00f530025
:10323000e08f5b00d9ff3c003faa97003fb39700a7
:10324000cfb397000404780023003700c0ff2f009d
:10325000ffaa970000a8b900800444003fb197007e
:10326000cfb1970061005100e08059004200dd00bd
:10327000808444005902be00080778005e06be0044
:103280000c01be000400be00d4b79f00e5b79f004c
:10329000f6b79f0087bf9f008bf507000005be00b3
:1032a0000001be005fb29700efb297000400be00bd
:1032b0007cf507000001be000c00be0082f507008f
:1032c000008fbe008a8cbe007fb397008fbb970033
:1032d00061035300e0835b0064045400e10f53007a
:1032e000e08f5b00d9ff3c009fb19700421cdd00de
:1032f000a4f12f000f024200080442003fb59700de
:10330000cfb597006000b800040037004801be0048
:103310006df5070061055500e0855d00e10f550082
:10332000e08f5d00f9ff3c005fab9700efab9700cb
:10333000e00f5300e08f5b000b003a000fa99700ed
:103340005f0a9700ef0a97000499be007f0b970071
:103350008f1397000689be008fab9700c0039800bb
:10336000d10398000d0037005f0a9700ef0a97001d
:1033700005f0a2000fa997000499be007f0a9700ec
:103380008f12970005f0a2000489be0001f0a20090
:103390000fa9970040019800510198009fa997003c
:1033a000678061004f0778004f06be004f05be00e2
:1033b0004f04be00af17b100000006000c00fa0079
:1033c000889fbe008a9fbe008c1f78000004be004c
:1033d0006000b8006011b800f0b79f0081bf9f0087
:1033e00092bf9f00a3bf9f00f8b79f0089bf9f00b7
:1033f0007fb297008fba97001fbb9700afbb9700b3
:10340000443ade00f07f20000006620020432000e6
:10341000800f560042003c006011b8000800be005a
:103420008e0007000000e0003d0032007fb09700f2
:103430008fb897001fb99700afb99700e00f500001
:10344000e08f5800e00f5900e08f590008003d0060
:103450000200200003b024000800be0011f50700a0
:103460000200200003b0240017f507000700370012
:103470000200200003b024000800be0012f507007f
:103480000200200003b0240006f507000801be007a
:1034900004f507000005be00e03f2000800f560045
:1034a0000f003c00dab79f00ebb79f006044b80004
:1034b0007fb097008fb897001fb99700afb99700fa
:1034c000e00f5000e08f5800e00f5900e08f5900e6
:1034d00013003d000800200009f82b001000370001
:1034e0006011b8000a00be005e0007000000e000a6
:1034f000070034000a01be000800be00f2f4070015
:103500000200200003f82300e6f407000300370060
:103510000a01be000800be00ebf407000004be0074
:103520000800be004f0678004f05be004f04be00e5
:103530000080fa0000000600889fbe008a9fbe003f
:1035400002047800f93f2000890f54000d00340078
:103550000200200003f827009ff60700f83fb100a3
:10356000890f5400150034000200200003f82700e2
:1035700099f60700f83fb100890f54000e003c0097
:103580000e00370029c02f00890f54000b003d00aa
:103590006011b80090f60700983cb000890f540005
:1035a00006003d006011b8008bf60700983cb000a3
:1035b000890f540001003d0009047800f83fb00075
:1035c000cfc4de00614db9006044b8000801be0000
:1035d00081f607004f05be004f04be000000060044
:1035e000810378009af407000001be006000b80073
:1035f0000478a30013003a006220e10015003e00a9
:103600000d0039008301d1000281d3008180d300f5
:103610008301d1000281d3008180d3008301d100d6
:103620000281d3008180d3000538b000c42add00b8
:10363000f300b2008381720007f0a70003f0a0003e
:103640000000060083ff2700020020006110b9007f
:10365000f9ff370003ff2700f7ff370014002000b1
:1036600073003700f4ff2f00710037001400fa00d8
:10367000889fbe008a9fbe008c9fbe000005be00d2
:103680000206be00680047000c90be000a90be0013
:10369000270007006400e1001a00320016003e0017
:1036a0006100e1001a0032006e049000fe049000f8
:1036b0000e0b90009e0b90006011b8009e059000cc
:1036c0000b38b100d50120008281710061016400d6
:1036d0008703d1000683d3008984d3000884d300f4
:1036e0008502e900f8ff3a0002f807000df0a70094
:1036f00001f0a0004900370001fc27000000200075
:10370000faff370001f8270000002000f7ff37001c
:103710006000b800f5ff3700020ab900001bb900cd
:103720000200b80081004200810043000000060052
:10373000800078005002be005003be004439de0015
:10374000f700b200f37f200003016100090032009e
:103750000218e10016003a0085017200830173002f
:10376000838173000008200015003a00400020000b
:103770001300370085017200830173008381730099
:1037800005003a0004a8be0006a8be0010002000f4
:103790000b0037000201e9000402420085824a0062
:1037a00006034b0087834b000748a300f9ff320054
:1037b0000740a00004a8be0006a8be00200020000c
:1037c00080009800920098000000060068044700fe
:1037d0000294be000094be00fc0447008694be0024
:1037e0008494be0009007800d1ff0700080078002b
:1037f000cfff070099007800814f70000b003b005d
:103800000800be002d0007004f00b1000300370084
:10381000f3ff2700f2ff2f006110b9004f06be0032
:103820004f05be004f04be000080fa0000000600f5
:10383000889fbe008a9fbe00841f78001700070083
:103840004f00780011003300f0ff2f00838f6c00d1
:1038500006003b00040565000a00a70008003700c9
:1038600009f0a6001000200008003700820f540065
:10387000838f5c00030039001000200001003e002f
:103880000000200009f0a7000000ea004f05be007c
:103890004f04be000000e000000006000004be006f
:1038a000ebf307000003be000405be000200be00eb
:1038b000e7f30700844f750000000600e482400033
:1038c0001078a30007003200640240001178a300c2
:1038d0003400be001401be00040032000330a70013
:1038e000000006003500be001501be000330a00038
:0438f00000000600ce
:020000040000fa
:1038f4000000fa009980a9009960a90080002000c6
:10390400c01c88009a23ef0070062000001d880068
:10391400a223ef00e09b2000a0418800e09b200050
:1039240090418800709c200080418800709c200099
:10393400704188003668ef0080cc21000700070042
:1039440060ce2100140007009960a80099e3a80044
:103954009b43a8000080fa00000006000200fa0061
:10396400000f78001e0078000000e00003003a0019
:1039740080cc2100c0418800020037009e007800fe
:10398400c14188000080fa00000006000000fa002f
:103994000080fa00000006000200fa00000f780020
:1039a4001e0078000000e00003003a0060ce210011
:1039b400d0418800020037009e007800d141880081
:1039c4000080fa00000006000000fa000080fa00ff
:1039d400000006000200fa000040eb00004f7800ef
:1039e400000000008141800070418000808f500001
:1039f400fcff320080418000104f7800804180003d
:103a04000000e8008041880081418000009d200082
:103a1400808f500002003a00709c20008041880092
:103a24001e4078000080fa00000006000200fa0040
:103a3400004f7800000000001c0007000004a200f2
:103a44000004e000fcff3a00904180001e4878002a
:103a5400904180000000e80090418800914180007e
:103a6400709c2000808f500002003a00e09b2000f0
:103a7400904188009980a8000080fa0000000600a8
:103a84000000fa00814180007041800000806800dd
:103a940000f0a7000000ea000000ea004f00de008a
:103aa400004078000080fa00000006000400fa00dc
:103ab4000e80e800a1418000010878009141800057
:103ac4000e80e80010007800808f5000070031005d
:103ad4000e80e80090007800904180000080500043
:103ae4000000e900000f7800060037000e80e800af
:103af40090007800904180000080500068004000f1
:103b0400000f78001e00780000f0a7000000ea0013
:103b14000000ea004f00de00004078000080fa0058
:103b2400000006000000fa0091418000a0418000de
:103b3400808f500009003a00d11c80000010200042
:103b44000080600000f0a7000000ea000000ea0026
:103b54004f00de0000407800010037000040eb0019
:103b64000080fa00000006000400fa000e80e8005d
:103b74007141800001087800814180000e80e800d6
:103b840010007800810f5000070031000e80e8001b
:103b9400900078008041800000805000690040005f
:103ba400000f7800040037000e80e80090007800d1
:103bb40080418000008f5000f00f20009e007800ac
:103bc400808f50000200360000c0eb000200370076
:103bd4001e007800004078000080fa000000060013
:103be4000400fa000e80e800a1418000010878007a
:103bf400914180000e80e80010007800808f500012
:103c0400070031000e80e8009000780090418000a9
:103c1400008050000000e900000f78000600370023
:103c24000e80e800900078009041800000805000f1
:103c340068004000000f7800f00f20009e0078001c
:103c4400808f50000200360000c0eb0002003700f5
:103c54001e007800004078000080fa000000060092
:103c64000800fa0064014700000978006600470074
:103c740001087800bcff07000080fb00000f7800fb
:103c840066004700100078009e0f500002003100cb
:103c940066004700100f78008000eb000e80e800fb
:103ca400010878000e0037004aff0700e4004700cf
:103cb4009100780080487800640047001000780084
:103cc4008000e80064004700010878000e80e800e6
:103cd400100078008000e8000e80e80001087800f9
:103ce4000e80e800100078009e0f5000eeff3900af
:103cf4001e0078000080fa00000006000800fa00a8
:103d04006401470000097800660047000108780054
:103d1400b3ff07000080fb00000f78006600470037
:103d2400100078009e0f500002003100660047002a
:103d3400100f78008000eb000e80e8000108780086
:103d44000e0037006400470010007800104078002f
:103d5400e4004700910078000101e800e400470016
:103d64008208780031ff07000e80e8001000780018
:103d74008000e8000e80e800010878000e80e8006a
:103d8400100078009e0f5000eeff39001e007800ee
:103d94000080fa00000006000400fa000000eb00b6
:103da400000f780070ff07008e80e80080487800dc
:103db4008bff0700e3004700804878000e80e8008e
:103dc400104078000080fb000000e0000300320097
:103dd400e90f500003003200040037001e20a00049
:103de400040037001e00a000020037001e10a000cf
:103df4000000000063004700104078000080fb00d2
:103e04000000e00003003200e90f5000030032001c
:103e1400040037001e30a000020037001e40a0003e
:103e2400000000001e0078000080fa000000060078
:103e34000400fa008e80e800800878008141800048
:103e44000e80e80010007800008f40000200370068
:103e54009e007800698f5000009d20009e0078002d
:103e6400808f5000faff3e001e007800104078005a
:103e74000080fa00000006000000fa003aff070084
:103e84000080fb000000e9004f00de0000407800e5
:103e94000080fa00000006000000fa0050ff07004e
:103ea4000080fb000000e9004f00de0000407800c5
:103eb4000080fa00000006000000fa00d01c800018
:103ec4000080fa00000006000000fa0044ff07002a
:103ed4000004e00010003200a14180009041800005
:103ee400808f500006003600a041800080007800da
:103ef40090418000008050000000e9000700370076
:103f0400a041800080007800904180000080500033
:103f140068004000010037000000eb000080fa0058
:103f2400000006000000fa000fff07000004e00094
:103f3400100032008141800070418000808f500069
:103f440006003600804180008000780070418000c7
:103f5400008050000000e900070037008041800025
:103f640080007800704180000080500068004000ac
:103f7400010037000000eb000080fa00000006009a
:103f84000000fa0099e3a8009b43a8000080fa000f
:103f9400000006000000fa0099e3a9009b43a90071
:103fa4000080fa00000006000400fa00000f780008
:103fb4000e80e80001087800d140800070002800dd
:103fc400008060000000e00004003d000000e90003
:103fd40081ff2f00008070000000e800d0408800be
:103fe400d04080008e80e80091007800008040007e
:103ff4009040780000c7b30000c070000080fb0050
:10400400d0338800007d200001002000c602070094
:10401400d04080008e80e80091007800008040004d
:10402400104078000080fb001e007000d033880030
:10403400007d200001002000bb02070000072000d3
:10404400d0338800d04080000000e800d0408800d1
:104054000080fa00000006000200fa00000f780059
:10406400819720001e007800cfff07000080fa002f
:10407400000006000200fa00000f780001972000fb
:104084001e007800c8ff07000080fa000000060048
:104094000a00fa000e82e800008abe0066004700ab
:1040a4000288be006600470082dd270073ac23004f
:1040b4001000be00c7f307000e82e8000001be0036
:1040c4001400be00e4f20700baf10700000f780004
:1040d4001e0078000080fa00000006001000fa00bc
:1040e400e600470080087800680047000288be00a8
:1040f4006c0047000488be006c0047001001be003d
:10410400680047001000be00e1ff0700800078004f
:1041140064004700010878000000eb00000f7800fd
:104124008000eb000e80e8000108780027003700cb
:104134009e00780070002800008060000000e0000d
:1041440004003d000000e90081ff2f0000807000a2
:104154000000e800000f7800809720001e00400057
:104164009040780000c7b30000c070000080fb00de
:10417400d0338800007d2000010020006a0207007f
:10418400809720001e004000104078000080fb0053
:10419400e60047009100780000807000d03388006a
:1041a400007d2000010020005f02070000072000be
:1041b400d03388001e0fe8000e80e800100078005d
:1041c4008000e8000e80e800010878000e80e80016
:1041d400900078006400470010007800808f500041
:1041e400d3ff35000080fa00000006000800fa0042
:1041f400889fbe00000f78000e80e8000288be0091
:104204006600470001087800660047001000780047
:104214001004be001e0078008000eb0089f1070046
:1042240082dd270073ac23006af307000e81e800e7
:104234001201be0067f307000001be000800be00c3
:10424400a0f1070066014700120178000089be0052
:104254004f04be000080fa00000006000000fa00cf
:10426400881f78004a020700a1002000009820005f
:10427400a2fe070000c8bf000080fb00a1062000ca
:10428400810f500032003200a1062000810f50003f
:1042940011003c0031062000810f50003e00320026
:1042a40031062000810f500004003c00110620005c
:1042b400810f500015003200eeff37004106200048
:1042c400810f50001900320061062000810f500058
:1042d40033003200e7ff3700c1062000810f500091
:1042e40023003200c1062000810f50002800350051
:1042f40001072000810f50003100320031072000f7
:10430400810f500011003200daff37000004200052
:1043140051ff0700a18020000200200003f82300c1
:1043240010002000b1ff07005400370000042000f3
:1043340050ff0700a18020000200200003f82300a2
:104344000080eb00a9ff07004c0037004b0037004a
:104354000005200040ff0700e1802000020020004b
:1043640003f8230010002000a0ff070043003700db
:10437400000520003fff0700e1802000020020002c
:1043840003f823000080eb0098ff07003b00370090
:104394000068ef00390037000068ef00370037008d
:1043a4000400200005f82300325c2f00830c240055
:1043b4000005200049ff07000068ef002f003700c8
:1043c4007640800087408000544080006540800033
:1043d400e881200020802000801f78006082200077
:1043e4005001be004000be00809fbe00829fbe0000
:1043f4003800be002801be0021000700ea875700ec
:10440400208020005001be004000be00bb00070019
:1044140090408800a140880090408000a140800026
:104424000400200005f823000001be000005200060
:104434002aff0700e0408000cf80de00fef0070086
:1044440022802000668120000002be003200be00ef
:104454001201be0084000700b0408000c14080000b
:104464000400200005f823000001be000005200020
:104474001aff07000068ef00000000007dff37000e
:104484001800fa00889fbe0068044700009cbe0024
:104494000294be00700047000488be007400470008
:1044a4000688be006c0047001002be006a00570078
:1044b4001000be000001be000400be00f8f00700ba
:1044c400008fbe00700047001000be0001f0a20083
:1044d4000ff707000002be00680047001000be008e
:1044e4000001be000400be00baf207000001be00d5
:1044f4001e00be00f3f00700008fbe0074004700ea
:104504001000be0002f707000002be006e00570054
:104514001000be000001be000400be00adf20700a2
:104524000001be001e00be00e6f00700008fbe00c2
:10453400740047001000be00f5f607000004be003a
:10454400700047001000be0001f0a200f0f6070062
:104554000001be000800be00daf007000001be0042
:104564001e00be00bcf10700008fbe0074004700af
:104574001000be00e6f607001e01be0095f207001b
:104584000002be006a0057001000be000001be0019
:104594000400be00cbf007000004be007400470016
:1045a4001000be00daf607000002be006e005700dd
:1045b4001000be000001be000400be0085f207002a
:1045c4000001be000800be00b5f00700640147000a
:1045d4000089be0070005700100078003e18780073
:1045e4002e1078007000570010007800640040001e
:1045f400e400470031187800211078004f04be0011
:104604000080fa00000006000800fa00889fbe003f
:10461400009fbe000297be001e02be001e00be0028
:104624000001be000400be006af207000004be00e0
:10463400640047001002be00640047001000be0082
:104644000001be000400be0062f207000001be00cb
:104654000800be009bf0070023f607004f04be00cd
:104664000080fa00000006001200fa00889fbe00d5
:10467400e4034700809bbe008293be006c004700a9
:104684000488be00700047000608780064004700f4
:104694005001be004000be00dbff0700008fbe00db
:1046a400325c2f00c31124001e00be0049f2070033
:1046b4000004be00ec0047006c0047001101be007e
:1046c4001000be0043f207000001be000800be0057
:1046d40061f107004cf407000200200003002400ed
:1046e4005df1070070014700120178000089be00e7
:1046f4004f04be000080fa00000006000800fa0023
:10470400009fbe000297be00640047001002be0076
:104714001e00be000001be000400be004ef10700f2
:084724000080fa00000006000d
:020000040000fa
:10472c009e09000020000000800000003c080000f2
:10473c000200000082000000ffff0000be09000024
:10474c0012000000800000002e0800000e00000087
:10475c0080000000700900002e00000082000000a4
:10476c000103020006040c0008090900080c0400ef
:10477c0006020300014461002d5669006e63690056
:10478c000a00000000000000000000000000000013
:10479c00000000000000000000000000000000000d
:1047ac001c08000012000000820000000300000042
:1047bc0000000000000000003f00000000000000ae
:1047cc000000bf00000800001c000000800000007a
:1047dc003e080000020000008000000040080000bd
:1047ec0030010000820000000300040000040000ff
:1047fc0006008300f9a20000444e6e0000fc290064
:10480c001500d10057270000dd34f5000062db00f5
:10481c00c0003c009995000041904300006351009a
:10482c00fe00bb00deab0000b761c500003a6e00b5
:10483c002400d2004d4200004906e0000009ea00c5
:10484c002e001c0092d10000eb1dfe000029b100cf
:10485c001c00e8003ea70000f53582000044bb00b8
:10486c002e009c00e9840000b426700000417e00fc
:10487c005f00d6009139000053833900009cf4008e
:10488c0039008b005f84000028f9bd0000f81f0080
:10489c003b00de00ff9700000f98050000112f0071
:1048ac00ef000a005a8b00006d1f6d0000cf7e00d8
:1048bc0036000900cb270000464fb700009e66006b
:1048cc003f002d00ea5f0000ba27750000e5eb0001
:1048dc00c7003d007bf10000f73907000092520041
:1048ec008a00fb006bea00001fb15f0000085d004e
:1048fc008d003000035600007bfc460000f0ab003e
:10490c006b002000bccf000036f49a0000e3a90035
:10491c001d005e0061910000081be60000859900f7
:10492c006500a000145f00008d4068000080d80076
:10493c00ff002700734d00000606310000ca560028
:10494c001500c900a87300007be26000006b8c00ae
:10495c00c000da000fc93f006821a20033c4340044
:10496c00c2278b0062c61b001cdc80000f022900d2
:10497c00d103140000000000000000000000000043
:10498c00d0090000020000008000000000000000c0
:020000040000fa
:10499c000000fa006626ef0000202000d0338800cb
:1049ac00400020001033880000102000b033880035
:1049bc007426ef008826ef007226ef008626ef00a3
:1049cc006826ef007c26ef006a26ef007e26ef00bb
:1049dc0001088000f00b20000081600060042000c2
:1049ec00710520000310200080497800814978006f
:1049fc0082497800e13e8000f00f28008080600042
:104a0c000030200001007000e03e8800a13d8000d5
:104a1c0000fc2f00008060000030a000a03d88004a
:104a2c0000088000000178000260a00060042000f3
:104a3c00710520000310200080497800814978001e
:104a4c00824978000080fa00000006000000fa009d
:104a5c0000202300100888000621ef006821ef00d9
:104a6c006a21ef000821ef00007020005008880038
:104a7c000c21ef000e21ef007821ef007a21ef00de
:104a8c007c21ef007e21ef008021ef008221ef00de
:104a9c008421ef008621ef002200200080072000f7
:104aac00a10920001310200080497800814978006a
:104abc00824978000001eb006004200071052000a1
:104acc0003102000804978008149780082497800e1
:104adc000080fa00000006000000fa004106800089
:104aec00f0f82f00008060000040a0004006880015
:104afc007105800080ff2f00008060000000a00086
:104b0c007005880061058000f0ff280000806000bf
:104b1c0000c0a000600588000080fa0000000600bc
:020000040000fa
:104b2c00f03fb1000180b10006003500ee03090032
:104b3c0000000000403fb1000180b100fbff3d00d0
:104b4c001000b000203fb0000200350000800900ca
:084b5c0000000000000006004b
:020000040000fa
:104b64000200fa00000f78009e007800e1418800fe
:104b7400ffff37000000fa00e0992000800778006a
:104b8400609b2000000188000080fa0000000600fd
:104b94000000fa0080ff0700d1ff0700adff070007
:0c4ba40053fb07000080fa000000060030
:020000040000fa
:020000040001f9
:045e0000ffffff00a1
:020000040000fa
:020000040001f9
:045e2000ffffff0081
:020000040000fa
:020000040001f9
:045e30007affff00f6
:020000040000fa
:020000040001f9
:045e3800b1ffff00b7
:020000040000fa
:020000040001f9
:045e40009fffff00c1
:020000040000fa
:020000040001f9
:045e4800ffffff0059
:020000040000fa
:020000040001f9
:045e5000dcffff0074
:020000040000fa
:020000040001f9
:045e5800ffffff0049
:00000001FF
