:020000040000fa
:080000000001040000000000f3
:020000040000fa
:040008000c020000e6
:020000040000fa
:04000c004e020000a0
:020000040000fa
:040010008e0200005c
:020000040000fa
:040014002c020000ba
:020000040000fa
:040018006e02000074
:020000040000fa
:04001c008603000057
:020000040000fa
:040020008603000053
:020000040000fa
:04002400860300004f
:020000040000fa
:04002800860300004b
:020000040000fa
:04002c008603000047
:020000040000fa
:040030008603000043
:020000040000fa
:04003400860300003f
:020000040000fa
:04003800860300003b
:020000040000fa
:04003c008603000037
:020000040000fa
:040040008603000033
:020000040000fa
:04004400860300002f
:020000040000fa
:04004800860300002b
:020000040000fa
:04004c008603000027
:020000040000fa
:040050008603000023
:020000040000fa
:040054000a0300009b
:020000040000fa
:04005800ae020000f4
:020000040000fa
:04005c008603000017
:020000040000fa
:040060008603000013
:020000040000fa
:04006400860300000f
:020000040000fa
:04006800860300000b
:020000040000fa
:04006c008603000007
:020000040000fa
:040070008603000003
:020000040000fa
:0400740086030000ff
:020000040000fa
:0400780086030000fb
:020000040000fa
:04007c0086030000f7
:020000040000fa
:0400800086030000f3
:020000040000fa
:0400840086030000ef
:020000040000fa
:0400880086030000eb
:020000040000fa
:04008c0086030000e7
:020000040000fa
:0400900086030000e3
:020000040000fa
:0400940086030000df
:020000040000fa
:0400980086030000db
:020000040000fa
:04009c0086030000d7
:020000040000fa
:0400a00086030000d3
:020000040000fa
:0400a40086030000cf
:020000040000fa
:0400a80086030000cb
:020000040000fa
:0400ac0086030000c7
:020000040000fa
:0400b00086030000c3
:020000040000fa
:0400b40086030000bf
:020000040000fa
:0400b80086030000bb
:020000040000fa
:0400bc0086030000b7
:020000040000fa
:0400c00086030000b3
:020000040000fa
:0400c40086030000af
:020000040000fa
:0400c80086030000ab
:020000040000fa
:0400cc0086030000a7
:020000040000fa
:0400d00086030000a3
:020000040000fa
:0400d400860300009f
:020000040000fa
:0400d800860300009b
:020000040000fa
:0400dc008603000097
:020000040000fa
:0400e0008603000093
:020000040000fa
:0400e400860300008f
:020000040000fa
:0400e800860300008b
:020000040000fa
:0400ec008603000087
:020000040000fa
:0400f0008603000083
:020000040000fa
:0400f400860300007f
:020000040000fa
:0400f800860300007b
:020000040000fa
:0400fc008603000077
:020000040000fa
:040100008603000072
:020000040000fa
:04010400860300006e
:020000040000fa
:04010800860300006a
:020000040000fa
:04010c008603000066
:020000040000fa
:040110008603000062
:020000040000fa
:04011400860300005e
:020000040000fa
:04011800860300005a
:020000040000fa
:04011c008603000056
:020000040000fa
:040120008603000052
:020000040000fa
:04012400860300004e
:020000040000fa
:04012800860300004a
:020000040000fa
:04012c00700300005c
:020000040000fa
:040130008603000042
:020000040000fa
:04013400860300003e
:020000040000fa
:04013800860300003a
:020000040000fa
:04013c008603000036
:020000040000fa
:040140008603000032
:020000040000fa
:04014400860300002e
:020000040000fa
:04014800860300002a
:020000040000fa
:04014c008603000026
:020000040000fa
:040150008603000022
:020000040000fa
:04015400860300001e
:020000040000fa
:04015800860300001a
:020000040000fa
:04015c008603000016
:020000040000fa
:040160008603000012
:020000040000fa
:04016400860300000e
:020000040000fa
:04016800860300000a
:020000040000fa
:04016c008603000006
:020000040000fa
:040170008603000002
:020000040000fa
:0401740086030000fe
:020000040000fa
:0401780086030000fa
:020000040000fa
:04017c0086030000f6
:020000040000fa
:0401800086030000f2
:020000040000fa
:0401840086030000ee
:020000040000fa
:0401880086030000ea
:020000040000fa
:04018c0086030000e6
:020000040000fa
:0401900086030000e2
:020000040000fa
:0401940086030000de
:020000040000fa
:0401980086030000da
:020000040000fa
:04019c0086030000d6
:020000040000fa
:0401a00086030000d2
:020000040000fa
:0401a40086030000ce
:020000040000fa
:0401a80086030000ca
:020000040000fa
:0401ac0086030000c6
:020000040000fa
:0401b00086030000c2
:020000040000fa
:0401b40086030000be
:020000040000fa
:0401b80086030000ba
:020000040000fa
:0401bc0086030000b6
:020000040000fa
:0401c00086030000b2
:020000040000fa
:0401c40086030000ae
:020000040000fa
:0401c80086030000aa
:020000040000fa
:0401cc0086030000a6
:020000040000fa
:0401d00086030000a2
:020000040000fa
:0401d400860300009e
:020000040000fa
:0401d800860300009a
:020000040000fa
:0401dc008603000096
:020000040000fa
:0401e0008603000092
:020000040000fa
:0401e400860300008e
:020000040000fa
:0401e800860300008a
:020000040000fa
:0401ec008603000086
:020000040000fa
:0401f0008603000082
:020000040000fa
:0401f400860300007e
:020000040000fa
:0401f800860300007a
:020000040000fa
:0401fc008603000076
:020000040000fa
:100200002f8720000e7f24000e01880000000000d0
:10021000000020000000e000020032000001200089
:1002200020028800140007005f0107000000e000c2
:1002300003003a0020872000010020000200370060
:100240000000200001002000810f7000010032003a
:1002500014000700000020000000e000020032004f
:100260000000020000000000320702000000000051
:100270000040da000000fe004440a90020002000f9
:100280000000e00003003200100020009001880010
:100290004440a800000006008a1f78008b1f7800e9
:1002a00000000600a1028800800478000000eb0036
:1002b0001f003700e284440054a0b4009905ba003e
:1002c000e284440054a0b4009906ba00e2844400d9
:1002d00054a0b4000006eb00476fde00fd07b2003b
:1002e000ae018800636ce10003003a00eaff0700fa
:1002f0000000eb000e003700606ce10008003a00df
:10030000004deb000a05e800020039003420ec0043
:100310000af0a0008b05e900f9ff3e000400370059
:100320006168e100010032000086eb000b0007006d
:1003300019c7ba001905ba000e04e00003003a001c
:100340000a00e000dbff3a0000000600fe07b200f2
:10035000ae0288008a047800f5ff37000cd0a300b5
:10036000e20f4d001c00390089027800354dba00bb
:100370000a05e800020039003420ec000af0a00071
:100380008b05e9000f003200254dba000a05e80090
:10039000020039003420ec000af0a0008b05e900cf
:1003a000080032000c00e0000600320015cdba0053
:1003b0000a05e800020039003420ec000af0a00031
:1003c0008b05e9008984e80054a0b4000b00e0002c
:1003d000e2ff3a00000006009902ba00055d7800cd
:1003e0008b05e900f7ff3200c82ade00055d7800c2
:1003f0008b05e900f3ff32000c00e000f1ff320052
:1004000019ddba00eeff3700000000000000000018
:1004100000000000000000003600f800809fbe00d1
:10042000829fbe00849fbe00869fbe000000fa002f
:100430008020a9000000eb00910307000080fa0073
:100440004f03be004f02be004f01be004f00be0072
:100450003600f900004006003600f800809fbe001c
:10046000829fbe00849fbe00869fbe000000fa00ef
:10047000880307008040a9001000200080030700c7
:100480000080fa004f03be004f02be004f01be00c5
:100490004f00be003600f900004006003600f800ac
:1004a000809fbe00829fbe00849fbe00869fbe00cc
:1004b0000000fa008060a9002000200070030700ff
:1004c0000080fa004f03be004f02be004f01be0085
:1004d0004f00be003600f900004006003600f8006c
:1004e000809fbe00829fbe00849fbe00869fbe008c
:1004f0000000fa008080a90030002000600307009f
:100500000080fa004f03be004f02be004f01be0044
:100510004f00be003600f900004006003600f8002b
:10052000809fbe00829fbe00849fbe00869fbe004b
:100530000000fa008600a9007000200050030700a8
:100540000080fa004f03be004f02be004f01be0004
:100550004f00be003600f900004006003600f800eb
:10056000809fbe00829fbe00849fbe00869fbe000b
:100570000000fa005040800000000100314080007f
:1005800020408000808f500002003a009980a9002e
:10059000190037008980a900100037003040800022
:1005a000904078008180fb00e11c88000000e8009a
:1005b000304088003140800070862000808f5000dd
:1005c00002003a00e0852000304088003140800081
:1005d00020408000808f500006003200d11c800037
:1005e00000202000008060000000e000ebff3200ef
:1005f00001003700000000000080fa004f03be0039
:100600004f02be004f01be004f00be003600f90091
:10061000004006003600f800809fbe00829fbe00aa
:10062000849fbe00869fbe000000fa0060408000ec
:10063000000001008960a9001e0037000140800011
:10064000f01c800000407800804878000140800065
:10065000f0862000808f50000900320000408000aa
:100660000000e80011408000810f500004003200bb
:10067000004080000000e800004088000d003700c6
:1006800001408000f0862000808f500007003a0073
:100690001140800070862000808f500003003200df
:1006a00070862000004088000200370010c0b300b0
:1006b00008e8b700d01c8000610060000000e00086
:1006c000deff3a000080fa004f03be004f02be007a
:1006d0004f01be004f00be003600f900004006008a
:1006e000801f78000000fa00d01c800062006000cb
:1006f0000000e000010032009a23a9009020a90028
:100700000080fa004f007800004006000040da0048
:100710000000fe000a00fa00e401470080097800aa
:10072000660047000108780068004700020878006a
:100730000e80e800e6004700110878000000eb009a
:10074000000f78000f00370000000000860007004f
:100750000004a2000004e000fcff3a000e80e80064
:1007600010007800104078008e80e800910078003a
:100770000101e8008e80e800820878005a00070036
:100780001e0fe80068004700100078009e00780007
:10079000808f5000ecff390068004700100078009f
:0c07a0000080fa000000060000000500c8
:020000040000fa
:1007ac000000fa009980a9009960a900800020003f
:1007bc00c01c88009a23ef0070062000001d8800e2
:1007cc00a223ef00e085200030408800e085200067
:1007dc002040880070862000104088007086200021
:1007ec00004088000868ef00404220000700070026
:1007fc0020442000140007009960a80099e3a80089
:10080c009b43a8000080fa00000006000200fa00da
:10081c00000f78001e0078000000e00003003a0092
:10082c004042200050408800020037009e007800b3
:10083c00514088000080fa00000006000000fa0019
:10084c000080fa00000006000200fa00000f780099
:10085c001e0078000000e00003003a002044200055
:10086c0060408800020037009e00780061408800dc
:10087c000080fa00000006000000fa000080fa0078
:10088c00000006000200fa000040eb00004f780068
:10089c00000000001140800000408000808f50005c
:1008ac00fcff320010408000104f78001040800098
:1008bc000000e800104088001140800000872000f4
:1008cc00808f500002003a00708620001040880093
:1008dc001e4078000080fa00000006000200fa00ba
:1008ec00004f7800000000001c0007000004a2006c
:1008fc000004e000fcff3a00204080001e48780015
:10090c00204080000000e80020408800214080004a
:10091c0070862000808f500002003a00e085200095
:10092c00204088009980a8000080fa000000060092
:10093c000000fa0011408000004080000080680038
:10094c0000f0a7000000ea000000ea004f00de0003
:10095c00004078000080fa00000006000400fa0055
:10096c000e80e800314080000108780021408000b2
:10097c000e80e80010007800808f500007003100d6
:10098c000e80e8009000780020408000008050002d
:10099c000000e900000f7800060037000e80e80028
:1009ac0090007800204080000080500068004000db
:1009bc00000f78001e00780000f0a7000000ea008d
:1009cc000000ea004f00de00004078000080fa00d2
:1009dc00000006000000fa0021408000304080003a
:1009ec00808f500009003a00d11c800000102000bc
:1009fc000080600000f0a7000000ea000000ea00a0
:100a0c004f00de0000407800010037000040eb0092
:100a1c000080fa00000006000400fa000e80e800d6
:100a2c000140800001087800114080000e80e80031
:100a3c0010007800810f5000070031000e80e80094
:100a4c009000780010408000008050006900400049
:100a5c00000f7800040037000e80e800900078004a
:100a6c0010408000008f5000f00f20009e00780096
:100a7c00808f50000200360000c0eb0002003700ef
:100a8c001e007800004078000080fa00000006008c
:100a9c000400fa000e80e800314080000108780064
:100aac00214080000e80e80010007800808f5000fc
:100abc00070031000e80e800900078002040800094
:100acc00008050000000e900000f7800060037009d
:100adc000e80e800900078002040800000805000dc
:100aec0068004000000f7800f00f20009e00780096
:100afc00808f50000200360000c0eb00020037006f
:100b0c001e007800004078000080fa00000006000b
:100b1c000800fa00640147000009780066004700ed
:100b2c0001087800bcff07000080fb00000f780074
:100b3c0066004700100078009e0f50000200310044
:100b4c0066004700100f78008000eb000e80e80074
:100b5c00010878000e0037004aff0700e400470048
:100b6c0091007800804878006400470010007800fd
:100b7c008000e80064004700010878000e80e8005f
:100b8c00100078008000e8000e80e8000108780072
:100b9c000e80e800100078009e0f5000eeff390028
:100bac001e0078000080fa00000006000800fa0021
:100bbc0064014700000978006600470001087800ce
:100bcc00b3ff07000080fb00000f780066004700b1
:100bdc00100078009e0f50000200310066004700a4
:100bec00100f78008000eb000e80e8000108780000
:100bfc000e003700640047001000780010407800a9
:100c0c00e4004700910078000101e800e40047008f
:100c1c008208780031ff07000e80e8001000780091
:100c2c008000e8000e80e800010878000e80e800e3
:100c3c00100078009e0f5000eeff39001e00780067
:100c4c000080fa00000006000400fa000000eb002f
:100c5c00000f780070ff07008e80e8008048780055
:100c6c008bff0700e3004700804878000e80e80007
:100c7c00104078000080fb000000e0000300320010
:100c8c00e90f500003003200040037001e20a000c2
:100c9c00040037001e00a000020037001e10a00048
:100cac000000000063004700104078000080fb004b
:100cbc000000e00003003200e90f50000300320096
:100ccc00040037001e30a000020037001e40a000b8
:100cdc00000000001e0078000080fa0000000600f2
:100cec000400fa008e80e800800878001140800033
:100cfc000e80e80010007800008f400002003700e2
:100d0c009e007800698f5000008720009e007800bc
:100d1c00808f5000faff3e001e00780010407800d3
:100d2c000080fa00000006000000fa003aff0700fd
:100d3c000080fb000000e9004f00de00004078005e
:100d4c000080fa00000006000000fa0050ff0700c7
:100d5c000080fb000000e9004f00de00004078003e
:100d6c000080fa00000006000000fa00d01c800091
:100d7c000080fa00000006000000fa0044ff0700a3
:100d8c000004e00010003200314080002040800060
:100d9c00808f5000060036003040800080007800c4
:100dac0020408000008050000000e9000700370060
:100dbc00304080008000780020408000008050008f
:100dcc0068004000010037000000eb000080fa00d2
:100ddc00000006000000fa000fff07000004e0000e
:100dec00100032001140800000408000808f5000c5
:100dfc000600360010408000800078000040800023
:100e0c00008050000000e90007003700104080000f
:100e1c008000780000408000008050006800400096
:100e2c00010037000000eb000080fa000000060013
:100e3c000000fa0099e3a8009b43a8000080fa0088
:100e4c00000006000000fa0099e3a9009b43a900ea
:100e5c000080fa00000006000000fa0011010700f3
:100e6c00a10020000082200050ff0700090037007d
:100e7c0000000000070037000000000005003700ec
:100e8c0000000000030037000000000001003700e4
:100e9c000000000021002000008720001cff07003c
:100eac0000872000104078000004e000f0ff3200c2
:100ebc000087200010407800e14f5000eeff320018
:100ecc000087200010407800e24f5000ecff320009
:100edc000087200010407800e34f5000eaff3200fa
:100eec000087200010407800e44f5000e8ff3200eb
:100efc00e8ff37000800fa00640147000009780099
:100f0c0066004700010878000000eb00000f780035
:100f1c00813821000e80e800010878002b00370092
:100f2c009e00780070002800008060000000e00047
:100f3c0004003d000000e90081ff2f0000807000dc
:100f4c000000e800000f78009e0078006600470063
:100f5c0010007800010040009040780000c7b300fa
:100f6c0000c070000000fb00d0338800007d200022
:100f7c0001002000b10007009e00780066004700c9
:100f8c001000780001004000104078000000fb00c9
:100f9c00e40047009100780000807000d033880096
:100fac00007d200001002000a400070000072000a5
:100fbc00d03388001e0fe8000e80e8001000780087
:100fcc008000e9000e80e800010878000e80e8003f
:100fdc00100078000000e000d1ff3c000080fa0017
:100fec00000006000200fa00000f7800818120004a
:100ffc001e007800bfff07000080fa00000006000a
:10100c000200fa00000f7800018120001e00780019
:10101c00b8ff07000080fa00000006000000fa008c
:10102c006626ef0000202000d0338800400020000e
:10103c001033880000102000b03388007426ef00b5
:10104c008826ef007226ef008626ef006826ef0058
:10105c007c26ef006a26ef007e26ef000108800058
:10106c00f00b20000081600060042000710520005e
:10107c00031020008049780081497800824978006b
:10108c00e13e8000f00f28008080600000302000de
:10109c0001007000e03e8800a13d800000fc2f00a4
:1010ac00008060000030a000a03d88000008800097
:1010bc00000178000260a00060042000710520008f
:1010cc00031020008049780081497800824978001b
:0810dc000080fa00000006008c
:020000040000fa
:1010e4003e08000020000000800000000e08000000
:1010f4000200000082000000ffff00005e08000004
:101104001200000080000000000800000e00000033
:1011140080000000100800002e0000008200000083
:101124000103020006040c0008090900080c04006d
:1011340006020300014461002d5669006e637900c4
:101144000a00000000000000000000000000000091
:10115400000000000000000000000000000000008b
:101164007008000002000000800000000000000081
:020000040000fa
:101174000000fa0000202300100888000621ef0078
:101184006821ef006a21ef000821ef0000702000c1
:10119400500888000c21ef000e21ef007821ef00a9
:1011a4007a21ef007c21ef007e21ef008021ef0007
:1011b4008221ef008421ef008621ef00220020002d
:1011c40080072000a1092000131020008049780026
:1011d40081497800824978000001eb006004200016
:1011e40071052000031020008049780081497800af
:1011f400824978000080fa00000006000000fa002e
:1012040041068000f0f82f00008060000040a0003c
:10121400400688007105800080ff2f000080600078
:101224000000a0007005880061058000f0ff280020
:101234000080600000c0a000600588000080fa0003
:0412440000000600a0
:020000040000fa
:10124800f03fb1000180b10006003500ee0309004f
:1012580000000000403fb1000180b100fbff3d00ed
:101268001000b000203fb0000200350000800900e7
:08127800000000000000060068
:020000040000fa
:101280000200fa00000f78009e007800714088008c
:10129000ffff37000000fa00e0832000800778009d
:1012a00060852000000188000080fa000000060030
:1012b0000000fa005cff0700d1ff0700adff070048
:0c12c0003afd07000080fa000000060064
:020000040000fa
:020000040001f9
:045e0000ffffff00a1
:020000040000fa
:020000040001f9
:045e2000ffffff0081
:020000040000fa
:020000040001f9
:045e30007affff00f6
:020000040000fa
:020000040001f9
:045e3800b1ffff00b7
:020000040000fa
:020000040001f9
:045e40009fffff00c1
:020000040000fa
:020000040001f9
:045e4800ffffff0059
:020000040000fa
:020000040001f9
:045e5000dcffff0074
:020000040000fa
:020000040001f9
:045e5800ffffff0049
:00000001FF
