:020000040000fa
:080000000001040000000000f3
:020000040000fa
:0400080018020000da
:020000040000fa
:04000c005a02000094
:020000040000fa
:040010009a02000050
:020000040000fa
:0400140038020000ae
:020000040000fa
:040018007a02000068
:020000040000fa
:04001c009803000045
:020000040000fa
:040020009803000041
:020000040000fa
:04002400980300003d
:020000040000fa
:040028009803000039
:020000040000fa
:04002c009803000035
:020000040000fa
:040030009803000031
:020000040000fa
:04003400980300002d
:020000040000fa
:040038009803000029
:020000040000fa
:04003c009803000025
:020000040000fa
:040040009803000021
:020000040000fa
:04004400980300001d
:020000040000fa
:040048009803000019
:020000040000fa
:04004c009803000015
:020000040000fa
:040050009803000011
:020000040000fa
:04005400160300008f
:020000040000fa
:04005800ba020000e8
:020000040000fa
:04005c009803000005
:020000040000fa
:040060009803000001
:020000040000fa
:0400640098030000fd
:020000040000fa
:0400680098030000f9
:020000040000fa
:04006c0098030000f5
:020000040000fa
:0400700098030000f1
:020000040000fa
:0400740098030000ed
:020000040000fa
:0400780098030000e9
:020000040000fa
:04007c0098030000e5
:020000040000fa
:0400800098030000e1
:020000040000fa
:0400840098030000dd
:020000040000fa
:0400880098030000d9
:020000040000fa
:04008c0098030000d5
:020000040000fa
:0400900098030000d1
:020000040000fa
:0400940098030000cd
:020000040000fa
:0400980098030000c9
:020000040000fa
:04009c0098030000c5
:020000040000fa
:0400a00098030000c1
:020000040000fa
:0400a40098030000bd
:020000040000fa
:0400a80098030000b9
:020000040000fa
:0400ac0098030000b5
:020000040000fa
:0400b00098030000b1
:020000040000fa
:0400b40098030000ad
:020000040000fa
:0400b80098030000a9
:020000040000fa
:0400bc0098030000a5
:020000040000fa
:0400c00098030000a1
:020000040000fa
:0400c400980300009d
:020000040000fa
:0400c8009803000099
:020000040000fa
:0400cc009803000095
:020000040000fa
:0400d0009803000091
:020000040000fa
:0400d400980300008d
:020000040000fa
:0400d8009803000089
:020000040000fa
:0400dc009803000085
:020000040000fa
:0400e0009803000081
:020000040000fa
:0400e400980300007d
:020000040000fa
:0400e8009803000079
:020000040000fa
:0400ec009803000075
:020000040000fa
:0400f0009803000071
:020000040000fa
:0400f400980300006d
:020000040000fa
:0400f8009803000069
:020000040000fa
:0400fc009803000065
:020000040000fa
:040100009803000060
:020000040000fa
:04010400980300005c
:020000040000fa
:040108009803000058
:020000040000fa
:04010c009803000054
:020000040000fa
:040110009803000050
:020000040000fa
:04011400980300004c
:020000040000fa
:040118009803000048
:020000040000fa
:04011c009803000044
:020000040000fa
:040120009803000040
:020000040000fa
:04012400980300003c
:020000040000fa
:040128009803000038
:020000040000fa
:04012c00820300004a
:020000040000fa
:040130009803000030
:020000040000fa
:04013400980300002c
:020000040000fa
:040138009803000028
:020000040000fa
:04013c009803000024
:020000040000fa
:040140009803000020
:020000040000fa
:04014400980300001c
:020000040000fa
:040148009803000018
:020000040000fa
:04014c009803000014
:020000040000fa
:040150009803000010
:020000040000fa
:04015400980300000c
:020000040000fa
:040158009803000008
:020000040000fa
:04015c009803000004
:020000040000fa
:040160009803000000
:020000040000fa
:0401640098030000fc
:020000040000fa
:0401680098030000f8
:020000040000fa
:04016c0098030000f4
:020000040000fa
:0401700098030000f0
:020000040000fa
:0401740098030000ec
:020000040000fa
:0401780098030000e8
:020000040000fa
:04017c0098030000e4
:020000040000fa
:0401800098030000e0
:020000040000fa
:0401840098030000dc
:020000040000fa
:0401880098030000d8
:020000040000fa
:04018c0098030000d4
:020000040000fa
:0401900098030000d0
:020000040000fa
:0401940098030000cc
:020000040000fa
:0401980098030000c8
:020000040000fa
:04019c0098030000c4
:020000040000fa
:0401a00098030000c0
:020000040000fa
:0401a40098030000bc
:020000040000fa
:0401a80098030000b8
:020000040000fa
:0401ac0098030000b4
:020000040000fa
:0401b00098030000b0
:020000040000fa
:0401b40098030000ac
:020000040000fa
:0401b80098030000a8
:020000040000fa
:0401bc0098030000a4
:020000040000fa
:0401c00098030000a0
:020000040000fa
:0401c400980300009c
:020000040000fa
:0401c8009803000098
:020000040000fa
:0401cc009803000094
:020000040000fa
:0401d0009803000090
:020000040000fa
:0401d400980300008c
:020000040000fa
:0401d8009803000088
:020000040000fa
:0401dc009803000084
:020000040000fa
:0401e0009803000080
:020000040000fa
:0401e400980300007c
:020000040000fa
:0401e8009803000078
:020000040000fa
:0401ec009803000074
:020000040000fa
:0401f0009803000070
:020000040000fa
:0401f400980300006c
:020000040000fa
:0401f8009803000068
:020000040000fa
:0401fc009803000064
:020000040000fa
:100200000fa620000e7f24000e01880000000000d1
:10021000000020000000e000020032000001200089
:100220002002880014000700830107000000e0009e
:1002300003003a00e09b2300010020000200370089
:100240000000200001002000810f7000010032003a
:1002500014000700000020000000e000020032004f
:100260000000020000000000523402000000000004
:100270000040da000000fe004440a9008000200099
:100280000000e00003003200002020009001880000
:100290004440a800000006008a1f78008b1f7800e9
:1002a00000000600a1028800800478000000eb0036
:1002b0001f003700e284440054a0b4009905ba003e
:1002c000e284440054a0b4009906ba00e2844400d9
:1002d00054a0b4000006eb00476fde00fd07b2003b
:1002e000ae018800636ce10003003a00eaff0700fa
:1002f0000000eb000e003700606ce10008003a00df
:10030000004deb000a05e800020039003420ec0043
:100310000af0a0008b05e900f9ff3e000400370059
:100320006168e100010032000086eb000b0007006d
:1003300019c7ba001905ba000e04e00003003a001c
:100340000a00e000dbff3a0000000600fe07b200f2
:10035000ae0288008a047800f5ff37000cd0a300b5
:10036000e20f4d001c00390089027800354dba00bb
:100370000a05e800020039003420ec000af0a00071
:100380008b05e9000f003200254dba000a05e80090
:10039000020039003420ec000af0a0008b05e900cf
:1003a000080032000c00e0000600320015cdba0053
:1003b0000a05e800020039003420ec000af0a00031
:1003c0008b05e9008984e80054a0b4000b00e0002c
:1003d000e2ff3a00000006009902ba00055d7800cd
:1003e0008b05e900f7ff3200c82ade00055d7800c2
:1003f0008b05e900f3ff32000c00e000f1ff320052
:1004000019ddba00eeff3700000000000000000018
:1004100000000000000000000000000000000000dc
:1004200000000000000000000000000000000000cc
:100430003600f800809fbe00829fbe00849fbe00f1
:10044000869fbe000000fa008020a9000000eb009b
:10045000d51d07000080fa004f03be004f02be000a
:100460004f01be004f00be003600f90000400600fc
:100470003600f800809fbe00829fbe00849fbe00b1
:10048000869fbe000000fa00cc1d07008040a90036
:1004900010002000c41d07000080fa004f03be00ba
:1004a0004f02be004f01be004f00be003600f900f3
:1004b000004006003600f800809fbe00829fbe000c
:1004c000849fbe00869fbe000000fa008060a900e5
:1004d00020002000b41d07000080fa004f03be007a
:1004e0004f02be004f01be004f00be003600f900b3
:1004f000004006003600f800809fbe00829fbe00cc
:10050000849fbe00869fbe000000fa008080a90084
:1005100030002000a41d07000080fa004f03be0039
:100520004f02be004f01be004f00be003600f90072
:10053000004006003600f800809fbe00829fbe008b
:10054000849fbe00869fbe000000fa008600a900be
:1005500070002000941d07000080fa004f03be00c9
:100560004f02be004f01be004f00be003600f90032
:10057000004006003600f800809fbe00829fbe004b
:10058000849fbe00869fbe000000fa00c04180002c
:1005900000000100a141800090418000808f500048
:1005a00002003a009980a900190037008980a9004b
:1005b00010003700a0418000904078008180fb004f
:1005c000e11c88000000e800a0418800a1418000f3
:1005d00050a42000808f500002003a00c0a32000e9
:1005e000a0418800a141800090418000808f500090
:1005f00006003200d11c8000002020000080600036
:100600000000e000ebff32000100370000000000b6
:100610000080fa004f03be004f02be004f01be0033
:100620004f00be003600f900004006003600f8001a
:10063000809fbe00829fbe00849fbe00869fbe003a
:100640000000fa00d0418000000001008960a9008c
:100650002100370071418000f01c800000407800cc
:1006600080487800704180001040780000e8b700b2
:1006700071418000d0a42000808f5000090032001a
:10068000704180000000e80081418000810f50002f
:1006900004003200704180000000e80070418800d2
:1006a0000d00370071418000d0a42000808f5000e1
:1006b00007003a008141800050a42000808f500044
:1006c0000300320050a4200070418800020037006f
:1006d00010c0b30036e8b700d01c80006100600095
:1006e0000000e000dbff3a000080fa004f03be008c
:1006f0004f02be004f01be004f00be003600f900a1
:1007000000400600801f78000000fa00d01c800026
:10071000620060000000e000010032009a23a9009e
:100720009020a9000080fa004f00780000400600e9
:100730000040da000000fe00ec8747008e1f7800c2
:100740006c87570044002000041f7800000f7800d9
:100750006c87570002afbe00e1bf9f006c8057005e
:10076000991607001e00be004f077800cf00b100a9
:1007700000000600ec8747008e1f78001100200063
:10078000a1bf9f006c875700002f78006c80570036
:100790008f1607001e0078004f077800cf00b100c9
:1007a000000006000a00fa00e40147008009780012
:1007b00066004700010878006800470002087800da
:1007c0000e80e800e6004700110878000000eb000a
:1007d000000f78000f00370000000000a819070084
:1007e0000004a2000004e000fcff3a000e80e800d4
:1007f00010007800104078008e80e80091007800aa
:100800000101e8008e80e800820878007c1907006a
:100810001e0fe80068004700100078009e00780076
:10082000808f5000ecff390068004700100078000e
:100830000080fa00000006000000050014002000ff
:100840008e0337000001be00220007000470a700dd
:1008500003f0a1006509b100160032000d0035005b
:100860006828e10006003500f0ff2f00f1ff2700a7
:100870000300e00013003b00010028000000050019
:1008800000004000818048008502e900fcff3a003a
:1008900008003700f88f420002003c008000eb00a7
:1008a000000005008100d1000080d3008502e8002f
:1008b000fcff3a000300e00002003b006000100073
:1008c000e0801800000006004f89de0082017800f9
:1008d00085033700c70ade00f107b200f50fb2004a
:1008e00008003200e1cf4200020032000170a00097
:1008f00024000500810f700001003200040805008b
:1009000044000500810f700002003a001400050049
:100910008502e9000000400081c04800fcff3b0068
:100920000170a0002400050007f82700078361007c
:100930000638e10004003a00f707200087836100d1
:100940008703710001003a0003f0a200889fbe00f7
:100950008a9fbe008c9fbe00470ade000480a10073
:10096000c71ade000580a100070028000785600087
:1009700087856100f70f20000720e1009e0032000c
:100980000728e1009c003200010678000400e00026
:10099000b4003200f7072000878060000170a000db
:1009a0000500e000c0003200f707200087816100e9
:1009b0000370a000050652000f003a000b50e10042
:1009c0000b0032000308e10002003a000200e100df
:1009d0007e0032000204500083845800040031007d
:1009e0000001fd008101fd008402fd008a05fd007b
:1009f0006044b800210037000520e10005003d00fb
:100a00000001fd008101fd008402fd008a05fd005a
:100a1000050652007a60e100050035000170a10072
:100a20004722dd00848070008a80700063003700f8
:100a30006044b800ef02660007ff2f00070666005b
:100a40000500e00006003400f08312008714dd008a
:100a50000511de00071bdd00060171008519de00af
:100a60007060e10005003500090478008204780018
:100a7000030178008001eb00700656000b50e10086
:100a800003003a0002004000838048000400370061
:100a900060041400e0841c000200580083805800a9
:100aa0000188a300060032008100d1000080d3003d
:100ab0008984d3000884d3000402e80027003700ab
:100ac0000178a30025003a000100e0000300320095
:100ad0008186cf00698656000a0037008c0020000e
:100ae0000000e00004003a00090078008804780063
:100af0000004eb00700252008086cf000d06460015
:100b00000c06e9007060e100060035008000780006
:100b100009007800880478000004eb007006560095
:100b2000700252000c00e0000c0034008c08dd0064
:100b3000f00316000703de00868070000c00dd0065
:100b4000074bde00060070008c4cdd000743de0022
:100b5000868474000c44dd000c0252006120e10028
:100b600020003500610160000700280087816400d3
:100b7000f7ff270087836400070374000300e00089
:100b80000600320082037300040032000000e80017
:100b9000e08048000188a3000e003a00f70f200013
:100ba0000720e1004a003d000170a1004722dd005e
:100bb000810072008a8070000000be004f06be00f7
:100bc0004f05be004f04be00000006006000b800e4
:100bd000faff37008100d1000080d3000402e80052
:100be000eeff37000401780089017400a1010700bd
:100bf0008a807000f1ff3700f701070007027800d4
:100c00000001fd008101fd00f3010700870278006b
:100c1000850372000778a300040032000001fd0084
:100c20008101fd0006020700e4ff37008503620032
:100c30000768a300080032000b50e10003003200f7
:100c4000f0ff2f00f1ff2700dcff37000001fd005f
:100c50008101fd00d9ff37000468a300d7ff3200ef
:100c6000faff3700f8ff2700888360000b003a0086
:100c70000000e00009003a008303640082837300ef
:100c8000020032000200be00ccff37000b50e10032
:100c9000ceff3a000200be00c8ff3700140020005b
:100ca000810064003eff3700f8ff27008883610061
:100cb00004003a000200e00002003a008c007800d4
:100cc000beff3700150020008301640039ff3700a4
:100cd00001f827000000200081007500b7ff3700f1
:100ce000889fbe008a9fbe008c9fbe001b00200014
:100cf0000202be000586680006002800060666009f
:100d00004709de00f20fb200820032000243e80021
:100d100080003200c729de00f30fb2007d003200f0
:100d20000343e8007b003200f107b2000170a0002d
:100d3000f507b2000570a000c708dd004903de001a
:100d4000868070004700dd00c72add004923de00f1
:100d5000868272004722dd00030551000403500023
:100d60008583580003003100000040008180480066
:100d70000a05e9008c1f78008a9fbe00040050001d
:100d8000858058000402420085824a00000040002d
:100d9000818048000005eb000004be006033b8000d
:100da0000406be000d48e1005600310011000900a4
:100db0004dccd8000c01b8000d02b8008481410070
:100dc00060824a008283530003045c0084845c00d8
:100dd00060055d000a00e00025003a00800578000b
:100de0000d40e100490031008800780007007800dc
:100df000110009004d88d8000c01b8000d02b800a0
:100e00008481410060824a006003110083835b009b
:100e100004045c00e0845c000900e00021003a006a
:100e20004f01be000300e0002b003200e301600030
:100e3000070673008c8171000100320064007000ad
:100e40004200de004e5edd000c007000c258de0085
:100e500001e0a00083010700cf01780081807100cc
:100e60004f06be004f05be004f04be000000060046
:100e70008c8343000d044c00e0844c0060054d0061
:100e80000000e9000a00e000d4ff32008c83430038
:100e90000d044c00e0844c0060054d000000e900aa
:100ea000ceff37000c0343008d834b0060044c00e1
:100eb000e0844c000000e9000900e000d8ff3200a7
:100ec0000c0343008d834b0060044c00e0844c0015
:100ed0000000e900d2ff37004200de004e5edd0078
:100ee0000c007000c258de0001e0a000cf017800c5
:100ef0000300e000daff320060001000e08018001c
:100f0000d7ff3700f0ff2f00aaff3700f0ff2f00b8
:100f1000b9ff37000404be002f01070087067800e0
:100f20000004fd008104fd002b010700078366001b
:100f30000678a300030032000960a7000800be0085
:100f40002c0037000d78a300020032000800be001c
:100f5000280037000778a30026003a0001f0a1001e
:100f600009f0a1000668a30003003200f1ff27008a
:100f7000f0ff2f00baff37000d68a3000300320016
:100f80000800be008c807000b5ff37000768a30022
:100f900007003a000648a30003003200f1ff2700d3
:100fa000f0ff2f00aeff37000d48a3000300320012
:100fb0006000b8008c807000a9ff37000748a300cc
:100fc0000400320001f82700000020008c8070002f
:100fd000a3ff3700760107000004fd008104fd0037
:100fe00002057800720107000802be008a0178003d
:100ff00059ff37000160a00012022000f241880072
:1010000097ff37000100e000120032000500e00009
:1010100010003200889fbe008a9fbe008c9fbe00d9
:101020000006eb0001f8a30003003200600010008e
:10103000e08018000cf0a00005f8a30003003200c7
:1010400060021200e0821a000cf0a2008005eb00a2
:1010500041ff37006000b80002000500038368000c
:101060000700280007036300470ade000480a10090
:10107000c71ade000580a100f70f20000720e1005d
:10108000420032000728e10040003200889fbe0085
:101090008a9fbe008c1f7800f107b200f307b200f0
:1010a0000400e000640032000170a0000500e000d0
:1010b000680032000370a00085054200eb07b10014
:1010c0000204b8000302b8008484440060854a002a
:1010d000020ab800848444000a854a00030ab80062
:1010e00004054500040033000804d0008984d200c0
:1010f0000a85d2008b05e9006158e1003d0035000a
:1011000002102000090161000308200089816100ac
:10111000f70720008783640008867300c84cde0050
:10112000c853dd00878474004855de000300e000ea
:101130000600320082037600040032008904e800d1
:1011400060054d000a88a3000c003a00f70f20004c
:101150000758e10044003d000a70a100c75ddd00b2
:101160000a8575008a007300090078004f06780030
:101170004f05be004f04be00000006000a05d10066
:101180008984d3008b05e800f0ff3700881f7800c2
:101190000604780090000700070278000001fd00b7
:1011a0008101fd008c000700870278008503720032
:1011b0000778a300050032000001fd008101fd0059
:1011c0009f0007004f0478000000060085037200ae
:1011d0000748a30003003200f0ff2f00f1ff2700b3
:1011e000f8ff37000000200001f827008880700019
:1011f000f4ff3700880178004848dd0080817100e5
:101200004848de00c850dd0001007000c850de0014
:10121000060478000b017800160007008880700033
:10122000d2ff37000500e000050032001700200063
:101230003a0007009dff370081037000f9ff3a0074
:10124000860078004f0678004f05be004f04be00b0
:101250000000050083037100f9ff32002700200021
:101260002e00070094ff370001f8270086807000e9
:10127000f4ff37000100e000260032006101110098
:101280007810e10023003c006022b8007010e100fb
:101290000400350080027800010078008000eb0037
:1012a000700151000200e0000900340070031100d9
:1012b000062add00822ade008603dd0087827200b6
:1012c0000200de00860bdd00070070008208de00f1
:1012d00084817100f4ff2700048262008481710020
:1012e00004002800848262006102600005f0a6000c
:1012f0000000060004827100070032000000e800d0
:10130000e0804800000006000002be006000b80057
:10131000efff37006000b80000000600889fbe00a5
:101320000004eb006138e10016003a000100e00023
:1013300008003a00c800de004800dd0088002000f8
:101340000100e00003003a00c800de004800dd00b4
:10135000680444008184cf00e9845400060034000e
:101360008908dd00f08314008703de0087807000a9
:101370000900dd0009044400610214004f04be00ae
:10138000000006000300e00008003a00c811de007b
:101390004811dd00880020000300e00003003a004f
:1013a000c811de004811dd00680444008384cf00ca
:1013b000e9845400060034008919dd00f08314002c
:1013c0008713de00878171000911dd0009044400e4
:1013d000e1021400e9ff37002700200001f0a70018
:1013e00017002000470bde00f60fb20004003200a9
:1013f0000643e8000a0032004702b300000006007e
:1014000001037800f607b2000603700002003a00fc
:101410000703b300000006008702b30000000600c7
:1014200001037800f607b2000603700002003200e4
:101430000770a000000006000760a0000000060082
:101440000478a300040032000578a30003003200f2
:101450000168a30001003a000200be000160a00084
:101460000000060081017000270032008002eb00be
:1014700001f8a3000300320060001000e0801800b3
:1014800015002000f4072000020242002000340072
:10149000f7032000870360000604200000036300b8
:1014a00002082000000161004700de00c909dd00dc
:1014b00000807100c708de000600e000080032006e
:1014c00087037100060032001000b0000180b000f8
:1014d0000188a30002003200c108de000402e80017
:1014e000f107b200f30f20000320e10003003d00ec
:1014f0004722dd00810072002900370001f8270033
:101500000000eb00260037006000b8000000060075
:10151000680212007f20e100020034006000b80081
:101520001f0037006011b8007020e1000400350092
:1015300080017800010078008000eb00700252000a
:101540000400e00009003400f00312000719dd0078
:101550008419de000703dd00868171000400de00cf
:10156000070bdd00060070008408de00f7ff27008f
:101570008383630087037100060028000303630070
:10158000070032000700e00003003a00610160003c
:1015900002817300020032001000b0000180b00030
:1015a0000500a6000000060001f0a00000000600f3
:1015b0004f0ade004709de00f107b200f20fb20069
:1015c0000b003200f207b1000170a000c708dd0077
:1015d000c901de00838070004700dd000400a60022
:1015e0000000060060001000e08018000000060007
:1015f000810f700001003a00000006008182cf00d8
:101600000500e00010003e008082cf00ee82420024
:101610007028e1000400390007003e0080007800d7
:101620000000eb000e003700708312008600de0021
:101630000500dd000a003700708352008600dd00df
:101640000000eb0006003700e28252008508dd0052
:10165000708312000603de00868070000500dd0046
:101660007507b0000501ea000400a60000000600ae
:1016700060001000e080180000000600889fbe0097
:101680008a9fbe00841f78007c0007004f0078000e
:1016900011003300f0ff2f00838f6c0006003b0029
:1016a000040565000a00a7000800370009f0a6003d
:1016b0001000200008003700820f5400838f5c0068
:1016c000030039001000200001003e00000020004f
:1016d00009f0a7000000ea004f05be004f04be005d
:1016e0000000e00000000600881f78000304780076
:1016f0000300e00007003d0060001000e0801800db
:1017000060011900e081190002003b0001f02d008a
:10171000030037000400070008f0a70001f0a00054
:101720004f04780000000600889fbe008a9fbe001c
:1017300000827000040271000482710026003200f1
:101740000004be000200be006011b8006b0920005a
:10175000950220000182cf000a0039000541b10046
:101760000082cf00070039000541b1000982cf0097
:10177000040039000541b1000882cf0001003900a2
:101780000541b10005425200120032000a003b0040
:1017900082817100610164008100d1000080d3006a
:1017a0008984d3000884d3008b05e8000442e80054
:1017b000f7ff3a00070037000804440089844c0012
:1017c00000004800818048008b05e9000442e900e0
:1017d000f9ff3a00030007004f05be004f04be00aa
:1017e0000000060081002000618055000b003d00d4
:1017f0000b00200061fe2f000100e1001d003400fd
:1018000082817100610164008904d1000884d300e1
:101810000000e800faff3a00710020006100640057
:1018200003007000020060000900320061044400ff
:10183000e0844c000988a500050032008b05e80013
:101840006808e10002003a008904d1000884d3004e
:10185000f20f20000258e10005003d00c75ddd00e9
:10186000f907b200898075000800780000000600c2
:101870000bf827008b007800000005000004be0074
:1018800014fc07000003be000405be000200be00f9
:1018900010fc0700844f750000000600889fbe0002
:1018a0008a9fbe000004be00b2362d00d3c02b00bc
:1018b000eafd0700a23b2100f3d223001afc070037
:1018c0000001be000800be00e4fd070052a72a0088
:1018d000a3e223001dfc07000001be000800be00bb
:1018e000defd07000005be00e25a2e0043f32b0088
:1018f0000800be00d9fd07000200200003f8230005
:1019000012fc07000001be000a00be00f4fc070044
:101910004f05be004f04be0000000600889fbe00b9
:101920008a9fbe008c9fbe000004be000005be0062
:101930008b00780001f0a10008007800f2ff2f0072
:10194000f3f72300820f5000838f580016003600f3
:101950000200200003f82300820f5000838f5800fc
:1019600007003a00b2fd200093fc23000800be00ef
:10197000bafd0700020020000338200021003700d4
:1019800010022000f05288000801be000800be00ce
:10199000e5fb07000001be006000b800d0fc0700b6
:1019a0000004be0038003700f2ff2f00f3ef2300e1
:1019b000820f5000838f580014003e000200200068
:1019c00003f82f000000410081804900f2ff2f0042
:1019d000f38f2300820f5000838f58002a003600b7
:1019e0000801be000800be009cfd0700abff070019
:1019f0000001be000800be0098fd07000001be0007
:101a00000800be00d1fb0700e5ff37000800be005c
:101a1000f90007000001be000000200001f82300cb
:101a2000c1fb07000200200003f023008bfd07002c
:101a30000006be00f50007000004be000c00be005a
:101a400096ff07000001be000800be0083fd0700ee
:101a50000001be000800be00bcfb07000001be0084
:101a6000bafb07000001be00b0fd200091fc23007e
:101a7000adfb07000004be00e00f5500e08f5d00e5
:101a800001003d0009f0a2000800be004f06be00a4
:101a90004f05be004f04be00000006000000060017
:101aa0000c00fa00889fbe008a9fbe008c9fbe007b
:101ab0000004be004f09de0003002000e2b79f00d3
:101ac000f3b79f00810678000df0a10000067800b2
:101ad000f0ff2f00f1c72400800f5600818f5e00b9
:101ae000100036000800be00ecff070081017800fe
:101af00003f0a100000178000000200001f8270099
:101b0000800f5100818f5900b5003e000200200077
:101b100003382000a0fd200091fc23008bfb070070
:101b2000a6003700f0ff2f00f1ed2300800f5600d4
:101b3000818f5e0011003e000085eb00f0ff2f005a
:101b4000f1972300800f5600818f5e0055003e0004
:101b5000f0ff2f00f1072000800f5600818f5e00fc
:101b60009f003e000801be000800be003bfd0700cc
:101b7000c0b79f00d1b79f00990037000800be0092
:101b80009d0007000004be00f0ff2f0071f9230044
:101b9000800f5600818f5e0025003e00f0ff2f0071
:101ba000f1f22300800f5600818f5e0011003e008d
:101bb0000801be000800be0064fb07000200200010
:101bc00003f8230058fb07000005be0002002000b8
:101bd000030024000800be005cfb07000001be00fb
:101be0000a00be003efc07000004be000005eb003a
:101bf0002c0037000200200003f823000800be007c
:101c000049fb07000005be000200200003f8230086
:101c10000800be004dfb07000001be000a00be0028
:101c20002ffc07000004be001a0020001d00370032
:101c3000f0ff2f00b1012400800f5600818f5e005d
:101c400012003e000200200003fc23000800be003a
:101c500035fb07000005be000200200003fc230046
:101c60000800be00fdfc07000200200003f823006e
:101c700036fb07000001be000a00be0018fc07008a
:101c80000004be002a002000060037000801be0044
:101c90000000200001f82b0011fc07000004be002a
:101ca0003a0020000801be000800be00ebfc07005f
:101cb0000002be000001be0084bf9f0095bf9f00d0
:101cc000e6fc07000006be0052c22a00c3d723006c
:101cd000e2fc0700d2502f0013e123001bfb07009a
:101ce0000001be000c00be00dcfc070092aa2a0026
:101cf000a3ea230015fb07000001be000fba9700fe
:101d00009fba97000400be00d4fc07000002be008a
:101d100072242100a3dd2b000c00be0084bf9f00b5
:101d200095bf9f00cdfc070082a92c00c3e42300cf
:101d3000fdfa07000001be000c00be00c7fc070052
:101d40000001be000fba97009fba9700e10f45004f
:101d500009003a000400be00fcfa07000001be00c2
:101d60000800be00bdfc07000001be000800be0068
:101d7000edfa0700190037004255dd000ca02000e5
:101d80000a0646000400be00f0fa07000001be008b
:101d90000800be00b1fc070002a120000a054100b6
:101da0001a01be00e0fa07000801be00defa0700d3
:101db0000001be001c00be00dbfa07006fb19700f7
:101dc000ffb19700e00f5100e08f5900030032008f
:101dd0000004be0009f0a200010037000004be00ac
:101de0000800be004f06be004f05be004f04be00f7
:101df0000080fa00000006000001be0083007800a9
:101e000001f0a10002007800000006002800fa009e
:101e1000889fbe008a9fbe008c9fbe000004be004b
:101e2000c10d07000203be000002be00c0b79f0044
:101e3000d1b79f00e2b79f00f3b79f000602be0034
:101e40000600200007ff270087866200060678004c
:101e5000860f5600878f5e0007003a000801be001b
:101e60000800be007dfc07000001be000800be00a7
:101e7000b6fa0700310137004fb39700dfb3970080
:101e8000e00f5200e08f5a0013003c0085017800fb
:101e900003f0a10004017800060171008781710040
:101ea000e00f5100e08f590025013200e00f520091
:101eb000e08f5a000800320010022000f052880023
:101ec0000801be000800be0097fa07000001be002e
:101ed00083fb07001901370044a8de00cfa8de000d
:101ee000e00f5000e08f58002e003a000800370045
:101ef00075005000e0805800453cdd004b32de00ac
:101f000004027400cb3ade00c533dd000600200079
:101f1000e00f5200e08f5a00f5ff32006011b80068
:101f2000040037000402420085824a00610141003a
:101f3000e081490008002000090120008585640037
:101f400008057800e00f5500e08f5d00f5ff3200d6
:101f500061004000e080480002005000838058008b
:101f600008022000020454000605be00080678009e
:101f70000c06e900030033008b05d1000a85d3006d
:101f8000fbff370004027500858275008206780029
:101f90008d06e900030033000603430087834b00ee
:101fa000fbff3700f03fb1000180b100ef8162001c
:101fb000040178000340a0000008a3000c003200d8
:101fc0000201410083814900080020000900280027
:101fd00087826400080278004f2ade000500200096
:101fe0000201420083814a000603430087834b00bd
:101ff0008182d1000082d30084af9f0095af9f0003
:1020000002014100838149000800200009002800e6
:1020100087806400080078004f08de00010020007f
:1020200002014000838148000600430087804b0086
:102030006c01200006002000070220006044b80068
:102040006022b80088bf9f0099bf9f00eca79f0047
:102050000405430085854b00820f5500838f5d008a
:102060000a003c000a0243008b824b000a01510027
:102070008b8159000fbe97009fbe97000c0643004e
:102080008d864b008cbf9f009dbf9f0002044100c6
:1020900083844900c8b79f00d9b79f000a00200079
:1020a0000b00280081846500b9b79f00aab79f0084
:1020b0002fb19700bfb197004f19de000300200039
:1020c000e2af9f00f3af9f004fb49700dfb49700db
:1020d00008014100898149000000400081804800da
:1020e0008703d1000683d300efa697008d06e90091
:1020f000eda79f00d6ff3a000fbc97009fbc97004a
:102100006033b800a6b79f00b7b79f00cab79f005b
:10211000dbb79f000c022000e8a79f00f9a79f00f3
:10212000e6af9f00f7af9f004fb59700dfb5970070
:102130002fb39700bfb397000a0443008b844b0072
:10214000820f5200838f5a000400350034003a0099
:10215000800f5400818f5c0030003e004fb5970027
:10216000dfb597000805450089854d00aab79f0097
:10217000bbb79f000a0020000b0028000983650000
:1021800096b79f008ab79f000fb397009fb3970041
:102190008a0f53008b8f5b000c003a00bfb397008f
:1021a00087836500d7af9f00c6af9f004fad9700f4
:1021b000dfad9700e00f5500e08f5d0003003a00af
:1021c00061034200e0834a00010037000403be00bf
:1021d0000401510085815900880f5000898f5800f3
:1021e0000200310061015100e081590008005000f7
:1021f000898058006faa9700ffaa97004fb49700f4
:10220000dfb497000402440085824c00e4af9f00d5
:10221000f5af9f000602be00010037000401be00ba
:1022200002014100838149000600200007002800c8
:1022300081846300b9af9f0006057800aaaf9f00b4
:102240002fac9700bfac97004f4bde00070020007b
:102250000201430083814b00000040008180480060
:102260004fb59700dfb597008b05d1000a85d300e5
:10227000cab79f00dbb79f000c06e900aaff3a002f
:102280006fa49700ffa497006fab9700ffab970078
:102290000001710081817100e00f5100e08f590051
:1022a0000b003200e10f4300e08f4b0004003a00c6
:1022b00061044400e0844c006033b800040037003f
:1022c0006000b800610063000003430081834b009d
:1022d0008985d1000885d3008701d1000681d3000c
:1022e0000808a3000100320003f0a0000fae970021
:1022f0009fae9700c460dd000000200004002000b5
:1023000005fe23000000420081804a0000024500d3
:1023100081824d004fabde00860378000403be00cf
:102320006022b80004027100858271000603be00bd
:102330000400be000601be00c80c07000004be0079
:102340000800be004f06be004f05be004f04be0091
:102350000080fa0000000600889fbe008a9fbe0031
:102360008c9fbe000004be000400200005f827007a
:102370008583600004037800840f5300858f5b0021
:1023800007003a000801be000800be0033fb07004a
:102390000001be000800be006cf907001000370005
:1023a000e00f5000e08f58000f003c0081017800e2
:1023b00003f0a10000017800e00f5100e08f590008
:1023c0006a00320010022000f05288000801be00ae
:1023d0000800be0054f907000001be0040fa0700e3
:1023e0000004be0061003700478cde00cf8cde00a9
:1023f000e00f5400e08f5c000f003a006044b8002a
:10240000040037000000400081804800610444005f
:10241000e0844c0004002000050820008181620057
:1024200004017800e00f5100e08f5900f5ff320001
:1024300061041400e0841c00f807b1000980b100b9
:1024400081017800f307b200000178000200be00ad
:102450000170a0000808a300020032000000400044
:10246000818048008984d1000884d30000004000a6
:102470008180480094012000020020000310200009
:102480006055b8006066b8000c0341008d834900b8
:10249000800f5300818f5b0006003c000606410060
:1024a0008786490006005000878058000a054100d1
:1024b0008b85490000004000818048008301d100e5
:1024c0000281d3000402e900efff3a00e00f500060
:1024d000e08f58001b0032000226240023da20007f
:1024e0000000200001f823000ff90700020020007f
:1024f00003f823002b0c07000000e000110035005a
:102500000226240023da20000000200001f8230026
:102510000ef907000200200003f82300210c070039
:102520000000e0000300340062054500e0854d0036
:10253000040037006000b800610065000005450038
:1025400081854d00c744dd00080020000000200008
:1025500001f0230008044000898448008b85d100e5
:102560000a85d3000804450089844d000800be0098
:102570004f06be004f05be004f04be00000006001f
:102580000800fa000002be008501780003f0a100f7
:1025900000017800a6fd200097f42300860f51006b
:1025a000878f590006003e00f4ff2f00f5972300a7
:1025b000840f5100858f59004b0036003a003700d8
:1025c0004f0ade0005002000163d2500b707240055
:1025d000860f5100878f590015003e0036be2c0033
:1025e00067012400860f5100878f590008003e00c4
:1025f0000400e00003003200b2fd200093fc230041
:1026000019003700b2fd200093fc23001a003700a8
:102610000400e00003003200b2fd20009304240017
:102620001c003700b2fd2000930424001d00370079
:10263000561d2300270e2400860f5100878f590056
:102640001b003e00f6dd2e00f70a2400860f510025
:10265000878f59000b003e000400e00004003200a8
:1026600042be2c0063092400b8f8070003003700bd
:1026700042be2c0063092400abf8070012002000c2
:10268000180037000400e00004003200b2fd200012
:10269000930c2400adf8070003003700b2fd2000c2
:1026a000930c2400a0f807000001eb000d00370098
:1026b000f4ff2f00f5f72700840f5100858f590094
:1026c000030036000001be0097f80700060037003f
:1026d0006881570006000700610160004fb897004d
:1026e000dfb897005d0007000080fa0000000600d8
:1026f000ea874700889fbe008a9fbe008c9fbe006d
:102700008e1f78000006be00020478000005be009f
:102710008b01780003f0a10000017800a0fd2000eb
:1027200091dc2400800f5100818f59001e003e0073
:1027300032982f0023f223000c00be0047fa070056
:102740000200200003b4240080f8070002002000eb
:1027500003b4240074f807000005be0039f8070030
:1027600080047800a2fd200093fc23000a00be0034
:102770003afa07000001be000c00be006af807002c
:102780000006be00325a2800832823000a00be003b
:1027900032fa07000001be000c00be0062f807001c
:1027a000008cbe0026003700f0ff2f00f1f7270055
:1027b000800f5100818f5900060036000c01be00c9
:1027c0000c00be0058f80700008cbe008004eb002f
:1027d0001b0037004718de00010020006009b1002f
:1027e0000180b100c702dd00040020000401510097
:1027f0008581590076875700029fbe000002eb00da
:1028000013002000000178008e00780076805700c9
:102810006900070080047800e00f5600e08f5e003a
:1028200005003d001e00be0001f0a200008cbe00ad
:102830008904ea00020037003e1c78002e1478005c
:10284000090078004f0778004f06be004f05be0014
:102850004f04be00af00b10000000600ee87470045
:10286000889fbe008a9fbe008c9fbe008e1f78008e
:102870000005be00020778000001be00f7f907005e
:102880000004be000001be00f4f90700b0b79f00cd
:10289000c1b79f000a01be000800be00eff90700a3
:1028a0000006be003fb19700cfb19700ebf90700db
:1028b0000003be00d2f92e0083cc23000800be0026
:1028c000d6b79f00e7b79f00e4f9070092642a009b
:1028d000a3d523001df807000002be00e25c210022
:1028e000b3c123000800be00f4b79f0085bf9f005e
:1028f000daf9070002d72e0023b4230013f80700eb
:102900000001be003fb09700cfb09700d3f9070099
:102910000001be007fb297008fba97000400be008e
:102920000af807000001be005fb39700efb39700fd
:102930000600be00c9f907000002be00a27e290001
:1029400083e023000800be00f4b79f0085bf9f000e
:10295000c2f90700a2a62a00a3ea2300fbf707009a
:102960000001be000c00be00bcf907000001be0063
:102970000a00be00f5f707007fb297008fba9700f4
:102980000401be00f1f707000e00e0000400320071
:102990000001be000000200001f82b00d0f8070065
:1029a0004f0778004f06be004f05be004f04be0023
:1029b000ef00b10000000600af17b000889fbe0016
:1029c0008a9fbe008c9fbe008e1f7800b0a79f001c
:1029d00081af9f000204780003057800f4a79f00f0
:1029e0000400420001842000610078006101b90008
:1029f000b2af9f00c3af9f000a00e9006102b900b7
:102a000094af9f00a5af9f00630054008201200097
:102a1000110009000200d8006103b900d6a79f0089
:102a2000e7a79f00e00f5300e08f5b0003003d002d
:102a30006000b800d0a79f00e1a79f005fa19700aa
:102a4000efa197000280ea008380ea008201200063
:102a5000030020002c0b0700cfc1de00000444005f
:102a6000818449005fa29700efa297001fab9700f7
:102a7000afab97000606520087865a003fa8970022
:102a8000cfa897000002430081824b006eec2f001c
:102a90000f074700c265dd00808420008085450067
:102aa0006011b8000803be000a04be000205be00a3
:102ab000140037006000b800e00f5600e08f5e00a1
:102ac0000a0035001900be00d4b79f00e5b79f008b
:102ad000f6b79f0087bf9f007bf707008fbb97006b
:102ae0007fb39700efb297005fb2970000afbe00d0
:102af00061054500e0854d0061064600e0864e0018
:102b0000e4844400840f5500858f5d00e9ff3400a4
:102b10000805780064f62f000f0242006011b8002b
:102b2000b2b79f00c3b79f00840678001e0037002d
:102b30003c00be004b01be00d4b79f00e5b79f002c
:102b4000f6b79f0087bf9f0044f907000001be0051
:102b50000800be007df707000004be005fb29700ca
:102b6000efb2970061024200e0824a008fbb9700fb
:102b70007fb397001fa89700afa89700800f52005f
:102b8000818f5a00eaff340088aebe003fb1970043
:102b9000cfb1970061014100e0814900b2b79f00c9
:102ba000c3b79f000a05e8003fb29700cfb2970075
:102bb0003fa89700cfa89700800f5200818f5a003e
:102bc00008003c003fa69700c255dd00a1ec2f0095
:102bd0008f8040008b8540006044b8006022b800c0
:102be000e4ff37003fa99700cfa99700b2b79f0035
:102bf000c3b79f0096b79f00a7b79f00bfb29700cb
:102c00004228dd00a6f62f000f034300000043001a
:102c10001004be006de72f008f8646003fb097007e
:102c2000cfb0970061005000e0805800f0af9f00e7
:102c300081b79f00c205dd008b0543000d057800bc
:102c40003fb39700cfb397000d0778001900370006
:102c500002002000033823000800be00f6b79f00e2
:102c600087bf9f00fdf80700f6f6070016f707007c
:102c70000006be000200200003b82400f7f8070099
:102c80000001be000800be0027f70700edf60700b0
:102c900000adbe002b00be000c01be002bf70700ec
:102ca0000004be007fb397008fbb97006103530001
:102cb000e0835b00e00f5300e08f5b00e4ff3c002b
:102cc0008e0678001fb697000c0178000800be0041
:102cd000340307000004be000200200003e02300cc
:102ce000def80700d00207000200200003102400d5
:102cf000daf807000001be000800be000af707006e
:102d00000005be00cff607000004be00eef6070087
:102d10000001be000a00be0003f707000005be0068
:102d20001fb19700afb19700e00f5100e08f59003d
:102d300022003400ffa997004218dd00a4e72f000d
:102d40000f024200000042001002be00f800160010
:102d50000401be00010378000603e900030033000c
:102d60008381d1000281d300fbff370008044100ba
:102d7000898449008100e900030033000201410019
:102d800083814900fbff37000201520083815a0012
:102d90000288be00770016000202be000000e900b3
:102da000030033008582d1000482d300fbff37008b
:102db000d4af9f00e5af9f001d0037001fb3970001
:102dc000afb39700e00f5300e08f5b000b003a00b9
:102dd000ffab97004238dd00a1e72f008f80400055
:102de000008040001000be004789de00d2af9f0087
:102df000cf89de00e3af9f000d0037000200200006
:102e000003f02300e709070024002000050020004c
:102e1000d4af9f00e5af9f000000e00009003d0037
:102e20006033b800d6af9f00e7af9f006200370065
:102e30005fa89700efa89700e00f5000e08f5800c0
:102e40005d00340061044400e0844c006000b80080
:102e50006022b800120037005d01be00e00f520092
:102e6000e08f5a0006003a00e00f5100e08f590051
:102e70000900320004002000051020000200370085
:102e8000f4ff2f00f50f2000821e520083965a0097
:102e9000140020000500200061004000e080480090
:102ea0003fb19700cfb19700820f5000838f580039
:102eb000e9ff35001fb39700afb39700e00f530051
:102ec000e08f5b0023003400e10f5300e08f5b00d4
:102ed00004003200e20f5300e08f5b001d003a0057
:102ee0000e003700ffab97004238dd00a1e72f004e
:102ef0008f804000008040001001be000303780076
:102f0000f607b200a6a79f008203780097a79f004c
:102f10001fa19700afa197000d003700ffa99700f0
:102f20004218dd00a6e72f000f0343000000430016
:102f30001001be0083037800f703b20087a79f004b
:102f400082007800f19f9f007f9997008fa19700e2
:102f50000288be005fab9700efab9700e20f530013
:102f6000e08f5b0014003a000a01be000000200060
:102f700001f82300d4b79f00e5b79f006af6070069
:102f80000005be005fb29700efb29700e00f52005d
:102f9000e08f5a00080032000c0178000000200089
:102fa00001f823007f0207000001be000a00be00f6
:102fb0005df607000005be006011b8000a00be0003
:102fc0001ef607000000e00082003a003fb09700c4
:102fd000cfb09700ffab9700423add00a2e72f0089
:102fe0000f014100040241006011b80003003700e6
:102ff0002403be000601710087817100610050004a
:10300000e08058003fab9700cfab9700860f500091
:10301000878f5800f6ff3d00e00f5100e08f590008
:103020007a003a0061005300e0805b004200dd005e
:10303000a7e72f008f834300008043001200200089
:1030400003002000f2af9f0083b79f001200200012
:10305000030020000200370061014100e0814900c7
:103060002002be00e00f5200e08f5a00faff32004b
:10307000f2af9f0083b79f003fb39700cfb3970095
:1030800061024300e0824b004226dd00a7f62f00dc
:103090008f8343000c8643005fa19700efa1970048
:1030a00061004100e08049003fb39700cfb3970033
:1030b0000000430081804b00c204dd0080842000ba
:1030c000808444001fa99700afa9970061004100c8
:1030d000e08049000000430081804b004201dd0098
:1030e000a3ec2f008f81410082814100c3a79f0084
:1030f0000004e80009077800880678000404be0090
:10310000280037003e00be00eff507004fa29700f1
:10311000009abe00c4a79f003fa29700c26add00cc
:10312000a6ec2f000f034300850243006033b80074
:103130006055b800d89f9f00e99f9f000404be001f
:103140000d0037003800be004901be00f6b79f00f1
:1031500087bf9f00c1f707000001be000a00be0044
:10316000faf507000005be007fb397008fbb9700fc
:1031700061034300e0834b001fa99700afa99700ac
:10318000820f5300838f5b00eeff34005f9c97003b
:10319000ef9c97000a9ebe0061044400e0844c004e
:1031a0008d06e8007faa97008fb297003fb3970083
:1031b000cfb397000400430085804b00800f54007c
:1031c000818f5c00cfff3400b0b79f00c1b79f0074
:1031d0008afe370098af9f00a9af9f001fb49700e9
:1031e000afb497000c01ea000a00be00ed01070031
:1031f0000005be000200200003b82400e908070013
:103200000000e00020003d004300370098af9f0021
:10321000a9af9f001fb49700afb497003fb09700cd
:10322000cfb0970061005000e0805800b0b79f0019
:10323000c1b79f0078045400e0845c00bfb09700e1
:103240004208dd00a2e72f000f014100000041000d
:103250003fb19700cfb197000400370061015100e2
:10326000e081590078045400e0845c002002be0034
:10327000e00f5200e08f5a00f8ff3200b2b79f0013
:10328000c3b79f002c003700020020000338230042
:103290000a00be0071f707006af507008af507000b
:1032a0000006be00bfb29700422fdd00a6e72f0048
:1032b0000f0343000e0743000200200003b8240060
:1032c00066f707000001be000a00be0096f5070081
:1032d0005cf50700008fbe003fb09700cfb09700ad
:1032e00061004000e0804800b0b79f00c1b79f0078
:1032f00078044400e0844c004205dd00a1e72f0083
:103300008f8040000a8540000c00be004df507008c
:10331000008dbe00080037003fb197004216dd0067
:10332000a3e72f008f8141000c8641000a00be00f8
:1033300044f50700008ebe00080178000000200060
:1033400001f82300970107000004be003fb2970078
:10335000f4af9f008402e80095b79f00c22ddd0006
:10336000a6e72f000f0343000b054300a7f62f002d
:103370008f8343008b8543003fb69700cfb69700fd
:103380000d0037004a00be004ff507000001be00e7
:103390000800be0031f7070080a5be000200200033
:1033a000033823000800be002cf707000004be000d
:1033b00061065600e0865e00e00f5600e08f5e007a
:1033c000f0ff3d006df12f008f8646003fb597005e
:1033d000cfb597001c0037005c01be005e00be0048
:1033e000d4b79f00e5b79f001cf707000001be009f
:1033f0000800be0055f507000004be006105450049
:10340000e0854d00efb297005fb297003fa89700ac
:10341000cfa89700800f5500818f5d0007003c000a
:103420003fb19700cfb1970004005100858059004b
:10343000800f5500818f5d00e7ff340088aebe002d
:1034400061055200e0855a00e00f5500e08f5d00f5
:103450000b003500ce9420000a06e9004266dd002c
:10346000a3f62f008f8141000c8641006044b80014
:103470006000b8000a02be000005be00e3ff37008e
:103480007fa29700e20f520005003c00e10f5200be
:1034900010003d000400e00017003200da003700a1
:1034a000ffa29700e38f5200d7003a003fb3970086
:1034b0004232dd00a7f12f008f83430004824300d6
:1034c000040778003fb39700cfb39700b4af9f00d5
:1034d000700037001fb097004205dd00a1f12f00fa
:1034e0008f8040000a8540003fb49700cfb497001a
:1034f0006000b8001d0037001fb197004214dd00c6
:10350000a3f12f008f814100088441003fb597004f
:10351000cfb597006000b800040037004801be0036
:103520000af5070061055500e0855d00e00f5500d4
:10353000e08f5d00f9ff3d005faa9700efaa9700ba
:10354000e00f5200e08f5a000100320001f0a200ab
:103550008faa9700808abe00ab0037004a01be00e8
:10356000faf4070061045400e0845c00e00f5400aa
:10357000e08f5c00f9ff3d000001be005fab9700eb
:10358000efab9700e00f5300e08f5b0001003200cb
:1035900001f0a2008fab9700808bbe005f08970000
:1035a000ef089700e0f40700aaf12f000f0545008f
:1035b0001800200009002000040037005a01be0056
:1035c000e2f4070061044400e0844c003fb197003e
:1035d000cfb19700820f5400838f5c00f7ff340057
:1035e0008fa99700648141005faa9700efaa970016
:1035f000e00f5200e08f5a000100320001f0a200fb
:103600000089be0080003700c0ff2f00ffaa97008e
:1036100000a8b900000047003fb29700cfb2970062
:1036200061015200e0815a004211dd008202400037
:103630005506be000e0278005405be000a01be0009
:103640000c00be00d4b79f00e5b79f00f6b79f00ff
:1036500087bf9f00bdf407000004be000001be004c
:103660000c00be00b0f407000001be000a00be005e
:10367000b6f407005fb29700008abe00efb2970071
:10368000888abe007fb397008fbb97006103530009
:10369000e0835b0064075700e00f5300e08f5b009e
:1036a000d9ff3c003faa97003fb39700cfb39700e4
:1036b0000404780023003700c0ff2f00ffaa970002
:1036c00000a8b900800444003fb19700cfb1970033
:1036d00061005100e08059004200dd008084440018
:1036e0005902be00080778005e06be000c01be004d
:1036f0000400be00d4b79f00e5b79f00f6b79f0057
:1037000087bf9f0091f407000005be000001be00c6
:103710005fb29700efb297000400be0082f407008a
:103720000001be000c00be0088f40700008fbe0040
:103730008a8cbe007fb397008fbb97006103530054
:10374000e0835b0064045400e10f5300e08f5b00f2
:10375000d9ff3c009fb19700421cdd00a4f12f006f
:103760000f024200080442003fb59700cfb5970012
:103770006000b800040037004801be0073f4070081
:1037800061055500e0855d00e10f5500e08f5d00ab
:10379000f9ff3c005fab9700efab9700e00f5300e1
:1037a000e08f5b000b003a000fa997005f0a9700bb
:1037b000ef0a97000499be007f0b97008f139700c4
:1037c0000689be008fab9700c0039800d103980014
:1037d0000d0037005f0a9700ef0a970005f0a2007e
:1037e0000fa997000499be007f0a97008f129700d7
:1037f00005f0a2000489be0001f0a2000fa9970005
:1038000040019800510198009fa9970067806100ce
:103810004f0778004f06be004f05be004f04be00a4
:10382000af17b100000006000c00fa00889fbe0030
:103830008a9fbe008c1f78000004be006000b800a4
:103840006011b800f0b79f0081bf9f0092bf9f003a
:10385000a3bf9f00f8b79f0089bf9f007fb297006a
:103860008fba97001fbb9700afbb9700443ade00aa
:10387000f07f20000006620020432000800f5600e9
:1038800042003c006011b8000800be00ebf30700e6
:103890000000e0003d0032007fb097008fb8970035
:1038a0001fb99700afb99700e00f5000e08f5800a4
:1038b000e00f5900e08f590008003d000200200091
:1038c00003b024000800be0017f407000200200027
:1038d00003b024001df40700070037000200200099
:1038e00003b024000800be0018f407000200200006
:1038f00003b024000cf407000801be000af407001e
:103900000005be00e03f2000800f56000f003c0085
:10391000dab79f00ebb79f006044b8007fb0970014
:103920008fb897001fb99700afb99700e00f50000c
:10393000e08f5800e00f5900e08f590013003d0060
:103940000800200009f82b00100037006011b800b3
:103950000a00be00130707000000e0000700340063
:103960000a01be000800be00f8f3070002002000b4
:1039700003f82300ecf30700030037000a01be0040
:103980000800be00f1f307000004be000800be00fe
:103990004f0678004f05be004f04be000080fa00bd
:1039a00000000600889fbe008a9fbe0002047800c7
:1039b000f93f2000890f54000d0034000200200060
:1039c00003f82700a5f50700f83fb100890f540060
:1039d000150034000200200003f827009ff50700bf
:1039e000f83fb100890f54000e003c000e00370074
:1039f00029c02f00890f54000b003d006011b80052
:103a000096f50700983cb000890f540006003d0071
:103a10006011b80091f50700983cb000890f540080
:103a200001003d0009047800f83fb000cfc4de007b
:103a3000614db9006044b8000801be0087f5070079
:103a40004f05be004f04be00000006000000fa0053
:103a5000cfb8970068815700804b80001000780035
:103a6000ad0207000080fa000000060008003700e1
:103a7000000006006097200000000600fdff070020
:103a8000a04b8800904b8800000006000000060054
:103a90008f04b000889fbe008a9fbe008c9fbe002e
:103aa0008e1f7800809f9f00f19f9f00c3779f002b
:103ab00001007800b0007800e1a79f0010007800b6
:103ac000d0b79f00ff999700a3019000d3a79f0054
:103ad0007f9a970044029000f4979f00ff9a970006
:103ae000b50690003204be002205be006022b80078
:103af0006033b8000800be000a01be00850607005a
:103b00000000e00003003d000bf0a200d0c2b300b3
:103b1000040037006fa397000628a30008003200b6
:103b2000b0c2b300804e7800dfa397008703e9009e
:103b3000c7af9f0010002000f0a79f000f003700c4
:103b4000efa097000138a3000800320000c2b300c4
:103b5000804e78005fa197000201e900c2af9f008c
:103b600013002000f3a79f00040037005fa2970016
:103b7000c4af9f008002eb00f5a79f000800be00c5
:103b80000a01be00c1ff0700f4ff2f00f5ff2f0060
:103b9000f6ff2f00f7ff2700040260008582600017
:103ba00006036100878361006000b8000200200006
:103bb00003ff27000020e10001a8e10002b0e100be
:103bc00003b8e10010003a004f7397008600fb0035
:103bd0001104b100ffa3970007804600f98f500041
:103be00002003e00e1a420000100370021a52000d2
:103bf0006405070020a520001a050700ffa0970014
:103c000001014000140037000020e10001a8e1009c
:103c100002b0e10003b8e100120036004f719700d6
:103c20008200fb001104b100ffa197000380460051
:103c3000f98f500002003e0061a52000010037000e
:103c4000a1a520004f050700a0a52000050507003d
:103c50007fa29700040140006fa29700dfa19700a8
:103c6000190237006022b8006033b8000800be00b7
:103c70000a01be00270607000000e00068003200cd
:103c80006000b8000200200003ff230080af9f0007
:103c900091af9f00a2af9f00b3af9f000007eb0062
:103ca0000802be000a03be00d4af9f00e5af9f002c
:103cb000f6af9f0087b79f00070037000e07e800a8
:103cc0000800be000a01be0080af9f0091af9f00b8
:103cd000a2af9f00b3af9f006022b8000600200093
:103ce000470224000fa897009fa897002fa99700cc
:103cf000bfa997008a0707000004be000205be00a6
:103d00000002be000203be005fa89700efa8970064
:103d10007fa997008fb19700fe0507000000e00023
:103d2000e6ff3d000006eb000fac97009fac97004c
:103d30002fad9700bfad97002500370040ed2f0055
:103d4000800f570019003d000c00e00016003a00fb
:103d50006022b80006002000073524005fa8970005
:103d6000efa897007fa997008fb197006c07070015
:103d70000002be000203be00d4af9f00e5af9f006b
:103d8000f6af9f0087b79f006022b80006002000b2
:103d9000073524000800be000a01be0060070700c6
:103da0000004be000205be001c0020006022b80016
:103db00006002000470224000800be000a01be00e1
:103dc000a80607000004be000205be000e07e900b9
:103dd0000802be000a03be005fa89700efa8970084
:103de0007fa997008fb19700ca0507000000e00087
:103df000d2ff35000800be000a01be0080af9f0060
:103e000091af9f00a2af9f00b3af9f005fac970040
:103e1000efac97007fad97008fb597000800370093
:103e20006022b8000600200007ff230084af9f0037
:103e300095af9f00a6af9f00b7af9f000007eb00b4
:103e4000cf7297000500fb00d5040700d0779f00d4
:103e50005fb39700600020000600e000010035001d
:103e60005fb0970071c6b300df73970081cf530036
:103e70000a003a00dfb097000100e0009b01320029
:103e80009b0137008e0f50009f013c00d0af9f0078
:103e900052c6b30082cf9f001e003700df7197002b
:103ea00083cf9f000200370064c6b30084cf9f0019
:103eb0000000e800d0af9f0060c6b3008fca970033
:103ec00080cf520013003a000e00e00008003d00d1
:103ed0006000b8000200200003ff230080af9f00b5
:103ee00091af9f00a2af9f00b3af9f000007eb0010
:103ef00061c6b30081cf9f0070c6b3005f719700a9
:103f0000804f510003003200dfa997008e814100ed
:103f1000d3af9f000faa97009faa97002fab9700df
:103f2000bfab970094b79f00a5b79f00b6b79f009f
:103f3000c7b79f000800be000a01be00d0b79f00af
:103f4000e1b79f00f2b79f0083bf9f000006eb0020
:103f50000802be000a03be00b49f9f00c59f9f00d9
:103f6000d69f9f00e79f9f00310037001fb2970048
:103f7000afb297003fb39700cfb397005fb0970001
:103f8000efb097007fb197008fb997003506070013
:103f9000910807000004be000205be00830507006b
:103fa0008002780085a79f001fb29700afb29700ec
:103fb0003fb39700cfb397000800be000a01be00d0
:103fc000d70607005fb29700efb297007fb3970064
:103fd0008fbb9700d20507000002be000203be009f
:103fe00007f0a200d4b79f00e5b79f00f6b79f0087
:103ff00087bf9f006022b80006002000470224000f
:104000001fb09700afb097003fb19700cfb19700b6
:10401000140607000002be000203be0094b79f0012
:10402000a5b79f00b6b79f00c7b79f000c06e80072
:10403000dfaa9700850f5600ccff35003f9c970004
:10404000cf9c97005f9d9700ef9d97006022b8007e
:1040500006002000470124001fb09700afb0970072
:104060003fb19700cfb19700ad0607000002be0038
:104070000203be0094b79f00a5b79f00b6b79f008c
:10408000c7b79f005fb09700efb097007fb1970070
:104090008fb997001f0507000000e0000f003500f2
:1040a0001fb29700afb297003fb39700cfb397000e
:1040b0005fb09700efb097007fb197008fb997007e
:1040c000140507000000e00011003a008fa29700dd
:1040d0000508a300080032000d0037006000b8009a
:1040e0006011b80090b79f00a1b79f00b2b79f00c2
:1040f000c3b79f00060037006022b8006033b800e5
:1041000094b79f00a5b79f00b6b79f00c7b79f00a1
:104110001fb29700afb297003fb39700cfb397009d
:104120000800be000a01be00830507000002be00b1
:104130000203be0084a79f0095a79f00a6a79f002b
:10414000b7a79f0050c6b3008fca970080cf520018
:1041500003003a000003eb00d6b79f0001003700d0
:10416000deb79f007fa697000000eb0090b79f008e
:10417000909f9f00b09f9f008e007800e1979f0066
:10418000660037000faa97009faa97002fab9700f1
:10419000bfab97000fa097009fa097002fa197009b
:1041a000bfa19700af0507000b0807000004be0081
:1041b0000205be00fd04070000017800efa1970092
:1041c0000348a3000c003a000200e0000a003a0095
:1041d00070c6b3005f729700804f520006003a002d
:1041e000dfb297000500e00003003d001fb3970019
:1041f0000607e800200037009f9b97000700e000bb
:104200000b003a005fb097000000e00008003d009e
:10421000e0c2b30080767e000c06e800cfa89700cd
:104220008100e900c1af9f0013002000939f9f0011
:104230008c8046001fb797000300370000c3b3000f
:10424000805878000e07e9000e00e000fbff3a00fe
:104250001fb29700040646000c80460005c3b30059
:10426000054841000c06e8000480ea004fab9700c7
:1042700000034300c6af9f000faa97009faa9700b4
:104280002fab9700bfab97000800be000a01be002d
:10429000230607000fa297009fa297002fa3970065
:1042a000bfa397001e0507000002be000203be0068
:1042b00007f0a20084a79f0095a79f00a6a79f00d4
:1042c000b7a79f006022b800060020004702240024
:1042d0000fa897009fa897002fa99700bfa9970044
:1042e000600507000002be000203be0084af9f000d
:1042f00095af9f00a6af9f00b7af9f00dfb29700ba
:104300008502e900d5b79f003f9b97000603e800b0
:10431000b69f9f008e03780097b79f003f98970045
:10432000dfa89700810f500005003d007f9997009e
:104330004200900065005000800f560091ff390048
:104340006f9797009f9997000300e00006003a00de
:104350006fa297000448a30003003200e0c2b3003c
:1043600080767e000c06e8000c8046000048eb00da
:1043700051c6b3008fca970081cf520036003a0071
:104380007f9397008600e900018146000049eb0019
:104390008001eb000e00e00002003d000e07ea0085
:1043a000130020002200200081037800cfaa97008c
:1043b000000478000b00370081037800a40020007f
:1043c000110009000407d8000102780000077800f6
:1043d0000783460000c3b300004b42000201e9001e
:1043e0008502e9008700e9000e00e000f2ff3a00d4
:1043f0000200e000f0ff3c00c5af9f00080078001d
:1044000001824600b2c2b3000300e00001003200a6
:10441000d2c2b300024a78000101e900828046005e
:10442000cf7197000302fb001404b10053c6b30020
:10443000f90f520001003e0053c4b30083487800d6
:104440004faa97000482e900c4af9f00820f560074
:10445000010031004b030700efa297006380620068
:10446000e20f500013003a004fab97000600e00047
:10447000100034000d007800fa0207000400370035
:10448000cfab970087804600ed7078000000e90010
:10449000ffa19700830f5000f9ff31000380460011
:1044a0004fa99700010320008b0207000002eb00d8
:1044b000d4a79f000d007800ea0207006fa29700c2
:1044c000dfa19700000178008d0078000f98970019
:1044d000510007004f0778004f06be004f05be0091
:1044e0004f04be008f04b100000006001000200041
:1044f000e40f470063fe3d00d0af9f0055c6b300f8
:1045000085cf9f0083fe37000e00e00066fe350079
:10451000d0af9f0076fe37000200fa00881f7800b7
:1045200000047800e2bf9f00648157000800780013
:10453000ec010700980090000148a3000100320040
:104540000080eb004f0478000080fa0000000600b5
:10455000889fbe008a1f7800800478004900900080
:1045600002047800800f5400010036000004780037
:10457000080178006a8544001a0078004f0207009d
:104580001a004400000d7800e8844400990c1400df
:104590000048eb004f0578004f04be000000060005
:1045a000100078007ff03700900190000388a3008e
:1045b00001003200e6ff37000348a30001003a0083
:1045c000f7ff070000000600889fbe008a1f7800e2
:1045d000800478004900900002047800800f5400a5
:1045e0000100360000047800080178006a85440064
:1045f0001a007800310207001a004400000d78000c
:10460000e8844400990c14000048eb004f05780042
:104610004f04be0000000600f2874700889fbe00de
:104620008a9fbe008c9fbe008e1f78008004780099
:1046300001057800020478008305780061076200b4
:1046400002003a008b0f540008003900080178007e
:104650008a00780009007800d3ff07008b0f540010
:1046600002003900880578001e00370008865500d2
:104670000c017800f00f5600010036000201200006
:10468000010220007e805700130207008c0678008c
:104690000500370002012000fe8057000900780065
:1046a000c1ff0700f0865600ef8f5600f9ff3e006d
:1046b0004461de0000ff2f000091b90002014600b6
:1046c000fe80570009007800b7ff07000e00e000e9
:1046d00004003a00080178008a0078000900780098
:1046e000b1ff07000b0078004f0778004f06be00af
:1046f0004f05be004f04be002f01b10000000600b0
:104700000000050000000500000005000001780021
:104710000040eb008080fb008180400063a220000d
:1047200063c278000404e00003003a0070a2200095
:1047300060c078000000060092017800934f52009c
:1047400004003a0070a2200060c078000309e8006d
:10475000010037000040e800ea4f5000edff36004e
:1047600000000600f6874700889fbe008a9fbe00b3
:104770008c9fbe008e1f78008004780001047800b2
:1047800083057800040678000000eb00c0b79f00a6
:104790008080eb00d1b79f00e0b79f00f2b79f0089
:1047a0000008200080bf9f0098007800010078007a
:1047b0000005eb00010037000a05e80030417800f1
:1047c0000204e0000300320053c2b300834f5100e3
:1047d000f9ff3a000a00e000040032000a01780004
:1047e0000900780070ff0700180c450018077800d2
:1047f00050c2b3009e4f100033013a000e07e8008c
:104800000e0c780010003700cfb097000100a00018
:104810000b003700cfb097000110a0000800370050
:10482000cfb097000120a00005003700cfb097005f
:104830000130a00002003700cfb097000140a00077
:10484000c1b79f00000ce800180078009040780085
:10485000b2c2b30082cf5000f1ff320007003c002b
:1048600002c2b30082cf5000f0ff320032c2b30068
:1048700082cf500007003a00efff3700d2c2b300ea
:1048800082cf5000e0ff320002c3b30082cf50005d
:10489000e0ff3200a2c2b30082cf50000d003a0008
:1048a000000ce8001c80e900000e78001000780081
:1048b000e0b79f000000e0000f003d00cfb0970080
:1048c0000100a200c1b79f000000ea00e0b79f000e
:1048d0000900370005020700e0b79f00010037001c
:1048e000000ce800180078009000fb000103b10004
:1048f000e98f5000faff36004fb097000008a30080
:10490000020032000010a100c0b79f00180078001c
:10491000e1c2b30090cf100016003a008000eb0017
:10492000d1b79f000000e800000c7800a1c2b300de
:1049300090cf100006003a00000ce8001c80e9004f
:10494000000e780010007800d0b79f0009003700f3
:10495000e6010700d0b79f0001003700000ce80017
:10496000180078009000fb000103b100e98f5000af
:10497000faff36000800780064ff070080467800e0
:10498000180078001000fb000502070091062000c7
:10499000810f50003800320012003c004106200018
:1049a000810f5000340032000a003c001106200044
:1049b000810f50002000320031062000810f50008e
:1049c0009a00320051022000810f5000ae003a00e0
:1049d000a700370071062000810f5000aa003c009c
:1049e0008200370001072000810f50005c00320078
:1049f00007003c00e1062000810f500074003200e7
:104a0000f1062000810f50009f003a003900370066
:104a100051072000810f500027003200810720003d
:104a2000810f50004200320031072000810f5000fa
:104a300095003a00850037008d80fb000c0178005e
:104a400000fe2f000f004000dc0107000000e00026
:104a50009c00320018007800000ce80090417800bb
:104a600002fe2f000f014100f88057000900780076
:104a700024ff07000e0037008d80fb008c017800ba
:104a80001200200000fe2f000f004000ea01070086
:104a90000000e0008b003200180ce80002fe2f003e
:104aa0000f014100f88057000900780014ff07004b
:104ab00000054500840037008d80fb008c017800e4
:104ac0000001eb0000fe2f000f004000da0107009c
:104ad0000000e0007b003200180ce80002fe2f000e
:104ae0000f014100f88057000900780004ff07001b
:104af000efff37008d80fb008c0178000001eb0098
:104b000000fe2f000f004000cb0107000000e00076
:104b10006c003200180ce80002fe2f000f0141006b
:104b2000f880570009007800f5fe0700e0ff370025
:104b30008d80fb008c0178000001eb0000fe2f004f
:104b40000f004000bc0107000000e0005d003200e3
:104b500018007800000ce80090417800160037003b
:104b60008c0178000001eb00010f200000fe2f00f7
:104b70000f004000b00107000000e00051003200cb
:104b8000180ce8000fb097009fb097002fb1970066
:104b9000bfb19700e00f5000e08f5800e00f5900c0
:104ba000e08f590003003a008001eb0002a22000d0
:104bb0004000370083c7b30002fe2f000f01410001
:104bc000f880570009007800cefe0700b8ff3700d4
:104bd0000b0145008d80fb008c01780000fe2f004a
:104be0000f004000ed010700360037008d80fb000c
:104bf0000c01780000fe2f000f0040006f0107003d
:104c00000000e0002f00320018007800000ce800df
:104c10009041780002fe2f000f014100f8805700fc
:104c2000090078009afb0700a1ff370000c8b30015
:104c300080cf560023003a00180ce8001c80e900e1
:104c4000000e7800104078000d00370000c8b30057
:104c500080cf56001b003a00180ce8001c80e900c9
:104c6000000e78008001eb00100178001100370081
:104c700001c8b30081cf560012003a00180ce800ba
:104c8000e0df9f000800370050c2b300e0df9f0064
:104c90000e0c78000000eb00c0b79f00e0b79f004b
:104ca0008080eb00d1b79f0013002000e2fd2f00b1
:104cb0000f014100f88057000900780092fe0700bc
:104cc0007bff3700180ce8000a0078004f077800d7
:104cd0004f06be004f05be004f04be006f01b1007d
:104ce000000006008200fa00889fbe008a1f78003c
:104cf0000005780082047800c13f9f000004eb00ab
:104d0000100037000902780088017800a2f72f0010
:104d10000f01410081f72f008f8040000a007800ca
:104d200090fe070008004000880f500004003d007e
:104d3000b0042000f05288000084eb00040037002b
:104d4000000478004f3897001004e000edff3a00af
:104d5000080078004f0578004f04be000080fa007c
:104d600000000600889fbe008a1f780000047800bb
:104d7000010578000000eb000800e0001a00320096
:104d8000180090000058a3000c003200ea04440010
:104d900068009000990f100008003600b8099000d4
:104da0000001eb0082007800080078000300010099
:104db0000080eb001900e0000b003200740044009a
:104dc0000008eb006c0044000008eb006a0044009f
:104dd0000008eb000000eb000a00e00002003200d7
:104de0001800780063ee07004f0578004f04be00fe
:104df00000000600889fbe008a1f78000004be00e5
:104e00000000eb000800e0002900320018009000cc
:104e10000058a300120032006a05440068009000a8
:104e20009a0f100008003600b80990000001eb004e
:104e30008200780008007800030001000080eb0089
:104e40001a00e0001a003200740044000008eb0071
:104e50006c0044000008eb006a0044000008eb000e
:104e6000780a900008109000800f52000600310070
:104e70000002520011002000cfa2de00612bb90019
:104e8000180078002cee0700000220000800400007
:104e90000008eb007e0044000008eb000000eb007f
:104ea0000900e000020032001800780031ee07002f
:104eb0004f0578004f04be00000006008001780016
:104ec00002003700b15978000201e9000200e00059
:104ed000fcff3a0000000600889fbe008a9fbe00cb
:104ee000800478000200e0005a003200014078009f
:104ef000814c780082814400f1f99f00e20f51005b
:104f00005400360091449800a1449800e1f99f00b4
:104f1000d1f99f00e60f51004e003600b1449800d1
:104f2000c1f99f00e80f51004a0036000905ea0068
:104f3000630565000a8444000a055100c1ff2f0083
:104f4000010565000080fb008000eb0012102000ce
:104f500013102000ec010700008cbe000a01440081
:104f600060b99f0071b99f00e80f55003900360005
:104f700020049800310498004004980051049800df
:104f800020b99f0031b99f0040b99f0051b99f00df
:104f9000f80f55002f003600600498007104980047
:104fa000000c9800110c9800200c9800310c98000f
:104fb000400c9800510c980020b19f0031b19f0027
:104fc00040b19f0051b19f0060b19f0071b19f003f
:104fd00000b99f0011b99f0064016400780141008d
:104fe00002044400020555006011b8000203be002f
:104ff0000002be000403be006022b8000000720080
:105000008180720002017300838173000f003700fa
:1050100008027800009abe00029abe00009abe0004
:105020000292be00000c9800110c9800220c98000f
:10503000330c9800400c9800510c9800620c9800ba
:10504000730c98000a02b1000802b000ff0f55006f
:10505000efff3e00090078004f05be004f04be0080
:105060000000060080007800040037003104e000f2
:1050700002003a0000005100000006000101780023
:105080000108a300f9ff3a0081017800310178009e
:10509000f4ef2f00020242000281ea0002016200e6
:1050a0000408280004016100f7ff32008300780043
:1050b000010178003104e000fdff3a0000005100da
:1050c000000006008000780010002000020220008e
:1050d000828f500004003200e9805000e48f5000bd
:1050e000010036000000eb0000000600889fbe00b3
:1050f0008a1f78008004780009047800880478000a
:10510000394578000a00fb00eeff07000000e000d0
:10511000f9ff3a00b0c2b300804f550005003200dd
:10512000d0c2b3008000eb00804f550005003a006c
:10513000020037008000eb00010037001100200062
:105140000804e8000000eb00030037006a02b90021
:10515000020052000003b0003801fb0003fd2f00e5
:1051600082814100e98f5100f8ff36000100e00024
:1051700001003a000000ea004f0578004f04be002d
:1051800000000600881f78000004780008007800fe
:10519000c0000700080078004f04780000000600f7
:1051a000f1fb2f0080804000f98f500001003e008d
:1051b0000050a00000000600f9ff3700881f7800ab
:1051c0000004780000082000808f50001700350090
:1051d00010082000808f50000b00340030082000a1
:1051e000808f500011003a009200780068805000d3
:1051f000000978003002be002003be00049cbe00ff
:105200000694be00070037009202780064805200c6
:10521000000978001000be00c3000700009cbe001b
:105220000294be0010002000010037000000eb00d7
:105230004f0478000000060084082000848f50008e
:105240001d0032000d003c0014082000848f500027
:105250002700320002003c00040820000400370050
:1052600024082000848f50002a00320044082000c7
:10527000848f500048003a003b003700040a2000a9
:10528000848f50002c00320004003c0004092000f0
:10529000848f500040003a002d003700020c20009f
:1052a000828f50001e003200020f2000828f5000bb
:1052b00039003a00300037009380e9000200e00036
:1052c00005003200810978001102fb00cfa2de0048
:1052d000612bb9002d003700810978001142780058
:1052e0000482fb008002eb006033b8002700370027
:1052f00013027800e40052000200e0000a003200cd
:10530000810978001102be004fabde0086037800f1
:105310001e00370093027800e88052000e0037002c
:1053200093027800e4805200810978001102be00e7
:105330006033b800150037009380e90081097800d8
:1053400011027800cfa2de00612bb9000f003700f8
:1053500013037800e8005300810978003102be0091
:105360002103be00090037009380e9000200e0003d
:1053700002003200f1ff37009380e90081097800d4
:10538000110278008002eb006033b8000498be0080
:105390000690be0010000500000005004408200033
:1053a000848f5000270032000a003c0014082000bf
:1053b000848f50001c00320024082000848f50008d
:1053c0002600320004082000848f50002c003a0090
:1053d0001c00370004092000848f50001f00320099
:1053e00004003c0084082000848f500024003a0010
:1053f00007003700040a2000848f5000110032009b
:10540000040c2000848f50001d003a000600370075
:105410009380e90081097800910078000108780004
:1054200082487800150037009380e90081097800f0
:105430009100780001087800cf91de008288be00dc
:105440000e0037009380e900810978009100780010
:105450000108780082087800080037009380e9008e
:105460008109780091007800010878006112b90084
:10547000612bb9008498be008690be001000050024
:1054800000000500000006007cf90700fdff070092
:10549000fcff37000101780080017800008268007d
:1054a0000408a300050032001300370032407800e2
:1054b000805978000004e0001400320003027800f4
:1054c0000208a300f9ff3a0003007800010037004a
:1054d0000318780082007800b2017800f5ef2f0001
:1054e000838242000382ea000482620005082800e9
:1054f00005026200f6ff32000002780031417800b8
:10550000025878000204e000fbff3a000400780033
:10551000000006008f1fd100a20207008f87e9005c
:105520000000e0000000060081037800e9ec0700bd
:105530000001be006000b8000478a30013003a0028
:105540006220e10015003e000d0039008301d1000a
:105550000281d3008180d3008301d1000281d30076
:105560008180d3008301d1000281d3008180d300e8
:105570000538b000c42add00f300b2008381720058
:1055800007f0a70003f0a0000000060083ff27003b
:10559000020020006110b900f9ff370003ff270067
:1055a000f7ff3700f4ff2f0034f037001400fa0043
:1055b000889fbe008a9fbe008c9fbe000004be0074
:1055c0000205be00680047000a90be000890be00b9
:1055d000af0207000070a7000bf0a10030432000cd
:1055e0009e02900080825200b0fe2f000028e10051
:1055f00011003d00b0fc2f000028e1001500340030
:105600001e0990008e0890007e0090000501b000f9
:105610000201d1008180d3000080d3008502e80020
:10562000fbff3a000b00e000d4023b0060001000da
:10563000e0801800d1023700f0ff2f00f1ff2700b3
:105640000b00e000cd023b0001002800000020001c
:10565000ca0237006000b800c80237001400fa0020
