:020000040000fa
:080000000001040000000000f3
:020000040000fa
:0400080018020000da
:020000040000fa
:04000c005a02000094
:020000040000fa
:040010009a02000050
:020000040000fa
:0400140038020000ae
:020000040000fa
:040018007a02000068
:020000040000fa
:04001c009803000045
:020000040000fa
:040020009803000041
:020000040000fa
:04002400980300003d
:020000040000fa
:040028009803000039
:020000040000fa
:04002c009803000035
:020000040000fa
:040030009803000031
:020000040000fa
:04003400980300002d
:020000040000fa
:040038009803000029
:020000040000fa
:04003c009803000025
:020000040000fa
:040040009803000021
:020000040000fa
:04004400980300001d
:020000040000fa
:040048009803000019
:020000040000fa
:04004c009803000015
:020000040000fa
:040050009803000011
:020000040000fa
:04005400160300008f
:020000040000fa
:04005800ba020000e8
:020000040000fa
:04005c009803000005
:020000040000fa
:040060009803000001
:020000040000fa
:0400640098030000fd
:020000040000fa
:0400680098030000f9
:020000040000fa
:04006c0098030000f5
:020000040000fa
:0400700098030000f1
:020000040000fa
:0400740098030000ed
:020000040000fa
:0400780098030000e9
:020000040000fa
:04007c0098030000e5
:020000040000fa
:0400800098030000e1
:020000040000fa
:0400840098030000dd
:020000040000fa
:0400880098030000d9
:020000040000fa
:04008c0098030000d5
:020000040000fa
:0400900098030000d1
:020000040000fa
:0400940098030000cd
:020000040000fa
:0400980098030000c9
:020000040000fa
:04009c0098030000c5
:020000040000fa
:0400a00098030000c1
:020000040000fa
:0400a40098030000bd
:020000040000fa
:0400a80098030000b9
:020000040000fa
:0400ac0098030000b5
:020000040000fa
:0400b00098030000b1
:020000040000fa
:0400b40098030000ad
:020000040000fa
:0400b80098030000a9
:020000040000fa
:0400bc0098030000a5
:020000040000fa
:0400c00098030000a1
:020000040000fa
:0400c400980300009d
:020000040000fa
:0400c8009803000099
:020000040000fa
:0400cc009803000095
:020000040000fa
:0400d0009803000091
:020000040000fa
:0400d400980300008d
:020000040000fa
:0400d8009803000089
:020000040000fa
:0400dc009803000085
:020000040000fa
:0400e0009803000081
:020000040000fa
:0400e400980300007d
:020000040000fa
:0400e8009803000079
:020000040000fa
:0400ec009803000075
:020000040000fa
:0400f0009803000071
:020000040000fa
:0400f400980300006d
:020000040000fa
:0400f8009803000069
:020000040000fa
:0400fc009803000065
:020000040000fa
:040100009803000060
:020000040000fa
:04010400980300005c
:020000040000fa
:040108009803000058
:020000040000fa
:04010c009803000054
:020000040000fa
:040110009803000050
:020000040000fa
:04011400980300004c
:020000040000fa
:040118009803000048
:020000040000fa
:04011c009803000044
:020000040000fa
:040120009803000040
:020000040000fa
:04012400980300003c
:020000040000fa
:040128009803000038
:020000040000fa
:04012c00820300004a
:020000040000fa
:040130009803000030
:020000040000fa
:04013400980300002c
:020000040000fa
:040138009803000028
:020000040000fa
:04013c009803000024
:020000040000fa
:040140009803000020
:020000040000fa
:04014400980300001c
:020000040000fa
:040148009803000018
:020000040000fa
:04014c009803000014
:020000040000fa
:040150009803000010
:020000040000fa
:04015400980300000c
:020000040000fa
:040158009803000008
:020000040000fa
:04015c009803000004
:020000040000fa
:040160009803000000
:020000040000fa
:0401640098030000fc
:020000040000fa
:0401680098030000f8
:020000040000fa
:04016c0098030000f4
:020000040000fa
:0401700098030000f0
:020000040000fa
:0401740098030000ec
:020000040000fa
:0401780098030000e8
:020000040000fa
:04017c0098030000e4
:020000040000fa
:0401800098030000e0
:020000040000fa
:0401840098030000dc
:020000040000fa
:0401880098030000d8
:020000040000fa
:04018c0098030000d4
:020000040000fa
:0401900098030000d0
:020000040000fa
:0401940098030000cc
:020000040000fa
:0401980098030000c8
:020000040000fa
:04019c0098030000c4
:020000040000fa
:0401a00098030000c0
:020000040000fa
:0401a40098030000bc
:020000040000fa
:0401a80098030000b8
:020000040000fa
:0401ac0098030000b4
:020000040000fa
:0401b00098030000b0
:020000040000fa
:0401b40098030000ac
:020000040000fa
:0401b80098030000a8
:020000040000fa
:0401bc0098030000a4
:020000040000fa
:0401c00098030000a0
:020000040000fa
:0401c400980300009c
:020000040000fa
:0401c8009803000098
:020000040000fa
:0401cc009803000094
:020000040000fa
:0401d0009803000090
:020000040000fa
:0401d400980300008c
:020000040000fa
:0401d8009803000088
:020000040000fa
:0401dc009803000084
:020000040000fa
:0401e0009803000080
:020000040000fa
:0401e400980300007c
:020000040000fa
:0401e8009803000078
:020000040000fa
:0401ec009803000074
:020000040000fa
:0401f0009803000070
:020000040000fa
:0401f400980300006c
:020000040000fa
:0401f8009803000068
:020000040000fa
:0401fc009803000064
:020000040000fa
:100200002f9320000e7f24000e01880000000000c4
:10021000000020000000e000020032000001200089
:100220002002880014000700680107000000e000b9
:1002300003003a00203d23000100200002003700a7
:100240000000200001002000810f7000010032003a
:1002500014000700000020000000e000020032004f
:100260000000020000000000242d02000000000039
:100270000040da000000fe004440a9008000200099
:100280000000e00003003200002020009001880000
:100290004440a800000006008a1f78008b1f7800e9
:1002a00000000600a1028800800478000000eb0036
:1002b0001f003700e284440054a0b4009905ba003e
:1002c000e284440054a0b4009906ba00e2844400d9
:1002d00054a0b4000006eb00476fde00fd07b2003b
:1002e000ae018800636ce10003003a00eaff0700fa
:1002f0000000eb000e003700606ce10008003a00df
:10030000004deb000a05e800020039003420ec0043
:100310000af0a0008b05e900f9ff3e000400370059
:100320006168e100010032000086eb000b0007006d
:1003300019c7ba001905ba000e04e00003003a001c
:100340000a00e000dbff3a0000000600fe07b200f2
:10035000ae0288008a047800f5ff37000cd0a300b5
:10036000e20f4d001c00390089027800354dba00bb
:100370000a05e800020039003420ec000af0a00071
:100380008b05e9000f003200254dba000a05e80090
:10039000020039003420ec000af0a0008b05e900cf
:1003a000080032000c00e0000600320015cdba0053
:1003b0000a05e800020039003420ec000af0a00031
:1003c0008b05e9008984e80054a0b4000b00e0002c
:1003d000e2ff3a00000006009902ba00055d7800cd
:1003e0008b05e900f7ff3200c82ade00055d7800c2
:1003f0008b05e900f3ff32000c00e000f1ff320052
:1004000019ddba00eeff3700000000000000000018
:1004100000000000000000000000000000000000dc
:1004200000000000000000000000000000000000cc
:100430003600f800809fbe00829fbe00849fbe00f1
:10044000869fbe000000fa008020a9000000eb009b
:10045000b61907000080fa004f03be004f02be002d
:100460004f01be004f00be003600f90000400600fc
:100470003600f800809fbe00829fbe00849fbe00b1
:10048000869fbe000000fa00ad1907008040a90059
:1004900010002000a51907000080fa004f03be00dd
:1004a0004f02be004f01be004f00be003600f900f3
:1004b000004006003600f800809fbe00829fbe000c
:1004c000849fbe00869fbe000000fa008060a900e5
:1004d00020002000951907000080fa004f03be009d
:1004e0004f02be004f01be004f00be003600f900b3
:1004f000004006003600f800809fbe00829fbe00cc
:10050000849fbe00869fbe000000fa008080a90084
:1005100030002000851907000080fa004f03be005c
:100520004f02be004f01be004f00be003600f90072
:10053000004006003600f800809fbe00829fbe008b
:10054000849fbe00869fbe000000fa008600a900be
:1005500070002000751907000080fa004f03be00ec
:100560004f02be004f01be004f00be003600f90032
:10057000004006003600f800809fbe00829fbe004b
:10058000849fbe00869fbe000000fa00c04180002c
:1005900000000100a141800090418000808f500048
:1005a00002003a009980a900190037008980a9004b
:1005b00010003700a0418000904078008180fb004f
:1005c000e11c88000000e800a0418800a1418000f3
:1005d00070912000808f500002003a00e0902000cf
:1005e000a0418800a141800090418000808f500090
:1005f00006003200d11c8000002020000080600036
:100600000000e000ebff32000100370000000000b6
:100610000080fa004f03be004f02be004f01be0033
:100620004f00be003600f900004006003600f8001a
:10063000809fbe00829fbe00849fbe00869fbe003a
:100640000000fa00d0418000000001008960a9008c
:100650002100370070418000f11c8000814078004b
:1006600001487800704180001040780000e8b70031
:1006700071418000f0912000808f5000090032000d
:10068000704180008000e80080418000808f500031
:1006900004003200704180000000e80070418800d2
:1006a0000d00370071418000f0912000808f5000d4
:1006b00007003a008141800070912000808f500037
:1006c0000300320070912000704188000200370062
:1006d00010c0b30036e8b700d01c80006100600095
:1006e0000000e000dbff3a000080fa004f03be008c
:1006f0004f02be004f01be004f00be003600f900a1
:1007000000400600801f78000000fa00d01c800026
:10071000620060000000e000010032009a23a9009e
:100720009020a9000080fa004f00780000400600e9
:100730000040da000000fe000a00fa00110020006c
:10074000b1bf9f00c0bf9f006a8057009e0f070087
:100750004fb897000080fa00000006000a00fa0077
:10076000200798003107980042079800be009000cb
:10077000110798000000eb00000f78000c00370014
:10078000000000002e1607000004a2000004e00094
:10079000fcff3a001e009000104078009e00900080
:1007a0008100e80011079800051607001e0fe800f9
:1007b0004e0090009e007800808f5000f0ff3900be
:1007c0004e0090000080fa000000060000000500c6
:1007d0001400200090033700f4ff2f008e03370031
:1007e0000001be00220007000470a70003f0a10072
:1007f0006509b100160032000d0035006828e100df
:1008000006003500f0ff2f00f1ff27000300e00095
:1008100013003b000100280000000500000040001c
:10082000818048008502e900fcff3a00080037009b
:10083000f88f420002003c008000eb000000050041
:100840008100d1000080d3008502e800fcff3a005f
:100850000300e00002003b0060001000e080180090
:10086000000006004f89de00820178008503370012
:10087000c70ade00f107b200f50fb200080032002f
:10088000e1cf4200020032000170a0002400050008
:10089000810f7000010032000408050044000500cb
:1008a000810f700002003a00140005008502e90083
:1008b0000000400081c04800fcff3b000170a00028
:1008c0002400050007f82700078361000638e100cf
:1008d00004003a00f7072000878361008703710056
:1008e00001003a0003f0a200889fbe008a9fbe006c
:1008f0008c9fbe00470ade000480a100c71ade00fc
:100900000580a10007002800078560008785610039
:10091000f70f20000720e1009e0032000728e100c9
:100920009c003200010678000400e000b4003200b0
:10093000f7072000878060000170a0000500e0003c
:10094000c0003200f7072000878161000370a0001b
:10095000050652000f003a000b50e1000b00320078
:100960000308e10002003a000200e1007e003200cc
:100970000204500083845800040031000001fd008f
:100980008101fd008402fd008a05fd006044b8007d
:10099000210037000520e10005003d000001fd00b9
:1009a0008101fd008402fd008a05fd00050652005c
:1009b0007a60e100050035000170a1004722dd00ea
:1009c000848070008a807000630037006044b80043
:1009d000ef02660007ff2f00070666000500e00033
:1009e00006003400f08312008714dd000511de00dc
:1009f000071bdd00060171008519de007060e10053
:100a000005003500090478008204780003017800ad
:100a10008001eb00700656000b50e10003003a0025
:100a20000200400083804800040037006004140086
:100a3000e0841c0002005800838058000188a30055
:100a4000060032008100d1000080d3008984d300e9
:100a50000884d3000402e800270037000178a300cf
:100a600025003a000100e000030032008186cf003b
:100a7000698656000a0037008c0020000000e00064
:100a800004003a0009007800880478000004eb00b4
:100a9000700252008086cf000d0646000c06e90069
:100aa0007060e100060035008000780009007800e1
:100ab000880478000004eb007006560070025200b3
:100ac0000c00e0000c0034008c08dd00f003160080
:100ad0000703de00868070000c00dd00074bde009f
:100ae000060070008c4cdd000743de008684740035
:100af0000c44dd000c0252006120e10020003500b2
:100b0000610160000700280087816400f7ff27006b
:100b100087836400070374000300e00006003200ce
:100b200082037300040032000000e800e080480007
:100b30000188a3000e003a00f70f20000720e10013
:100b40004a003d000170a1004722dd0081007200d3
:100b50008a8070000000be004f06be004f05be0038
:100b60004f04be00000006006000b800faff370026
:100b70008100d1000080d3000402e800eeff3700be
:100b80000401780089017400a10107008a807000c7
:100b9000f1ff3700f7010700070278000001fd00b0
:100ba0008101fd00f30107008702780085037200d0
:100bb0000778a300040032000001fd008101fd0060
:100bc00006020700e4ff3700850362000768a30000
:100bd000080032000b50e10003003200f0ff2f004c
:100be000f1ff2700dcff37000001fd008101fd005f
:100bf000d9ff37000468a300d7ff3200faff37009f
:100c0000f8ff2700888360000b003a000000e00036
:100c100009003a00830364008283730002003200fb
:100c20000200be00ccff37000b50e100ceff3a00bf
:100c30000200be00c8ff37001400200081006400dd
:100c40003eff3700f8ff27008883610004003a0068
:100c50000200e00002003a008c007800beff37007e
:100c6000150020008301640039ff370001f82700d8
:100c70000000200081007500b7ff3700889fbe008c
:100c80008a9fbe008c9fbe001b0020000202be0097
:100c90000586680006002800060666004709de0093
:100ca000f20fb200820032000243e80080003200fe
:100cb000c729de00f30fb2007d0032000343e800d5
:100cc0007b003200f107b2000170a000f507b2000e
:100cd0000570a000c708dd004903de0086807000b3
:100ce0004700dd00c72add004923de00868272004e
:100cf0004722dd000305510004035000858358009e
:100d00000300310000004000818048000a05e9002e
:100d10008c1f78008a9fbe00040050008580580018
:100d20000402420085824a000000400081804800a1
:100d30000005eb000004be006033b8000406be00ee
:100d40000d48e10056003100110009004dccd800db
:100d50000c01b8000d02b8008481410060824a0095
:100d60008283530003045c0084845c0060055d00a2
:100d70000a00e00025003a00800578000d40e100ff
:100d80004900310088007800070078001100090050
:100d90004d88d8000c01b8000d02b80084814100d4
:100da00060824a006003110083835b0004045c00de
:100db000e0845c000900e00021003a004f01be0021
:100dc0000300e0002b003200e3016000070673001f
:100dd0008c81710001003200640070004200de006e
:100de0004e5edd000c007000c258de0001e0a00085
:100df00083010700cf017800818071004f06be009b
:100e00004f05be004f04be00000006008c83430067
:100e10000d044c00e0844c0060054d000000e9002a
:100e20000a00e000d4ff32008c8343000d044c0024
:100e3000e0844c0060054d000000e900ceff370063
:100e40000c0343008d834b0060044c00e0844c0095
:100e50000000e9000900e000d8ff32000c03430065
:100e60008d834b0060044c00e0844c000000e900de
:100e7000d2ff37004200de004e5edd000c00700045
:100e8000c258de0001e0a000cf0178000300e000be
:100e9000daff320060001000e0801800d7ff370052
:100ea000f0ff2f00aaff3700f0ff2f00b9ff370037
:100eb0000404be002f010700870678000004fd002f
:100ec0008104fd002b010700078366000678a3005c
:100ed000030032000960a7000800be002c003700a4
:100ee0000d78a300020032000800be002800370081
:100ef0000778a30026003a0001f0a10009f0a10044
:100f00000668a30003003200f1ff2700f0ff2f0066
:100f1000baff37000d68a300030032000800be00ce
:100f20008c807000b5ff37000768a30007003a0007
:100f30000648a30003003200f1ff2700f0ff2f0056
:100f4000aeff37000d48a300030032006000b80078
:100f50008c807000a9ff37000748a300040032000e
:100f600001f82700000020008c807000a3ff3700ec
:100f7000760107000004fd008104fd0002057800f1
:100f8000720107000802be008a01780059ff37008d
:100f90000160a00012022000f241880097ff370094
:100fa0000100e000120032000500e00010003200f5
:100fb000889fbe008a9fbe008c9fbe000006eb008b
:100fc00001f8a3000300320060001000e080180068
:100fd0000cf0a00005f8a30003003200600212002c
:100fe000e0821a000cf0a2008005eb0041ff370000
:100ff0006000b800020005000383680007002800b5
:1010000007036300470ade000480a100c71ade0060
:101010000580a100f70f20000720e1004200320008
:101020000728e10040003200889fbe008a9fbe0072
:101030008c1f7800f107b200f307b2000400e00053
:10104000640032000170a0000500e000680032007a
:101050000370a00085054200eb07b1000204b80050
:101060000302b8008484440060854a00020ab80084
:10107000848444000a854a00030ab8000405450038
:10108000040033000804d0008984d2000a85d2000d
:101090008b05e9006158e1003d0035000210200099
:1010a000090161000308200089816100f707200021
:1010b0008783640008867300c84cde00c853dd00d7
:1010c000878474004855de000300e000060032000b
:1010d00082037600040032008904e80060054d00b8
:1010e0000a88a3000c003a00f70f20000758e1001f
:1010f00044003d000a70a100c75ddd000a8575004f
:101100008a007300090078004f0678004f05be0082
:101110004f04be00000006000a05d1008984d300f8
:101120008b05e800f0ff3700881f78000604780080
:1011300090000700070278000001fd008101fd001a
:101140008c00070087027800850372000778a300ef
:10115000050032000001fd008101fd009f00070035
:101160004f04780000000600850372000748a300c2
:1011700003003200f0ff2f00f1ff2700f8ff3700d7
:101180000000200001f8270088807000f4ff37007d
:10119000880178004848dd00808171004848de0001
:1011a000c850dd0001007000c850de000604780061
:1011b0000b0178001600070088807000d2ff37000e
:1011c0000500e00005003200170020003a0007008b
:1011d0009dff370081037000f9ff3a008600780018
:1011e0004f0678004f05be004f04be00000005000a
:1011f00083037100f9ff3200270020002e00070052
:1012000094ff370001f8270086807000f4ff370054
:101210000100e00026003200610111007810e100b9
:1012200023003c006022b8007010e100040035008b
:1012300080027800010078008000eb00700151000e
:101240000200e0000900340070031100062add00ee
:10125000822ade008603dd00878272000200de0043
:10126000860bdd00070070008208de0084817100bb
:10127000f4ff2700048262008481710004002800ca
:10128000848262006102600005f0a6000000060092
:1012900004827100070032000000e800e08048008e
:1012a000000006000002be006000b800efff37003b
:1012b0006000b80000000600889fbe000004eb003c
:1012c0006138e10016003a000100e00008003a0031
:1012d000c800de004800dd00880020000100e000ba
:1012e00003003a00c800de004800dd006804440046
:1012f0008184cf00e9845400060034008908dd00b1
:10130000f08314008703de00878070000900dd0091
:1013100009044400610214004f04be0000000600ee
:101320000300e00008003a00c811de004811dd00ab
:10133000880020000300e00003003a00c811de002e
:101340004811dd00680444008384cf00e984540020
:10135000060034008919dd00f08314008713de00d5
:10136000878171000911dd0009044400e1021400c5
:10137000e9ff37002700200001f0a7001700200038
:10138000470bde00f60fb200040032000643e8000f
:101390000a0032004702b300000006000103780093
:1013a000f607b2000603700002003a000703b3001c
:1013b000000006008702b300000006000103780069
:1013c000f607b20006037000020032000770a000aa
:1013d000000006000760a000000006000478a300db
:1013e000040032000578a300030032000168a30066
:1013f00001003a000200be000160a00000000600eb
:1014000081017000270032008002eb0001f8a30088
:101410000300320060001000e0801800150020007a
:10142000f40720000202420020003400f7032000ed
:101430008703600006042000000363000208200008
:10144000000161004700de00c909dd000080710075
:10145000c708de000600e0000800320087037100c4
:10146000060032001000b0000180b0000188a30027
:1014700002003200c108de000402e800f107b200f9
:10148000f30f20000320e10003003d004722dd00b0
:10149000810072002900370001f827000000eb00ee
:1014a000260037006000b800000006006802120045
:1014b0007f20e100020034006000b8001f00370008
:1014c0006011b8007020e100040035008001780050
:1014d000010078008000eb00700252000400e00080
:1014e00009003400f00312000719dd008419de0042
:1014f0000703dd00868171000400de00070bdd00bc
:10150000060070008408de00f7ff27008383630075
:101510008703710006002800030363000700320000
:101520000700e00003003a006101600002817300df
:10153000020032001000b0000180b0000500a600db
:101540000000060001f0a000000006004f0ade00c7
:101550004709de00f107b200f20fb2000b003200c3
:10156000f207b1000170a000c708dd00c901de006c
:10157000838070004700dd000400a6000000060024
:1015800060001000e080180000000600810f70006d
:1015900001003a00000006008182cf000500e00053
:1015a00010003e008082cf00ee8242007028e100f1
:1015b0000400390007003e00800078000000eb00c6
:1015c0000e003700708312008600de000500dd008b
:1015d0000a003700708352008600dd000000eb0037
:1015e00006003700e28252008508dd007083120099
:1015f0000603de00868070000500dd007507b00080
:101600000501ea000400a6000000060060001000ca
:10161000e080180000000600889fbe008a9fbe0080
:10162000841f78007c0007004f0078001100330011
:10163000f0ff2f00838f6c0006003b00040565005f
:101640000a00a7000800370009f0a60010002000db
:1016500008003700820f5400838f5c0003003900bc
:101660001000200001003e000000200009f0a7004b
:101670000000ea004f05be004f04be000000e0007d
:1016800000000600881f7800030478000300e000d3
:1016900007003d0060001000e080180060011900a4
:1016a000e081190002003b0001f02d00030037002b
:1016b0000400070008f0a70001f0a0004f04780024
:1016c00000000600889fbe008a9fbe000082700056
:1016d0000402710004827100260032000004be0082
:1016e0000200be006011b8006b09200095022000c6
:1016f0000182cf000a0039000541b1000082cf000d
:10170000070039000541b1000982cf00040039000b
:101710000541b1000882cf00010039000541b10048
:1017200005425200120032000a003b008281710023
:10173000610164008100d1000080d3008984d3005e
:101740000884d3008b05e8000442e800f7ff3a0064
:10175000070037000804440089844c00000048005a
:10176000818048008b05e9000442e900f9ff3a0056
:10177000030007004f05be004f04be000000060036
:1017800081002000618055000b003d000b0020000f
:1017900061fe2f000100e1001d0034008281710014
:1017a000610164008904d1000884d3000000e800ce
:1017b000faff3a007100200061006400030070002d
:1017c000020060000900320061044400e0844c0023
:1017d0000988a500050032008b05e8006808e100d3
:1017e00002003a008904d1000884d300f20f2000df
:1017f0000258e10005003d00c75ddd00f907b200b9
:101800008980750008007800000006000bf82700aa
:101810008b007800000005000004be0014fc0700e7
:101820000003be000405be000200be0010fc07005d
:10183000844f750000000600889fbe008a9fbe008e
:101840000004be00b2362d00d3c02b00eafd070015
:10185000a23b2100f3d223001afc07000001be00c6
:101860000800be00e4fd070052a72a00a3e22300ff
:101870001dfc07000001be000800be00defd0700e1
:101880000005be00e25a2e0043f32b000800be0004
:10189000d9fd07000200200003f8230012fc070016
:1018a0000001be000a00be00f4fc07004f05be00a8
:1018b0004f04be0000000600889fbe008a9fbe0045
:1018c0008c9fbe000004be000005be008b007800a7
:1018d00001f0a10008007800f2ff2f00f3f72300c9
:1018e000820f5000838f580016003600020020003f
:1018f00003f82300820f5000838f580007003a003e
:10190000b2fd200093fc23000800be00bafd0700d2
:1019100002002000033820002100370010022000c0
:10192000804988000801be000800be00e5fb0700f2
:101930000001be006000b800d0fc07000004be003b
:1019400038003700f2ff2f00f3ef2300820f500022
:10195000838f580014003e000200200003f82f007f
:101960000000410081804900f2ff2f00f38f230027
:10197000820f5000838f58002a0036000801be00f5
:101980000800be009cfd0700abff07000001be0081
:101990000800be0098fd07000001be000800be0060
:1019a000d1fb0700e5ff37000800be00f900070083
:1019b0000001be000000200001f82300c1fb070069
:1019c0000200200003f023008bfd07000006be008c
:1019d000f50007000004be000c00be0096ff0700e3
:1019e0000001be000800be0083fd07000001be002c
:1019f0000800be00bcfb07000001be00bafb0700e8
:101a00000001be00b0fd200091fc2300adfb0700eb
:101a10000004be00e00f5500e08f5d0001003d00b6
:101a200009f0a2000800be004f06be004f05be0030
:101a30004f04be0000000600000006000c00fa0083
:101a4000889fbe008a9fbe008c9fbe000004be001f
:101a50004f09de0003002000e2b79f00f3b79f00ac
:101a6000810678000df0a10000067800f0ff2f003d
:101a7000f1c72400800f5600818f5e0010003600f1
:101a80000800be00ecff07008101780003f0a10010
:101a9000000178000000200001f82700800f5100ad
:101aa000818f5900b5003e0002002000033820005d
:101ab000a0fd200091fc23008bfb0700a60037004f
:101ac000f0ff2f00f1ed2300800f5600818f5e00a4
:101ad00011003e000085eb00f0ff2f00f19723007e
:101ae000800f5600818f5e0055003e00f0ff2f00f2
:101af000f1072000800f5600818f5e009f003e009e
:101b00000801be000800be003bfd0700c0b79f00f3
:101b1000d1b79f00990037000800be009d00070064
:101b20000004be00f0ff2f0071f92300800f560063
:101b3000818f5e0025003e00f0ff2f00f1f22300b0
:101b4000800f5600818f5e0011003e000801be002c
:101b50000800be0064fb07000200200003f8230019
:101b600058fb07000005be0002002000030024000f
:101b70000800be005cfb07000001be000a00be00ba
:101b80003efc07000004be000005eb002c003700ff
:101b90000200200003f823000800be0049fb0700f4
:101ba0000005be000200200003f823000800be006c
:101bb0004dfb07000001be000a00be002ffc07001d
:101bc0000004be001a0020001d003700f0ff2f00a7
:101bd000b1012400800f5600818f5e0012003e008c
:101be0000200200003fc23000800be0035fb0700b4
:101bf0000005be000200200003fc23000800be0018
:101c0000fdfc07000200200003f8230036fb07005c
:101c10000001be000a00be0018fc07000004be0060
:101c20002a002000060037000801be000000200046
:101c300001f82b0011fc07000004be003a00200050
:101c40000801be000800be00ebfc07000002be0059
:101c50000001be0084bf9f0095bf9f00e6fc070007
:101c60000006be0052c22a00c3d72300e2fc0700d0
:101c7000d2502f0013e123001bfb07000001be0020
:101c80000c00be00dcfc070092aa2a00a3ea230095
:101c900015fb07000001be000fba97009fba97001e
:101ca0000400be00d4fc07000002be007224210024
:101cb000a3dd2b000c00be0084bf9f0095bf9f00da
:101cc000cdfc070082a92c00c3e42300fdfa070025
:101cd0000001be000c00be00c7fc07000001be00f2
:101ce0000fba97009fba9700e10f450009003a002c
:101cf0000400be00fcfa07000001be000800be00a0
:101d0000bdfc07000001be000800be00edfa0700a0
:101d1000190037004255dd000c8d20000a064600f0
:101d20000400be00f0fa07000001be000800be007b
:101d3000b1fc0700028e20000a0541001a01be0016
:101d4000e0fa07000801be00defa07000001be004d
:101d50001c00be00dbfa07006fb19700ffb19700cf
:101d6000e00f5100e08f5900030032000004be0074
:101d700009f0a200010037000004be000800be0008
:101d80004f06be004f05be004f04be000080fa00a3
:101d9000000006000001be008300780001f0a100f1
:101da00002007800000006002800fa00889fbe00ac
:101db0008a9fbe008c9fbe000004be000e0a070072
:101dc0000203be000002be00c0b79f00d1b79f0053
:101dd000e2b79f00f3b79f000602be000600200096
:101de00007ff27008786620006067800860f5600e8
:101df000878f5e0007003a000801be000800be00a1
:101e00007dfc07000001be000800be00b6fa070016
:101e1000310137004fb39700dfb39700e00f520056
:101e2000e08f5a0013003c008501780003f0a10008
:101e3000040178000601710087817100e00f5100f4
:101e4000e08f590025013200e00f5200e08f5a0068
:101e50000800320010022000804988000801be00fe
:101e60000800be0097fa07000001be0083fb0700d0
:101e70001901370044a8de00cfa8de00e00f5000b3
:101e8000e08f58002e003a0008003700750050001f
:101e9000e0805800453cdd004b32de000402740057
:101ea000cb3ade00c533dd0006002000e00f520013
:101eb000e08f5a00f5ff32006011b80004003700cf
:101ec0000402420085824a0061014100e08149002c
:101ed00008002000090120008585640008057800bd
:101ee000e00f5500e08f5d00f5ff3200610040001b
:101ef000e080480002005000838058000802200063
:101f0000020454000605be00080678000c06e9002d
:101f1000030033008b05d1000a85d300fbff370097
:101f20000402750085827500820678008d06e9003e
:101f3000030033000603430087834b00fbff370099
:101f4000f03fb1000180b100ef8162000401780030
:101f50000340a0000008a3000c0032000201410071
:101f6000838149000800200009002800878264005e
:101f7000080278004f2ade0005002000020142001e
:101f800083814a000603430087834b008182d1008e
:101f90000082d30084af9f0095af9f0002014100f3
:101fa0008381490008002000090028008780640020
:101fb000080078004f08de00010020000201400008
:101fc000838148000600430087804b006c0120009d
:101fd00006002000070220006044b8006022b8001c
:101fe00088bf9f0099bf9f00eca79f000405430096
:101ff00085854b00820f5500838f5d000a003c00f1
:102000000a0243008b824b000a0151008b81590068
:102010000fbe97009fbe97000c0643008d864b00b5
:102020008cbf9f009dbf9f00020441008384490034
:10203000c8b79f00d9b79f000a0020000b002800f6
:1020400081846500b9b79f00aab79f002fb19700a0
:10205000bfb197004f19de0003002000e2af9f00e0
:10206000f3af9f004fb49700dfb497000801410021
:102070008981490000004000818048008703d10029
:102080000683d300efa697008d06e900eda79f0019
:10209000d6ff3a000fbc97009fbc97006033b80092
:1020a000a6b79f00b7b79f00cab79f00dbb79f00d6
:1020b0000c022000e8a79f00f9a79f00e6af9f0051
:1020c000f7af9f004fb59700dfb597002fb397008c
:1020d000bfb397000a0443008b844b00820f520069
:1020e000838f5a000400350034003a00800f5400fa
:1020f000818f5c0030003e004fb59700dfb5970040
:102100000805450089854d00aab79f00bbb79f0011
:102110000a0020000b0028000983650096b79f0085
:102120008ab79f000fb397009fb397008a0f5300a1
:102130008b8f5b000c003a00bfb39700878365006c
:10214000d7af9f00c6af9f004fad9700dfad9700a0
:10215000e00f5500e08f5d0003003a00610342008c
:10216000e0834a00010037000403be00040151006f
:1021700085815900880f5000898f58000200310076
:1021800061015100e0815900080050008980580029
:102190006faa9700ffaa97004fb49700dfb497008b
:1021a0000402440085824c00e4af9f00f5af9f001d
:1021b0000602be00010037000401be00020141001a
:1021c0008381490006002000070028008184630005
:1021d000b9af9f0006057800aaaf9f002fac97000b
:1021e000bfac97004f4bde00070020000201430008
:1021f00083814b0000004000818048004fb597006c
:10220000dfb597008b05d1000a85d300cab79f00c0
:10221000dbb79f000c06e900aaff3a006fa4970005
:10222000ffa497006fab9700ffab97000001710010
:1022300081817100e00f5100e08f59000b003200e6
:10224000e10f4300e08f4b0004003a0061044400ba
:10225000e0844c006033b800040037006000b80030
:10226000610063000003430081834b008985d10036
:102270000885d3008701d1000681d3000808a30098
:102280000100320003f0a0000fae97009fae970050
:10229000c460dd00000020000400200005fe2300d3
:1022a0000000420081804a000002450081824d000a
:1022b0004fabde00860378000403be006022b80046
:1022c00004027100858271000603be000400be0096
:1022d0000601be003c0907000004be000800be0065
:1022e0004f06be004f05be004f04be000080fa003e
:1022f00000000600889fbe008a9fbe008c9fbe0023
:102300000004be000400200005f82700858360005b
:1023100004037800840f5300858f5b0007003a00a8
:102320000801be000800be0033fb07000001be002c
:102330000800be006cf9070010003700e00f5000e5
:10234000e08f58000f003c008101780003f0a100ed
:1023500000017800e00f5100e08f59006a00320060
:1023600010022000804988000801be000800be005d
:1023700054f907000001be0040fa07000004be0047
:1023800061003700478cde00cf8cde00e00f540088
:10239000e08f5c000f003a006044b8000400370092
:1023a000000040008180480061044400e0844c004b
:1023b00004002000050820008181620004017800eb
:1023c000e00f5100e08f5900f5ff32006104140066
:1023d000e0841c00f807b1000980b1008101780099
:1023e000f307b200000178000200be000170a000f7
:1023f0000808a3000200320000004000818048006d
:102400008984d1000884d300000040008180480006
:102410009401200002002000031020006055b80045
:102420006066b8000c0341008d834900800f5300a3
:10243000818f5b0006003c0006064100878649004c
:1024400006005000878058000a0541008b8549002e
:1024500000004000818048008301d1000281d30048
:102460000402e900efff3a00e00f5000e08f58004f
:102470001b0032000226240023da20000000200086
:1024800001f823000ff907000200200003f82300e1
:10249000d1f807000000e0001100350002262400fa
:1024a00023da20000000200001f823000ef90700c5
:1024b0000200200003f82300c7f807000000e00036
:1024c0000300340062054500e0854d00040037003c
:1024d0006000b800610065000005450081854d0081
:1024e000c744dd00080020000000200001f02300a8
:1024f00008044000898448008b85d1000a85d300f8
:102500000804450089844d000800be004f06be0047
:102510004f05be004f04be00000006000800fa0090
:10252000889fbe000004be000001be00830078004a
:1025300001f0a10008007800a4fd200095f423001c
:10254000840f5000858f580019003e00f2ff2f00c5
:10255000f3972300820f5000838f580011003e0034
:10256000f2ff2f00f3072000820f5000838f5800e6
:1025700005003e0002002000033820000800be00d5
:102580009dfa0700040037000200200003b827006e
:102590000800be00d4f80700c0bf9f00d1bf9f0055
:1025a000540037000001eb000800be004f00370068
:1025b0004f49de0003002000143d2500b50724002c
:1025c000840f5000858f580015003e0034be2c004b
:1025d00065012400840f5000858f580008003e00dc
:1025e0000200e00003003200b2fd200093fc230053
:1025f00019003700b2fd200093fc23001b003700b8
:102600000200e00003003200b2fd20009304240029
:102610001e003700b2fd2000930424002000370084
:10262000541d2300250e2400840f5000858f580070
:102630001f003e00f4dd2e00f50a2400840f500038
:10264000858f58000d003e000200e00005003200ba
:1026500042be2c00630924000800be00a2f8070057
:102660000400370042be2c00630924000800be00ad
:1026700094f80700120020001c0037000200e00060
:1026800005003200b2fd2000930c24000800be00bb
:1026900095f8070004003700b2fd2000930c2400d9
:1026a0000800be0087f807000001eb000f003700ac
:1026b000f2ff2f00f3f72700820f5000838f58009e
:1026c000040036000801be000800be007df80700c7
:1026d000070037006c8157000800be0009000700a2
:1026e000610160002fb89700bfb897005e00070037
:1026f0000004be000800be004f04be000080fa00c7
:10270000000006000800fa00889fbe008a9fbe00f5
:102710008c9fbe000005be00020478000001be00d0
:102720008300780001f0a1000a007800a2fd2000db
:1027300093dc2400820f5000838f58001d003e0060
:1027400032982f0023f223000a00be002afa070065
:102750000200200003b4240063f8070002002000f8
:1027600003b4240057f807000006be001cf8070059
:1027700080047800a2fd200093fc23000c00be0022
:102780001dfa07000001be000a00be004df8070058
:102790000005be00325a2800832823000c00be002a
:1027a00015fa07000001be000a00be0045f8070048
:1027b00026003700f2ff2f00f3f72700820f5000aa
:1027c000838f5800060036000a01be000a00be00d2
:1027d0003cf80700008cbe008004eb001c003700b2
:1027e0000a00be00770007000005be0032982f00e7
:1027f00023f2230000fa07000200200003f0230068
:1028000039f80700c70707000203be000002be0038
:10281000e4b79f00f5b79f0086bf9f0097bf9f005a
:1028200098fb070032982f0023f2230013f90700ca
:102830000001be000a00be0022f807006000b800d8
:102840002004980031049800efb49700008cbe007b
:10285000090078004f06be004f05be004f04be00c1
:102860000080fa0000000600ee874700889fbe0047
:102870008a9fbe008c9fbe008e1f78000005be00a0
:10288000020778000001be00dbf907000004be006b
:102890000001be00d8f90700b0b79f00c1b79f0084
:1028a0000a01be000800be00d3f907000006be0002
:1028b0003fb19700cfb19700cff907000003be00ea
:1028c000d2f92e0083cc23000800be00d6b79f00ab
:1028d000e7b79f00c8f9070092642a00a3d5230038
:1028e00001f807000002be00e25c2100b3c1230032
:1028f0000800be00f4b79f0085bf9f00bef9070027
:1029000002d72e0023b42300f7f707000001be0012
:102910003fb09700cfb09700b7f907000001be00a5
:102920007fb297008fba97000400be00eef7070051
:102930000001be005fb39700efb397000600be0032
:10294000adf907000002be00a27e290083e023004b
:102950000800be00f4b79f0085bf9f00a6f90700de
:10296000a2a62a00a3ea2300dff707000001be00a9
:102970000c00be00a0f907000001be000a00be0066
:10298000d9f707007fb297008fba97000401be0005
:10299000d5f707000e00e000040032000001be0081
:1029a0000000200001f82b00b4f807004f07780062
:1029b0004f06be004f05be004f04be00ef00b10041
:1029c000000006006022b8006033b8000002be00bc
:1029d000f0ff2f00f1ff2f00f2ff2f00f3ff270081
:1029e0000000620081806200020163008381630055
:1029f000000006000000fa0068815700cfb8970079
:102a00000042800010007800e70207000080fa0012
:102a100000000600090007000e0337000000060052
:102a20006084200000000600fdff070020428800af
:102a30001042880000000600000006004200fa0074
:102a4000889fbe008a9fbe008c9fbe002007980012
:102a5000110f9800034f980011007800400f980064
:102a600091009000610f98009e099000a3019000d2
:102a7000330f98001e0a900044029000140798003b
:102a80009e0a9000b5029000052798003204be000f
:102a90002205be006022b8006033b8000800be0006
:102aa0000a01be00ca0607000000e00003003d0066
:102ab0000bf0a200d0c2b300040037004e0b900010
:102ac0000628a30009003200b0c2b3008e23900094
:102ad000804b78003e0890000000e900700f9800dd
:102ae00011002000510f9800100037004e0990008f
:102af0000238a3000900320000c2b3008e2190000a
:102b0000804978003e0a90000402e900740f9800a2
:102b100015002000550f9800040037003e0b900070
:102b2000760f98008003eb00570f98000800be0056
:102b30000a01be00c0ff0700f4ff2f00f5ff2f00c1
:102b4000f6ff2f00f7ff2700040260008582600077
:102b500006036100878361006000b8000200200066
:102b600003ff27000020e10001a8e10002b0e1001e
:102b700003b8e10011003a000e4890008000fb000d
:102b80001104b1000e219000de0990000300410005
:102b9000f98f500002003e00019220000100370032
:102ba00041922000a805070040922000ad050700d3
:102bb0005e0a900004014000150037000020e1008b
:102bc00001a8e10002b0e10003b8e1001300360003
:102bd0008e4a90008500fb001104b1000e23900086
:102be000de0b900007004300f98f500002003e000a
:102bf0008192200001003700c19220009205070059
:102c0000c092200097050700de08900001014000f7
:102c10004e0a9000be099000500237006022b800b2
:102c20006033b8000800be000a01be006806070055
:102c30000000e0006a0032006022b80006002000b8
:102c400007ff23004417980055179800661798004f
:102c5000771798008006eb000800be000a01be004e
:102c6000001f9800111f9800221f9800331f980022
:102c70000e269000070037008d06e8000802be000f
:102c80000a03be004417980055179800661798006d
:102c9000771798006022b800060020004702240041
:102ca0004e109000de1090006e119000fe1190000a
:102cb000f60707000004be000205be000002be00c9
:102cc0000203be000e1890009e1890002e1990006e
:102cd000be1990003e0607000000e000e6ff3d0040
:102ce0000c2798000006eb004e149000de149000b4
:102cf0006e159000fe1590002500370040ed2f0066
:102d0000808f560019003d000c00e00016003a00cc
:102d10006022b80006002000073524000e1890003d
:102d20009e1890002e199000be199000d70707003a
:102d30000002be000203be00041f9800151f980089
:102d4000261f9800371f98006022b8000600200058
:102d5000073524000800be000a01be00cb070700ab
:102d60000004be000205be001c0020006022b80066
:102d700006002000470224000800be000a01be0031
:102d8000130707000004be000205be008d06e9001f
:102d90000802be000a03be000e1890009e189000a4
:102da0002e199000be199000090607000000e000ef
:102db000d2ff35000800be000a01be00401798008f
:102dc0005117980062179800731798000e1c900016
:102dd0009e1c90002e1d9000be1d90000800370024
:102de0006022b8000600200007ff23004417980067
:102df0005517980066179800771798008006eb0023
:102e00008e4a90000500fb0038050700104f98001f
:102e10006e0b9000600020000600e000010035000d
:102e20006e08900071c6b3009e4b900081cf530096
:102e30000a003a00ee0890000100e000cf013200e5
:102e4000cf0137008d0f5000d3013c00001f9800c8
:102e500052c6b300425f98001e0037009e499000a2
:102e6000435f98000200370064c6b300445f9800d7
:102e70000000e800001f980060c6b300ce5a900022
:102e800080cf520013003a000d00e00008003d0022
:102e90006000b8000200200003ff230040179800e4
:102ea0005117980062179800731798008006eb007e
:102eb00061c6b300415f980070c6b3001e49900020
:102ec000804f5100030032008e1990008d81410027
:102ed000031f98004e129000de1290006e139000b7
:102ee000fe139000441f9800551f9800661f98001d
:102ef000771f98000800be000a01be000017980066
:102f00001117980022179800331798000006eb005d
:102f10000802be000a03be00540798006507980027
:102f200076079800070f9800310037004e1a90007e
:102f3000de1a90006e1b9000fe1b90000e10900099
:102f40009e1090002e119000be119000a006070068
:102f5000f80807000004be000205be00c505070012
:102f600080027800250f98004e1a9000de1a90001b
:102f70006e1b9000fe1b90000800be000a01be0000
:102f8000420707000e1290009e1290002e13900030
:102f9000be1390003d0607000002be000203be0003
:102fa00007f0a2000417980015179800261798003c
:102fb000371798006022b80006002000470224005e
:102fc0004e189000de1890006e199000fe199000c7
:102fd0007f0607000002be000203be00441f9800e7
:102fe000551f9800661f9800771f98000c06e80090
:102ff0008e1a9000850f5600ccff35005e049000bd
:10300000ee0490007e0590008e0d90006022b800c6
:1030100006002000470124004e189000de189000a2
:103020006e199000fe199000180707000002be00fc
:103030000203be00441f9800551f9800661f9800a9
:10304000771f98000e1090009e1090002e11900097
:10305000be1190005e0507000000e0000f00350083
:103060004e1a9000de1a90006e1b9000fe1b90001e
:103070000e1090009e1090002e119000be11900036
:10308000530507000000e00011003a00ae0a90006e
:103090000508a300080032000d0037006000b800ea
:1030a0006011b800401f9800511f9800621f9800df
:1030b000731f9800060037006022b8006033b80024
:1030c000441f9800551f9800661f9800771f9800ae
:1030d0004e1a9000de1a90006e1b9000fe1b9000ae
:1030e0000800be000a01be00ee0507000002be0097
:1030f0000203be00041798001517980026179800c1
:10310000371798006022b80006002000470224000c
:103110004e109000de1090006e119000fe11900095
:10312000da0607000004be000205be000002be0071
:103130000203be000e1090009e1090002e11900011
:10314000be119000270507000000e00009003500cf
:103150008d06e80060c6b300ce5a900080cf5200c2
:1031600008003a000e1b90000603e800061f9800b6
:10317000110037004e149000de1490006e15900080
:10318000fe15900050c6b3004e599000804f51007c
:1031900009003a000802be000a03be00441f98005e
:1031a000551f9800661f9800771f98008002eb005b
:1031b00045179800070037000800be000a01be004e
:1031c000401f9800511f9800621f9800731f9800bd
:1031d0004d1798005e0e90000001eb00220f980042
:1031e00032079800520798000d0f78006a003700e8
:1031f0004e1a9000de1a90006e1b9000fe1b90008d
:103200000e1090009e1090002e119000be119000a4
:10321000ef050700470807000004be000205be00d6
:1032200014050700e90f5000010034009000200051
:10323000ce0990000348a3000c003a000000e00013
:103240000a003a0071c6b3001e4a9000814f520036
:1032500006003a00ce1290000500e00003003d0099
:103260002e0b90008606e80023003700be03900076
:103270000700e0000c003a00ce1090000100e000d2
:1032800009003d00e1c2b3000e21900001717e00f3
:103290000c06e800fe0990008301e900730f980016
:1032a00014002000340798008e2290000c81420008
:1032b000ae0e9000850178000300370001c3b30013
:1032c000015978008d06e9000d00e000fbff3a008f
:1032d000032798002e0b9000060646000043b0001e
:1032e00080717e000c06e8000680ea00fe0b90006c
:1032f00080834300770f98004e1a9000de1a9000ea
:103300006e1b9000fe1b90000800be000a01be006c
:103310005e0607000e1290009e1290002e13900081
:10332000be139000590507000002be000203be0054
:1033300007f0a200041798001517980026179800a8
:10334000371798006022b8000600200047022400ca
:103350004e189000de1890006e199000fe19900033
:103360009b0507000002be000203be00441f980038
:10337000551f9800661f9800771f9800ce12900086
:103380008502e900451798005e0390000603e800f7
:10339000560798002d0f9800de0390000e1890003d
:1033a000808f530005003d009e0890004100900072
:1033b00065005000800f56008dff39009e06780092
:1033c0003e0190000200e00007003a00ce099000a4
:1033d0000348a30004003200e0c2b3000e229000b4
:1033e00000727e000c06e8008e2290000c804200e5
:1033f0000048eb0051c6b3004e5b9000814f530074
:1034000038003a009e0390008700e9000041eb007d
:1034100082f278008001eb000d00e00002003d0028
:103420008d06ea001300200022002000010378002e
:10343000fe0a90008e239000000478000a003700f6
:1034400001037800a4002000110009008406d800c0
:1034500001027800800678000443b00084737b008a
:103460000201e9008502e9008600e9000d00e000a4
:10347000f3ff3a000200e000f1ff3c00750f9800f6
:10348000072798000800780001824300b2c2b30009
:103490000300e00001003200d2c2b300024a78000b
:1034a0000101e9008e219000828041008e4a900047
:1034b0000502fb001404b10053c6b300f90f52001b
:1034c00001003e0053c4b300834878007e0b900097
:1034d0000683e900760f9800820f560001003d0038
:1034e00059030700ce0b900063806300e20f500089
:1034f00015003a007e0890000000e0001200340041
:103500000e209000570307008e2190000400370022
:103510007e09900082804100e37078000000e9009d
:10352000de0a9000850f5000f9ff3d000327980048
:10353000058041007e09900001032000de020700a3
:103540000003eb00360f98000e20900045030700a3
:103550004e0a9000be099000000178008e20900075
:103560002e0090006d0007004f06be004f05be0004
:103570004f04be000080fa0000000600100020008a
:10358000e48f46002ffe3d00001f980057c6b30091
:10359000475f98004ffe37000d00e00032fe350017
:1035a000001f980042fe37000200fa00881f7800d2
:1035b00000047800e2bf9f00648157000800780093
:1035c00015020700980090000148a3000100320096
:1035d0000080eb004f0478000080fa000000060035
:1035e000889fbe00000478004800900082047800a4
:1035f000808f5400010036008004780009017800b3
:1036000058009000a50207005800900009004000f3
:1036100050049800c8009000898450004904980024
:103620000048eb004f04be000000060010007800c8
:103630004af43700900190000388a3000100320093
:10364000e7ff37000348a30001003a00f7ff070037
:1036500000000600881f78000004780000082000a1
:10366000808f50001700350010082000808f500018
:103670000b00340030082000808f500011003a0009
:103680009200780068805000000978003002be0087
:103690002003be00049cbe000694be000700370055
:1036a0009202780064805200000978001000be0089
:1036b000d1030700009cbe000294be001000200051
:1036c000010037000000eb004f0478000000060006
:1036d000889fbe00000478004800900082047800b3
:1036e000808f5400010036008004780009017800c2
:1036f000580090006902070058009000090040003f
:1037000050049800c8009000898450004904980033
:103710000048eb004f04be0000000600f28747009f
:10372000889fbe008a9fbe008c9fbe008e1f7800bf
:103730008004780001057800020478008305780091
:103740006107620002003a008b0f54000800390044
:10375000080178008a00780009007800b5ff0700aa
:103760008b0f540002003900880578001e003700d6
:10377000088655000c017800f00f56000100360055
:1037800002012000010220007e8057004a0207004b
:103790008c0678000500370002012000fe805700eb
:1037a00009007800a3ff0700f0865600ef8f56004f
:1037b000f9ff3e004461de0000ff2f000091b900d8
:1037c00002014600fe8057000900780099ff0700bb
:1037d0000e00e00004003a00080178008a0078003a
:1037e0000900780093ff07000b0078004f0778006e
:1037f0004f06be004f05be004f04be002f01b100b2
:1038000000000600000005000000050000000500a3
:10381000000178000040eb008080fb0081804000c8
:10382000838f200063c278000404e00003003a00a4
:10383000908f200060c078000000060092017800a0
:10384000934f520004003a00908f200060c078002f
:103850000309e800010037000040e800ea4f50008b
:10386000edff360000000600f6874700889fbe0087
:103870008a9fbe008c9fbe008e1f780000057800d6
:103880000104780083057800040678000000eb004e
:10389000c0b79f008080eb00d1b79f00e0b79f00ca
:1038a000f2b79f000008200080bf9f0098007800ba
:1038b000010078008004eb00010037008904e80073
:1038c000304178000204e0000300320053c2b3002c
:1038d000834f5100f9ff3a000900e0000400320074
:1038e000090178000a00780052ff0700188c440094
:1038f0001807780050c2b3009e4f10003f013a00f5
:103900000e07e8000e0c780010003700cfb09700cb
:103910000100a0000b003700cfb097000110a000fd
:1039200008003700cfb097000120a0000500370045
:10393000cfb097000130a00002003700cfb0970051
:103940000140a000c1b79f00000ce80018007800fb
:1039500090407800b2c2b30082cf5000f1ff320035
:1039600007003c0002c2b30082cf5000f0ff3200db
:1039700032c2b30082cf500007003a00efff370099
:10398000d2c2b30082cf5000e0ff320002c3b300c6
:1039900082cf5000e0ff3200a2c2b30082cf5000bd
:1039a0000d003a00000ce8001c80e900000e7800d1
:1039b00010007800e0b79f000000e0000f003d001d
:1039c000cfb097000100a200c1b79f000000ea003d
:1039d000e0b79f000900370084010700e0b79f00af
:1039e00001003700000ce800180078009000fb0090
:1039f0000103b100e98f5000faff36004fb0970085
:103a00000008a300020032000010a100c0b79f0010
:103a100018007800e1c2b30090cf100016003a0001
:103a20008000eb00d1b79f000000e800000c780098
:103a3000a1c2b30090cf100006003a00000ce800cd
:103a40001c80e900000e780010007800d0b79f00bd
:103a50000900370065010700d0b79f00010037005b
:103a6000000ce800180078009000fb000103b10092
:103a7000e98f5000faff36000800780064ff070065
:103a800080467800180078001000fb00170207003d
:103a900091062000810f50003800320012003c00d7
:103aa00041062000810f5000340032000a003c0023
:103ab00011062000810f5000200032003106200046
:103ac000810f5000a000320051022000810f5000f1
:103ad000bc003a00b400370071062000810f50008e
:103ae000b8003c008800370001072000810f50001b
:103af0005c00320007003c00e1062000810f50000e
:103b00007a003200f1062000810f5000ad003a002b
:103b10003900370051072000810f50002700320084
:103b200081072000810f5000420032003107200041
:103b3000810f5000a3003a008f0037008d80fb00fa
:103b40000c01780000fe2f000f004000c1fe0700ae
:103b50000000e000a800320018007800000ce80027
:103b60009041780002fe2f000f014100f8805700bd
:103b70000a00780024ff07000e0037008d80fb004c
:103b80008c0178001200200000fe2f000f00400082
:103b9000e10107000000e00097003200180ce80087
:103ba00002fe2f000f014100f88057000a00780044
:103bb00014ff070080844400900037008d80fb00d4
:103bc0008c0178000001eb0000fe2f000f00400088
:103bd000d10107000000e00087003200180ce80067
:103be00002fe2f000f014100f88057000a00780004
:103bf00004ff0700efff37008d80fb008c01780089
:103c00000001eb0000fe2f000f004000c201070082
:103c10000000e00078003200180ce80002fe2f00df
:103c20000f014100f88057000a007800f5fe0700f8
:103c3000e0ff37008d80fb008c0178000001eb0075
:103c400000fe2f000f004000b30107000000e0005d
:103c50006900320018007800000ce80090417800fc
:103c60001c0037008c0178000001eb00010f2000e0
:103c700000fe2f000f004000a70107000000e00039
:103c80005d003200180ce8000fb097009fb097005d
:103c90002fb19700bfb19700e00f5000e08f5800a0
:103ca000e00f5900e08f590009003a00cfb59700a6
:103cb0006fb49700008f20006a0107000b027800a4
:103cc0008801780000017800018f2000470037004c
:103cd00083c7b30002fe2f000f014100f880570098
:103ce0000a007800c8fe0700b2ff37000b814400cd
:103cf0008d80fb008c01780000fe2f000f0040003b
:103d0000d90107003c0037008d80fb000c017800d2
:103d100000fe2f000f0040004efe07000000e000f4
:103d20003500320018007800000ce800904178005f
:103d300002fe2f000f014100f88057000a007800b2
:103d40003efb07009bff370000c8b30080cf560042
:103d500029003a00180ce8001c80e900000e7800e9
:103d600010407800e0df9f0013002000e2fd2f00ec
:103d70000f0141000800370000c8b30080cf560093
:103d80001d003a00180ce8001c80e900000e7800c5
:103d90008001eb0010017800f88057000a007800dd
:103da0009afe070083ff370000c8b30080cf56009b
:103db00011003a00180ce8004fb29700efb19700dd
:103dc000080037000e0c78000000eb00c0b79f0021
:103dd000e0b79f000080eb00d0b79f000002eb002f
:103de0008401780012002000618f20000a00780012
:103df0004afe07006fff3700180ce8000900780042
:103e00004f0778004f06be004f05be004f04be00ae
:103e10006f01b100000006008200fa00889fbe001a
:103e20008a1f78000005780082047800c13f9f0057
:103e30000004eb00100037000902780088017800c8
:103e4000a2f72f000f01410081f72f008f80400063
:103e50000a00780084fe070008004000880f500028
:103e600004003d00b0042000804988000084eb007d
:103e700004003700000478004f3897001004e00079
:103e8000edff3a00080078004f0578004f04be00af
:103e90000080fa0000000600889fbe000004be00fb
:103ea0000000eb000800e00018003200180090004d
:103eb0000058a3000d003200d80090006800900068
:103ec000808f500009003600b80990000001eb0017
:103ed000820078000800780003000100d8009000fc
:103ee0000080eb000100e000080032000000eb0061
:103ef000200c980060049800500498000900e0002d
:103f000002003200180078000bf207004f04be00d8
:103f100000000600889fbe000004be000000eb0009
:103f20000800e00025003200180090000058a300af
:103f300011003200d800900068009000808f50007f
:103f400009003600b80990000001eb0082007800fb
:103f50000800780003000100d80090000080eb000a
:103f60000100e000150032000000eb00200c98007a
:103f70006004980050049800780a9000081090009f
:103f8000800f520006003100000252001100200094
:103f9000cfa2de00612bb9001800780039000700bd
:103fa0000000eb0000149800700c98000900e0007d
:103fb0000200320018007800dff107004f04be0055
:103fc000000006008000780010002000020220009f
:103fd000828f500004003200e9805000e48f5000ce
:103fe000010036000000eb0000000600889fbe00c4
:103ff0008a1f7800000578000a0478009844780049
:104000000805e8000900fb00eeff07000000e000e3
:10401000f9ff3a00b0c2b30080cf5400050032006f
:10402000d0c2b3008000eb0080cf540005003a00fe
:10403000020037008000eb00010037001100200073
:104040000804e8000000eb00030037006a02b90032
:10405000020052000003b0003801fb0003fd2f00f6
:1040600082814100e98f5100f8ff36000100e00035
:1040700001003a000000ea004f0578004f04be003e
:1040800000000600a0fd2f00f1ff2f008d000700ab
:104090004f89de0082017800000006008001780070
:1040a00002003700b15978000201e9000200e00087
:1040b000fcff3a0000000600889fbe008a9fbe00f9
:1040c000800478000200e0005b00320001407800cc
:1040d000814c780082814400f1f99f00e20f510089
:1040e0005500360091449800a1449800e1f99f00e2
:1040f000d1f99f00e60f51004f003600b1449800ff
:10410000c1f99f00e80f51004b0036000905ea0095
:10411000630565000a8444000a055100c1ff2f00b1
:10412000010565000080fb008000eb0012102000fc
:1041300013102000cf010700008cbe000a014400cc
:1041400060b99f0071b99f00e80f55003a00360032
:10415000200498003104980040049800510498000d
:1041600020b99f0031b99f0040b99f0051b99f000d
:10417000f80f550030003600600498007104980074
:10418000000c9800110c9800200c9800310c98003d
:10419000400c9800510c980020b19f0031b19f0055
:1041a00040b19f0051b19f0060b19f0071b19f006d
:1041b00000b99f0011b99f006401640078014100bb
:1041c00002044400020555006011b8000203be005d
:1041d0000002be000403be006022b80000007200ae
:1041e0008180720002017300838173001000370028
:1041f000009cbe000294be00400498005104980048
:104200006204980073049800000c9800110c980048
:10421000220c9800330c9800400c9800510c980028
:10422000620c9800730c98000a02b1000802b000fa
:10423000ff0f5500eeff3e00090078004f05be005d
:104240004f04be0000000600881f780000047800bc
:1042500008007800bc000700080078004f047800d0
:104260000000060080007800040037003104e00000
:1042700002003a0000005100000006000101780031
:104280000108a300f9ff3a008101780031017800ac
:10429000f4ef2f00020242000281ea0002016200f4
:1042a0000408280004016100f7ff32008300780051
:1042b000010178003104e000fdff3a0000005100e8
:1042c0000000060002002f00f3ff2f00820f5000b5
:1042d000838f5800040036000000ea0080498800ff
:1042e0000080eb008080eb0000000600f1fb2f0057
:1042f00080804000f98f500001003e000050a00077
:1043000000000600f9ff370000000600c6f90700ac
:10431000fdff0700fcff370084082000848f500059
:104320001d0032000d003c0014082000848f500056
:104330002700320002003c0004082000040037007f
:1043400024082000848f50003400320044082000ec
:10435000848f500043003a0036003700040a2000e2
:10436000848f50002700320004003c000409200024
:10437000848f50003b003a0028003700020c2000d8
:10438000828f50002f003200020f2000828f5000d9
:1043900034003a002b0037009380e9000200e0006f
:1043a00005003200810978001102fb00cfa2de0077
:1043b000612bb9002800370081097800114278008c
:1043c0000482fb008002eb006033b800220037005b
:1043d00013027800e40052000200e0000500320001
:1043e000810978001102be004fabde008603780021
:1043f00019003700810978001102be006033b8004f
:10440000150037009380e9008109780011027800d7
:10441000cfa2de00612bb9000f00370093027800b5
:10442000e8805200810978003102be002103be00fd
:10443000090037009380e9000200e000020032002a
:10444000f1ff37009380e9008109780011027800bc
:104450008002eb006033b8000498be000690be00f6
:10446000100005000000050044082000848f500063
:104470002500320008003c0014082000848f500002
:104480001400320024082000848f500024003200e1
:10449000040820000c00370004092000848f50001d
:1044a0001f00320004003c0084082000848f50006c
:1044b00024003a000e003700040a2000848f5000c8
:1044c00011003200040c2000848f50001d003a00bf
:1044d0000d0037009380e900810978009100780091
:1044e00001087800cf91de008288be0014003700fa
:1044f0009380e90081097800910078000108780034
:10450000824878000e0037009380e9008109780026
:1045100091007800010878008208780008003700d0
:104520009380e90081097800910078000108780003
:104530006112b900612bb9008498be008690be005c
:1045400010000500000005000101780080017800de
:10455000008268000408a300050032001300370041
:1045600032407800805978000004e00014003200e6
:10457000030278000208a300f9ff3a000300780064
:10458000010037000318780082007800b20178003b
:10459000f5ef2f00838242000382ea00048262006a
:1045a0000508280005026200f6ff320000027800cc
:1045b00031417800025878000204e000fbff3a0025
:1045c000040078000000060000c0da0000000600c9
:1045d0008f1fd100ce0207008f87e9000000e000a6
:1045e00000000600809feb00c90207008f87e900ea
:1045f0000000e00000000600810378009cf0070046
:104600000001be006000b8000478a30013003a0067
:104610006220e10015003e000d0039008301d10049
:104620000281d3008180d3008301d1000281d300b5
:104630008180d3008301d1000281d3008180d30027
:104640000538b000c42add00f300b2008381720097
:1046500007f0a70003f0a0000000060083ff27007a
:10466000020020006110b900f9ff370003ff2700a6
:10467000f7ff37001400fa00889fbe008a9fbe0033
:104680008c9fbe000004be000205be00680047000b
:104690000a90be000890be00d80207000070a70074
:1046a0000bf0a100304320009e0290008082520057
:1046b000b0fe2f000028e10011003d00b0fc2f00eb
:1046c0000028e100150034001e0990008e089000bb
:1046d0007e0090000501b0000201d1008180d3006e
:1046e0000080d3008502e800fbff3a000b00e000e9
:1046f000fd023b0060001000e0801800fa02370065
:10470000f0ff2f00f1ff27000b00e000f6023b0056
:104710000100280000002000f30237006000b8000c
:10472000f10237000003be0051f007006011b8002d
:104730000470a70007f0a1006509b1001b0032005a
:1047400012003500860220000628e100080035002e
:10475000f3ff2700f2ff2f006110b9000700e0000f
:1047600018003b00030028006000b80002000500ac
:104770000000400081804800020149008381490017
:104780008502e900faff3a0008003700f88f42007e
:1047900002003c008000eb00000005008100d10019
:1047a0000080d3008502e800fcff3a000700e0002b
:1047b00004003b0060001000e08018006001190058
:1047c000e0811900000006001400fa00889fbe0076
:1047d0008a9fbe008c9fbe000005be000206be0080
:1047e000680047000c90be000a90be0083020700dc
:1047f0006400e1001a00320016003e006100e10092
:104800001a0032006e049000fe0490000e0b90001f
:104810009e0b90006011b8009e0590000b38b1000f
:10482000d501200082817100610164008703d100fd
:104830000683d3008984d3000884d3008502e9006d
:10484000f8ff3a00cef307000df0a70001f0a0003a
:10485000a502370001fc270000002000faff370006
:1048600001f8270000002000f7ff37006000b800c3
:10487000f5ff3700020ab900001bb9000200b800ba
:104880008100420081004300000006008c9fbe00b2
:104890008a9fbe00889fbe00ca0107000bf0a200dd
:1048a000040037008c9fbe008a9fbe00889fbe0018
:1048b000c40107000c48e1000b003a000c40e10085
:1048c000020032008b010700400037008b066d00ac
:1048d0003e0032000af0a100f3012000f2ff2f0099
:1048e0006110b900390037000c40e1003700320098
:1048f0000940e100010036007e0107008a856d0055
:10490000cf5dde000b0575000006eb008804fd009e
:1049100089045400010032007d0107000a04e00010
:1049200011003a000800e0002800320004004000b6
:104930008580480006014900878149000358a3008b
:10494000180032008301d1000281d3008180d3009e
:104950000080d3000c86d300010039006106760088
:104960000804e80018003700040050008580580053
:104970000601590087815900060031000af0a200a3
:104980000c06ea0060001800e080180060011900c1
:10499000e081190003003a000004eb000005eb0081
:1049a0000a0037000348a30007003a000c0646003f
:1049b00000004800818048000201490083814900cd
:1049c0000804e900f7ff3700af013700c9013700dd
:1049d0008c9fbe008a9fbe00889fbe0079010700a1
:1049e0000b056d000940e1000a003a000800e000f4
:1049f000020032000c40e10006003a000af0a1007b
:104a00000c047800f3012000f2ff2f006110b900c0
:104a10009d0037000c40e1009b0032000800e000e0
:104a2000990032000c48e10002003a000004eb005b
:104a3000030037000900e00004003a000c0478008d
:104a40006000b8006011b8008f0037000348a30071
:104a500006003a0000004000818048000201490041
:104a6000838149000804e900f8ff37000748a300e4
:104a700006003a000402420085824a0006034b0009
:104a800087834b008904e900f8ff3700fd3f2000d1
:104a90008d845400090454008a1f7800881f780010
:104aa000000478008104780002057800830578000e
:104ab0006000b8006011b8000d0420000500370048
:104ac0000804440089844c000a054d008b854d0084
:104ad000080031000404540085845c0006055d0074
:104ae00087855d008381d2008d06d300f4ff3b00f3
:104af000070037000404440085844c0006054d007f
:104b000087854d008381d2008d06d300ecff3b00ea
:104b10000804440089844c000a054d008b854d0033
:104b2000080031000404540085845c0006055d0023
:104b300087855d000281d2008d06d300f4ff3b0023
:104b4000070037000404440085844c0006054d002e
:104b500087854d000281d2008d06d300ecff3b001b
:104b60000804440089844c000a054d008b854d00e3
:104b7000080031000404540085845c0006055d00d3
:104b800087855d008180d2008d06d300f4ff3b0055
:104b9000070037000404440085844c0006054d00de
:104ba00087854d008180d2008d06d300ecff3b004d
:104bb0000804440089844c000a054d008b854d0093
:104bc000080031000404540085845c0006055d0083
:104bd00087855d000080d2008d06d300f4ff3b0086
:104be000070037000404440085844c0006054d008e
:104bf00087854d000080d2008d06d300ecff3b007e
:104c00000b00e00004003d000404440085844c00d7
:104c100006054d0087854d000006eb008301d1009d
:104c20000281d3008180d3000080d3000c86d300a2
:104c30008301d1000281d3008180d3000080d300a2
:104c40000c86d300890474008b0575008b84740076
:104c500001003200610676004f0478004f057800ad
:104c60000348a30007003a000c0646000000480075
:104c70008180480002014900838149000804e9005d
:104c8000f7ff3700000137001a0137008c9fbe0084
:104c90008a9fbe00889fbe00ca0007000b056d00fa
:104ca0008a0578000c40e10008003a000900e000a5
:104cb00082003a000af0a1000c047800f301200001
:104cc000f2ff2f006110b9007c0037000c48e100b2
:104cd00004003a00870007000900e00077003a006e
:104ce000f4ff37000800e000740032000900e00023
:104cf00002003a007f00070070003700ed3f2000ff
:104d00008d845400090444008a1f7800881f7800ad
:104d1000871f7800861f7800851f7800841f780021
:104d2000cb19dd00c515de008b8571004b11dd0050
:104d3000450dde000a057100cb08dd00c504de006c
:104d4000898470004b04dd000440b8000546b800bb
:104d50008c80400060814e00044eb8008c80400082
:104d60000d0149008001eb000318ad000456b800a6
:104d70000c0141008d8149000002eb000420ad00d0
:104d80000646b8000c0141008d81490060024a00ce
:104d9000054eb8000c0141008d81490060024a00b7
:104da0000556b8008c8141000d024a008002eb00dc
:104db0000528ad000746b8008c8141000d024a006d
:104dc000e0824a00064eb8008c8141000d024a0084
:104dd000e0824a004f0678000c5eb8008c814100ea
:104de0000d024a00e0824a000656b8000c0242005a
:104df0008d824a000003eb000630ad00074eb8007c
:104e00000c0242008d824a0060034b004f0678007e
:104e10000c5eb8000c0242008d824a0060034b0019
:104e20000756b8008c8242000d034b008003eb0054
:104e30000738ad004f0678000c5eb8008c82420047
:104e40000d034b00e0834b004f0678000c5eb8006a
:104e50000c0343008d834b004f0478004f0578000e
:104e60000748a3000a003a00000040008180480083
:104e7000020149008381490004024a0085824a00f8
:104e800006034b0087834b000804e900f4ff37005a
:104e9000030678008080700082807000010032007c
:104ea00061067600870178000601780085007800a9
:104eb0000400780088047800780037008d003700ff
:104ec0008c06460002003a000000a6000000060022
:104ed00060004800e080480060014900e08149002e
:104ee0000350a600000006008301d1000804e8007a
:104ef000000006000002fd008102fd000203fd002b
:104f00008303fd008804fd008a05fd000000060003
:104f10007048e1001a0039007d0320000d48e100cf
:104f20000a00390081057000830671008c857500c8
:104f30008d8575000006eb000cd8e7006106760051
:104f40006000b8006011b800000006007048e10081
:104f50000b0039008c05780000067800010078000d
:104f600082007800030178008001eb0003d8e7009d
:104f700061067600f0845400f4ff3a000000060059
:104f80006160e1000c48ad00f08514008b06dd0087
:104f90000966de000d0676008b0edd000900de00de
:104fa0000d0070008b16dd008908de008d8070001a
:104fb0008b1edd000911de000d0171008919de0074
:104fc000000006000d002800fc7f20000d85610018
:104fd000441cde00ef8161000c046400010032001b
:104fe0000340a0008d856300c43cde00ef836300b6
:104ff0008c846400010032000740a0000c40e100f6
:1050000006003a00ef86610082867600818676008f
:105010008086760001003200180037000c48e1005d
:1050200007003a00ef866300868676008586760064
:105030008486760002003200aeff07000f003700c2
:105040000348a30005003a008106700082867600be
:1050500083867600010032000804e8000748a300b8
:1050600005003a00850672008686760087867600ff
:10507000010032008904e80000000600cf04780037
:10508000cf0578001b00370000027800810278000d
:105090000203780083037800880478000cf0a700ee
:1050a00087ff0700fd7f20000d40e1000400350070
:1050b0000d0478006000b8006011b8000d003700e2
:1050c0000800e0000b003c00040078008500780038
:1050d0000601780087017800e18414008cff070046
:1050e0000cf0a70076ff07000004eb000340a700c8
:1050f0000804e8004444dd006fc5610088017500c4
:105100004f04be004f05be004f06be000000060063
:10511000889fbe008a9fbe008c9fbe000404be0014
:105120000605be00809fbe00829fbe0021000700d2
:10513000040678000800be000a01be001d0007003a
:10514000840678004f03be004f02be008d4f7600ec
:105150007fb0970013003300f0ff2f008b8f6b00a0
:1051600006003b000d0666000c00a7000a00370091
:1051700007f0a600100020000a003700880f520038
:10518000898f5a008a0f5b008b8f5b000300390008
:105190001000200001003e000000200007f0a700e2
:1051a0000000ea004f06be004f05be004f04be00df
:1051b0000000060005ff270005826100070032009d
:1051c0000428e10001003200240005000600070069
:1051d00001003a0044000500040805000200070031
:1051e000f9ff3a00140005006f826100810270002f
:1051f00085027100850272000000060080007800c0
:105200005002be005003be004439de00f700b20079
:10521000f37f200003016100090032000218e10061
:1052200016003a00850172008301730083817300c8
:105230000008200015003a0040002000130037004d
:1052400085017200830173008381730005003a00b9
:1052500004a8be0006a8be00100020000b00370006
:105260000201e9000402420085824a0006034b0065
:1052700087834b000748a300f9ff32000740a000d6
:1052800004a8be0006a8be002000200080009800f0
:105290009200980000000600680447000294be00d7
:1052a0000094be00fc0447008694be008494be00b7
:1052b00009007800d1ff070008007800cfff070041
:1052c00099007800814f70000b003b000800be0081
:1052d0000a0007004f00b10003003700f3ff27006a
:1052e000f2ff2f006110b9004f06be004f05be004f
:1052f0004f04be000080fa0000000600e482400077
:105300001078a30007003200640240001178a30067
:105310003400be001401be00040032000330a700b8
:10532000000006003500be001501be000330a000dd
:10533000000006001800fa00889fbe008a9fbe0089
:105340008c1f78000004be000205be000802be00eb
:105350000a03be00443ade00f07f2000000662002f
:1053600020432000800f560067003c006022b800f8
:105370006033b8000800be0095fc07000000e000a4
:10538000610032000802be000a03be00b4b79f00ed
:10539000c5b79f00d6b79f00e7b79f00e00f520048
:1053a000e08f5a00e00f5b00e08f5b000b003d00d8
:1053b0006022b80006002000073324000800be0069
:1053c0000a01be0031fd07006022b800060020007f
:1053d0000733240033fd07000a0037006022b800bd
:1053e00006002000073324000800be000a01be00aa
:1053f0002cfd07006022b8000600200007332400bf
:1054000022fd07000802be000a03be001ffd0700c0
:105410000002be000203be00f4b79f0085bf9f00dc
:1054200096bf9f00a7bf9f00e03f2000800f56005f
:1054300017003c007fb097008fb897001fb9970006
:10544000afb99700f0af9f0081b79f0092b79f0060
:10545000a3b79f006044b8006055b8003fb2970002
:10546000cfb297005fb39700efb39700e00f520001
:10547000e08f5a00e00f5b00e08f5b0022003d00f0
:105480006044b8000a0020000bff2b001e0037000c
:105490006022b8006033b8007fb097008fb89700e3
:1054a0001fb99700afb997004efc07000000e0005d
:1054b0000c0034007fb297008fba97001fbb970093
:1054c000afbb97000800be000a01be00f5fc070054
:1054d0006022b8000600200007ff2300ebfc070055
:1054e000070037007fb297008fba97001fbb970065
:1054f000afbb97000800be000a01be00e9fc070030
:105500000004be000205be000800be000a01be0085
:105510004f0678004f05be004f04be000080fa0021
:045520000000060081
:020000040000fa
:10552400256600000a000000256600000000000057
:020000040000fa
:105534000c00fa00881f7800400798005107980073
:105544000000200001002400200798003107980083
:105554000200200003f423004e009000de009000bf
:10556400a4ee07000200200003e82300ddec07009e
:10557400008fbe0018c0b3002e019000be01900041
:105584001e00be0093ec07000000e00001003c0098
:105594000044eb000804e000040032002e019000f7
:1055a400be019000028fbe000d00370018c0b3008a
:1055b4000200200003f023001e00be0083ec07005d
:1055c4000000e000010035000044eb000804e000a6
:1055d400030032000000200001f02300008fbe0011
:1055e4001e00be004f0478000080fa000000060090
:1055f4000400fa00000f780011079800d1408000e1
:1056040070002800008060000000e00004003d00fd
:105614000000e90081ff2f00008070000000e80016
:10562400d0408800d04080009e0090000080400060
:105634009040780000c7b30000c070000080fb00f9
